{
  "contractName": "MineorityOwnership",
  "abi": [
    {
      "constant": true,
      "inputs": [
        {
          "name": "_interfaceID",
          "type": "bytes4"
        }
      ],
      "name": "supportsInterface",
      "outputs": [
        {
          "name": "",
          "type": "bool"
        }
      ],
      "payable": false,
      "stateMutability": "pure",
      "type": "function"
    },
    {
      "constant": true,
      "inputs": [],
      "name": "cfoAddress",
      "outputs": [
        {
          "name": "",
          "type": "address"
        }
      ],
      "payable": false,
      "stateMutability": "view",
      "type": "function"
    },
    {
      "constant": true,
      "inputs": [],
      "name": "name",
      "outputs": [
        {
          "name": "",
          "type": "string"
        }
      ],
      "payable": false,
      "stateMutability": "view",
      "type": "function"
    },
    {
      "constant": true,
      "inputs": [
        {
          "name": "_tokenId",
          "type": "uint256"
        }
      ],
      "name": "getApproved",
      "outputs": [
        {
          "name": "",
          "type": "address"
        }
      ],
      "payable": false,
      "stateMutability": "view",
      "type": "function"
    },
    {
      "constant": false,
      "inputs": [
        {
          "name": "_to",
          "type": "address"
        },
        {
          "name": "_tokenId",
          "type": "uint256"
        }
      ],
      "name": "approve",
      "outputs": [],
      "payable": false,
      "stateMutability": "nonpayable",
      "type": "function"
    },
    {
      "constant": true,
      "inputs": [],
      "name": "ceoAddress",
      "outputs": [
        {
          "name": "",
          "type": "address"
        }
      ],
      "payable": false,
      "stateMutability": "view",
      "type": "function"
    },
    {
      "constant": true,
      "inputs": [],
      "name": "totalSupply",
      "outputs": [
        {
          "name": "",
          "type": "uint256"
        }
      ],
      "payable": false,
      "stateMutability": "view",
      "type": "function"
    },
    {
      "constant": true,
      "inputs": [],
      "name": "ctoAddress",
      "outputs": [
        {
          "name": "",
          "type": "address"
        }
      ],
      "payable": false,
      "stateMutability": "view",
      "type": "function"
    },
    {
      "constant": false,
      "inputs": [
        {
          "name": "_from",
          "type": "address"
        },
        {
          "name": "_to",
          "type": "address"
        },
        {
          "name": "_tokenId",
          "type": "uint256"
        }
      ],
      "name": "transferFrom",
      "outputs": [],
      "payable": false,
      "stateMutability": "nonpayable",
      "type": "function"
    },
    {
      "constant": false,
      "inputs": [
        {
          "name": "_newCEO",
          "type": "address"
        }
      ],
      "name": "setCEO",
      "outputs": [],
      "payable": false,
      "stateMutability": "nonpayable",
      "type": "function"
    },
    {
      "constant": true,
      "inputs": [
        {
          "name": "_owner",
          "type": "address"
        },
        {
          "name": "_index",
          "type": "uint256"
        }
      ],
      "name": "tokenOfOwnerByIndex",
      "outputs": [
        {
          "name": "",
          "type": "uint256"
        }
      ],
      "payable": false,
      "stateMutability": "view",
      "type": "function"
    },
    {
      "constant": false,
      "inputs": [],
      "name": "unpause",
      "outputs": [],
      "payable": false,
      "stateMutability": "nonpayable",
      "type": "function"
    },
    {
      "constant": false,
      "inputs": [
        {
          "name": "_from",
          "type": "address"
        },
        {
          "name": "_to",
          "type": "address"
        },
        {
          "name": "_tokenId",
          "type": "uint256"
        }
      ],
      "name": "safeTransferFrom",
      "outputs": [],
      "payable": false,
      "stateMutability": "nonpayable",
      "type": "function"
    },
    {
      "constant": false,
      "inputs": [
        {
          "name": "_newCFO",
          "type": "address"
        }
      ],
      "name": "setCFO",
      "outputs": [],
      "payable": false,
      "stateMutability": "nonpayable",
      "type": "function"
    },
    {
      "constant": true,
      "inputs": [
        {
          "name": "_tokenId",
          "type": "uint256"
        }
      ],
      "name": "exists",
      "outputs": [
        {
          "name": "",
          "type": "bool"
        }
      ],
      "payable": false,
      "stateMutability": "view",
      "type": "function"
    },
    {
      "constant": true,
      "inputs": [
        {
          "name": "_index",
          "type": "uint256"
        }
      ],
      "name": "tokenByIndex",
      "outputs": [
        {
          "name": "",
          "type": "uint256"
        },
        {
          "name": "",
          "type": "uint256"
        }
      ],
      "payable": false,
      "stateMutability": "view",
      "type": "function"
    },
    {
      "constant": true,
      "inputs": [],
      "name": "paused",
      "outputs": [
        {
          "name": "",
          "type": "bool"
        }
      ],
      "payable": false,
      "stateMutability": "view",
      "type": "function"
    },
    {
      "constant": true,
      "inputs": [],
      "name": "InterfaceSignature_ERC721Optional",
      "outputs": [
        {
          "name": "",
          "type": "bytes4"
        }
      ],
      "payable": false,
      "stateMutability": "view",
      "type": "function"
    },
    {
      "constant": true,
      "inputs": [
        {
          "name": "_tokenId",
          "type": "uint256"
        }
      ],
      "name": "ownerOf",
      "outputs": [
        {
          "name": "owner",
          "type": "address"
        }
      ],
      "payable": false,
      "stateMutability": "view",
      "type": "function"
    },
    {
      "constant": true,
      "inputs": [
        {
          "name": "_owner",
          "type": "address"
        }
      ],
      "name": "balanceOf",
      "outputs": [
        {
          "name": "count",
          "type": "uint256"
        }
      ],
      "payable": false,
      "stateMutability": "view",
      "type": "function"
    },
    {
      "constant": false,
      "inputs": [],
      "name": "pause",
      "outputs": [],
      "payable": false,
      "stateMutability": "nonpayable",
      "type": "function"
    },
    {
      "constant": true,
      "inputs": [],
      "name": "symbol",
      "outputs": [
        {
          "name": "",
          "type": "string"
        }
      ],
      "payable": false,
      "stateMutability": "view",
      "type": "function"
    },
    {
      "constant": false,
      "inputs": [
        {
          "name": "_to",
          "type": "address"
        },
        {
          "name": "_approved",
          "type": "bool"
        }
      ],
      "name": "setApprovalForAll",
      "outputs": [],
      "payable": false,
      "stateMutability": "nonpayable",
      "type": "function"
    },
    {
      "constant": false,
      "inputs": [
        {
          "name": "_from",
          "type": "address"
        },
        {
          "name": "_to",
          "type": "address"
        },
        {
          "name": "_tokenId",
          "type": "uint256"
        },
        {
          "name": "_data",
          "type": "bytes"
        }
      ],
      "name": "safeTransferFrom",
      "outputs": [],
      "payable": false,
      "stateMutability": "nonpayable",
      "type": "function"
    },
    {
      "constant": true,
      "inputs": [
        {
          "name": "_owner",
          "type": "address"
        },
        {
          "name": "_operator",
          "type": "address"
        }
      ],
      "name": "isApprovedForAll",
      "outputs": [
        {
          "name": "",
          "type": "bool"
        }
      ],
      "payable": false,
      "stateMutability": "view",
      "type": "function"
    },
    {
      "constant": false,
      "inputs": [
        {
          "name": "_newCTO",
          "type": "address"
        }
      ],
      "name": "setCTO",
      "outputs": [],
      "payable": false,
      "stateMutability": "nonpayable",
      "type": "function"
    },
    {
      "anonymous": false,
      "inputs": [
        {
          "indexed": true,
          "name": "from",
          "type": "address"
        },
        {
          "indexed": true,
          "name": "to",
          "type": "address"
        },
        {
          "indexed": true,
          "name": "tokenId",
          "type": "uint256"
        }
      ],
      "name": "Transfer",
      "type": "event"
    },
    {
      "anonymous": false,
      "inputs": [
        {
          "indexed": true,
          "name": "owner",
          "type": "address"
        },
        {
          "indexed": true,
          "name": "approved",
          "type": "address"
        },
        {
          "indexed": true,
          "name": "tokenId",
          "type": "uint256"
        }
      ],
      "name": "Approval",
      "type": "event"
    },
    {
      "anonymous": false,
      "inputs": [
        {
          "indexed": true,
          "name": "_owner",
          "type": "address"
        },
        {
          "indexed": true,
          "name": "_operator",
          "type": "address"
        },
        {
          "indexed": false,
          "name": "_approved",
          "type": "bool"
        }
      ],
      "name": "ApprovalForAll",
      "type": "event"
    }
  ],
  "bytecode": "0x60806040526000600260146101000a81548160ff0219169083151502179055506040805190810160405280600981526020017f4d696e656f726974790000000000000000000000000000000000000000000000815250600990805190602001906200006c929190620000cf565b506040805190810160405280600481526020017f4d494e4500000000000000000000000000000000000000000000000000000000815250600a9080519060200190620000ba929190620000cf565b50348015620000c857600080fd5b506200017e565b828054600181600116156101000203166002900490600052602060002090601f016020900481019282601f106200011257805160ff191683800117855562000143565b8280016001018555821562000143579182015b828111156200014257825182559160200191906001019062000125565b5b50905062000152919062000156565b5090565b6200017b91905b80821115620001775760008160009055506001016200015d565b5090565b90565b6120b2806200018e6000396000f300608060405260043610610154576000357c0100000000000000000000000000000000000000000000000000000000900463ffffffff16806301ffc9a7146101595780630519ce79146101bd57806306fdde0314610214578063081812fc146102a4578063095ea7b3146103115780630a0f81681461035e57806318160ddd146103b55780631f513660146103e057806323b872dd1461043757806327d7874c146104a45780632f745c59146104e75780633f4ba83a1461054857806342842e0e1461055f5780634e0a3379146105cc5780634f558e791461060f5780634f6ccce7146106545780635c975abb1461069c578063624de3d9146106cb5780636352211e1461073457806370a08231146107a15780638456cb59146107f857806395d89b411461080f578063a22cb4651461089f578063b88d4fde146108ee578063e985e9c5146109a1578063fe1439b414610a1c575b600080fd5b34801561016557600080fd5b506101a360048036038101908080357bffffffffffffffffffffffffffffffffffffffffffffffffffffffff19169060200190929190505050610a5f565b604051808215151515815260200191505060405180910390f35b3480156101c957600080fd5b506101d2610ba2565b604051808273ffffffffffffffffffffffffffffffffffffffff1673ffffffffffffffffffffffffffffffffffffffff16815260200191505060405180910390f35b34801561022057600080fd5b50610229610bc8565b6040518080602001828103825283818151815260200191508051906020019080838360005b8381101561026957808201518184015260208101905061024e565b50505050905090810190601f1680156102965780820380516001836020036101000a031916815260200191505b509250505060405180910390f35b3480156102b057600080fd5b506102cf60048036038101908080359060200190929190505050610c66565b604051808273ffffffffffffffffffffffffffffffffffffffff1673ffffffffffffffffffffffffffffffffffffffff16815260200191505060405180910390f35b34801561031d57600080fd5b5061035c600480360381019080803573ffffffffffffffffffffffffffffffffffffffff16906020019092919080359060200190929190505050610ca3565b005b34801561036a57600080fd5b50610373610e7b565b604051808273ffffffffffffffffffffffffffffffffffffffff1673ffffffffffffffffffffffffffffffffffffffff16815260200191505060405180910390f35b3480156103c157600080fd5b506103ca610ea0565b6040518082815260200191505060405180910390f35b3480156103ec57600080fd5b506103f5610ead565b604051808273ffffffffffffffffffffffffffffffffffffffff1673ffffffffffffffffffffffffffffffffffffffff16815260200191505060405180910390f35b34801561044357600080fd5b506104a2600480360381019080803573ffffffffffffffffffffffffffffffffffffffff169060200190929190803573ffffffffffffffffffffffffffffffffffffffff16906020019092919080359060200190929190505050610ed3565b005b3480156104b057600080fd5b506104e5600480360381019080803573ffffffffffffffffffffffffffffffffffffffff169060200190929190505050610ffc565b005b3480156104f357600080fd5b50610532600480360381019080803573ffffffffffffffffffffffffffffffffffffffff169060200190929190803590602001909291905050506110d6565b6040518082815260200191505060405180910390f35b34801561055457600080fd5b5061055d61114d565b005b34801561056b57600080fd5b506105ca600480360381019080803573ffffffffffffffffffffffffffffffffffffffff169060200190929190803573ffffffffffffffffffffffffffffffffffffffff169060200190929190803590602001909291905050506111e0565b005b3480156105d857600080fd5b5061060d600480360381019080803573ffffffffffffffffffffffffffffffffffffffff169060200190929190505050611234565b005b34801561061b57600080fd5b5061063a6004803603810190808035906020019092919050505061130f565b604051808215151515815260200191505060405180910390f35b34801561066057600080fd5b5061067f60048036038101908080359060200190929190505050611381565b604051808381526020018281526020019250505060405180910390f35b3480156106a857600080fd5b506106b161142a565b604051808215151515815260200191505060405180910390f35b3480156106d757600080fd5b506106e061143d565b60405180827bffffffffffffffffffffffffffffffffffffffffffffffffffffffff19167bffffffffffffffffffffffffffffffffffffffffffffffffffffffff1916815260200191505060405180910390f35b34801561074057600080fd5b5061075f60048036038101908080359060200190929190505050611480565b604051808273ffffffffffffffffffffffffffffffffffffffff1673ffffffffffffffffffffffffffffffffffffffff16815260200191505060405180910390f35b3480156107ad57600080fd5b506107e2600480360381019080803573ffffffffffffffffffffffffffffffffffffffff1690602001909291905050506114f9565b6040518082815260200191505060405180910390f35b34801561080457600080fd5b5061080d61157d565b005b34801561081b57600080fd5b50610824611611565b6040518080602001828103825283818151815260200191508051906020019080838360005b83811015610864578082015181840152602081019050610849565b50505050905090810190601f1680156108915780820380516001836020036101000a031916815260200191505b509250505060405180910390f35b3480156108ab57600080fd5b506108ec600480360381019080803573ffffffffffffffffffffffffffffffffffffffff1690602001909291908035151590602001909291905050506116af565b005b3480156108fa57600080fd5b5061099f600480360381019080803573ffffffffffffffffffffffffffffffffffffffff169060200190929190803573ffffffffffffffffffffffffffffffffffffffff16906020019092919080359060200190929190803590602001908201803590602001908080601f0160208091040260200160405190810160405280939291908181526020018383808284378201915050505050509192919290505050611807565b005b3480156109ad57600080fd5b50610a02600480360381019080803573ffffffffffffffffffffffffffffffffffffffff169060200190929190803573ffffffffffffffffffffffffffffffffffffffff169060200190929190505050611862565b604051808215151515815260200191505060405180910390f35b348015610a2857600080fd5b50610a5d600480360381019080803573ffffffffffffffffffffffffffffffffffffffff1690602001909291905050506118f6565b005b60006301ffc9a77c0100000000000000000000000000000000000000000000000000000000027bffffffffffffffffffffffffffffffffffffffffffffffffffffffff1916827bffffffffffffffffffffffffffffffffffffffffffffffffffffffff19161480610b3057506380ac58cd7c0100000000000000000000000000000000000000000000000000000000027bffffffffffffffffffffffffffffffffffffffffffffffffffffffff1916827bffffffffffffffffffffffffffffffffffffffffffffffffffffffff1916145b80610b9b575063780e9d637c0100000000000000000000000000000000000000000000000000000000027bffffffffffffffffffffffffffffffffffffffffffffffffffffffff1916827bffffffffffffffffffffffffffffffffffffffffffffffffffffffff1916145b9050919050565b600160009054906101000a900473ffffffffffffffffffffffffffffffffffffffff1681565b60098054600181600116156101000203166002900480601f016020809104026020016040519081016040528092919081815260200182805460018160011615610100020316600290048015610c5e5780601f10610c3357610100808354040283529160200191610c5e565b820191906000526020600020905b815481529060010190602001808311610c4157829003601f168201915b505050505081565b60006005600083815260200190815260200160002060009054906101000a900473ffffffffffffffffffffffffffffffffffffffff169050919050565b6000600260149054906101000a900460ff16151515610cc157600080fd5b610cca82611480565b90508073ffffffffffffffffffffffffffffffffffffffff168373ffffffffffffffffffffffffffffffffffffffff1614151515610d0757600080fd5b8073ffffffffffffffffffffffffffffffffffffffff163373ffffffffffffffffffffffffffffffffffffffff161480610d475750610d468133611862565b5b1515610d5257600080fd5b600073ffffffffffffffffffffffffffffffffffffffff16610d7383610c66565b73ffffffffffffffffffffffffffffffffffffffff16141580610dc35750600073ffffffffffffffffffffffffffffffffffffffff168373ffffffffffffffffffffffffffffffffffffffff1614155b15610e7657826005600084815260200190815260200160002060006101000a81548173ffffffffffffffffffffffffffffffffffffffff021916908373ffffffffffffffffffffffffffffffffffffffff160217905550818373ffffffffffffffffffffffffffffffffffffffff168273ffffffffffffffffffffffffffffffffffffffff167f8c5be1e5ebec7d5bd14f71427d1e84f3dd0314c0f7b2291e5b200ac8c7c3b92560405160405180910390a45b505050565b6000809054906101000a900473ffffffffffffffffffffffffffffffffffffffff1681565b6000600380549050905090565b600260009054906101000a900473ffffffffffffffffffffffffffffffffffffffff1681565b80610ede33826119d1565b1515610ee957600080fd5b600260149054906101000a900460ff16151515610f0557600080fd5b600073ffffffffffffffffffffffffffffffffffffffff168473ffffffffffffffffffffffffffffffffffffffff1614151515610f4157600080fd5b600073ffffffffffffffffffffffffffffffffffffffff168373ffffffffffffffffffffffffffffffffffffffff1614151515610f7d57600080fd5b610f878483611a66565b610f918483611bc5565b610f9b8383611cf4565b818373ffffffffffffffffffffffffffffffffffffffff168573ffffffffffffffffffffffffffffffffffffffff167fddf252ad1be2c89b69c2b068fc378daa952ba7f163c4a11628f55a4df523b3ef60405160405180910390a450505050565b6000809054906101000a900473ffffffffffffffffffffffffffffffffffffffff1673ffffffffffffffffffffffffffffffffffffffff163373ffffffffffffffffffffffffffffffffffffffff1614151561105757600080fd5b600073ffffffffffffffffffffffffffffffffffffffff168173ffffffffffffffffffffffffffffffffffffffff161415151561109357600080fd5b806000806101000a81548173ffffffffffffffffffffffffffffffffffffffff021916908373ffffffffffffffffffffffffffffffffffffffff16021790555050565b60006110e1836114f9565b821015156110ee57600080fd5b600760008473ffffffffffffffffffffffffffffffffffffffff1673ffffffffffffffffffffffffffffffffffffffff1681526020019081526020016000208281548110151561113a57fe5b9060005260206000200154905092915050565b6000809054906101000a900473ffffffffffffffffffffffffffffffffffffffff1673ffffffffffffffffffffffffffffffffffffffff163373ffffffffffffffffffffffffffffffffffffffff161415156111a857600080fd5b600260149054906101000a900460ff1615156111c357600080fd5b6000600260146101000a81548160ff021916908315150217905550565b806111eb33826119d1565b15156111f657600080fd5b600260149054906101000a900460ff1615151561121257600080fd5b61122e8484846020604051908101604052806000815250611807565b50505050565b6000809054906101000a900473ffffffffffffffffffffffffffffffffffffffff1673ffffffffffffffffffffffffffffffffffffffff163373ffffffffffffffffffffffffffffffffffffffff1614151561128f57600080fd5b600073ffffffffffffffffffffffffffffffffffffffff168173ffffffffffffffffffffffffffffffffffffffff16141515156112cb57600080fd5b80600160006101000a81548173ffffffffffffffffffffffffffffffffffffffff021916908373ffffffffffffffffffffffffffffffffffffffff16021790555050565b6000806004600084815260200190815260200160002060009054906101000a900473ffffffffffffffffffffffffffffffffffffffff169050600073ffffffffffffffffffffffffffffffffffffffff168173ffffffffffffffffffffffffffffffffffffffff161415915050919050565b60008061138c610ea0565b8310151561139957600080fd5b6003838154811015156113a857fe5b906000526020600020906002020160010160009054906101000a90046fffffffffffffffffffffffffffffffff166fffffffffffffffffffffffffffffffff166003848154811015156113f757fe5b9060005260206000209060020201600101601a9054906101000a900460ff16600281111561142157fe5b91509150915091565b600260149054906101000a900460ff1681565b7fffffffffffffffffffffffffffffffffffffffffffffffffffffffffb0aa71877c01000000000000000000000000000000000000000000000000000000000281565b60006004600083815260200190815260200160002060009054906101000a900473ffffffffffffffffffffffffffffffffffffffff169050600073ffffffffffffffffffffffffffffffffffffffff168173ffffffffffffffffffffffffffffffffffffffff16141515156114f457600080fd5b919050565b60008073ffffffffffffffffffffffffffffffffffffffff168273ffffffffffffffffffffffffffffffffffffffff161415151561153657600080fd5b600660008373ffffffffffffffffffffffffffffffffffffffff1673ffffffffffffffffffffffffffffffffffffffff168152602001908152602001600020549050919050565b6000809054906101000a900473ffffffffffffffffffffffffffffffffffffffff1673ffffffffffffffffffffffffffffffffffffffff163373ffffffffffffffffffffffffffffffffffffffff161415156115d857600080fd5b600260149054906101000a900460ff161515156115f457600080fd5b6001600260146101000a81548160ff021916908315150217905550565b600a8054600181600116156101000203166002900480601f0160208091040260200160405190810160405280929190818152602001828054600181600116156101000203166002900480156116a75780601f1061167c576101008083540402835291602001916116a7565b820191906000526020600020905b81548152906001019060200180831161168a57829003601f168201915b505050505081565b600260149054906101000a900460ff161515156116cb57600080fd5b3373ffffffffffffffffffffffffffffffffffffffff168273ffffffffffffffffffffffffffffffffffffffff161415151561170657600080fd5b80600860003373ffffffffffffffffffffffffffffffffffffffff1673ffffffffffffffffffffffffffffffffffffffff16815260200190815260200160002060008473ffffffffffffffffffffffffffffffffffffffff1673ffffffffffffffffffffffffffffffffffffffff16815260200190815260200160002060006101000a81548160ff0219169083151502179055508173ffffffffffffffffffffffffffffffffffffffff163373ffffffffffffffffffffffffffffffffffffffff167f17307eab39ab6107e8899845ad3d59bd9653f200f220920489ca2b5937696c3183604051808215151515815260200191505060405180910390a35050565b8161181233826119d1565b151561181d57600080fd5b600260149054906101000a900460ff1615151561183957600080fd5b611844858585610ed3565b61185085858585611e4e565b151561185b57600080fd5b5050505050565b6000600860008473ffffffffffffffffffffffffffffffffffffffff1673ffffffffffffffffffffffffffffffffffffffff16815260200190815260200160002060008373ffffffffffffffffffffffffffffffffffffffff1673ffffffffffffffffffffffffffffffffffffffff16815260200190815260200160002060009054906101000a900460ff16905092915050565b6000809054906101000a900473ffffffffffffffffffffffffffffffffffffffff1673ffffffffffffffffffffffffffffffffffffffff163373ffffffffffffffffffffffffffffffffffffffff1614151561195157600080fd5b600073ffffffffffffffffffffffffffffffffffffffff168173ffffffffffffffffffffffffffffffffffffffff161415151561198d57600080fd5b80600260006101000a81548173ffffffffffffffffffffffffffffffffffffffff021916908373ffffffffffffffffffffffffffffffffffffffff16021790555050565b6000806119dd83611480565b90508073ffffffffffffffffffffffffffffffffffffffff168473ffffffffffffffffffffffffffffffffffffffff161480611a4c57508373ffffffffffffffffffffffffffffffffffffffff16611a3484610c66565b73ffffffffffffffffffffffffffffffffffffffff16145b80611a5d5750611a5c8185611862565b5b91505092915050565b8173ffffffffffffffffffffffffffffffffffffffff16611a8682611480565b73ffffffffffffffffffffffffffffffffffffffff16141515611aa857600080fd5b600073ffffffffffffffffffffffffffffffffffffffff166005600083815260200190815260200160002060009054906101000a900473ffffffffffffffffffffffffffffffffffffffff1673ffffffffffffffffffffffffffffffffffffffff16141515611bc15760006005600083815260200190815260200160002060006101000a81548173ffffffffffffffffffffffffffffffffffffffff021916908373ffffffffffffffffffffffffffffffffffffffff16021790555080600073ffffffffffffffffffffffffffffffffffffffff168373ffffffffffffffffffffffffffffffffffffffff167f8c5be1e5ebec7d5bd14f71427d1e84f3dd0314c0f7b2291e5b200ac8c7c3b92560405160405180910390a45b5050565b8173ffffffffffffffffffffffffffffffffffffffff16611be582611480565b73ffffffffffffffffffffffffffffffffffffffff16141515611c0757600080fd5b611c5a6001600660008573ffffffffffffffffffffffffffffffffffffffff1673ffffffffffffffffffffffffffffffffffffffff1681526020019081526020016000205461203c90919063ffffffff16565b600660008473ffffffffffffffffffffffffffffffffffffffff1673ffffffffffffffffffffffffffffffffffffffff1681526020019081526020016000208190555060006004600083815260200190815260200160002060006101000a81548173ffffffffffffffffffffffffffffffffffffffff021916908373ffffffffffffffffffffffffffffffffffffffff1602179055505050565b600073ffffffffffffffffffffffffffffffffffffffff166004600083815260200190815260200160002060009054906101000a900473ffffffffffffffffffffffffffffffffffffffff1673ffffffffffffffffffffffffffffffffffffffff16141515611d6257600080fd5b816004600083815260200190815260200160002060006101000a81548173ffffffffffffffffffffffffffffffffffffffff021916908373ffffffffffffffffffffffffffffffffffffffff160217905550611e076001600660008573ffffffffffffffffffffffffffffffffffffffff1673ffffffffffffffffffffffffffffffffffffffff1681526020019081526020016000205461205590919063ffffffff16565b600660008473ffffffffffffffffffffffffffffffffffffffff1673ffffffffffffffffffffffffffffffffffffffff168152602001908152602001600020819055505050565b600080611e708573ffffffffffffffffffffffffffffffffffffffff16612073565b1515611e7f5760019150612033565b8473ffffffffffffffffffffffffffffffffffffffff1663f0b9e5ba8786866040518463ffffffff167c0100000000000000000000000000000000000000000000000000000000028152600401808473ffffffffffffffffffffffffffffffffffffffff1673ffffffffffffffffffffffffffffffffffffffff16815260200183815260200180602001828103825283818151815260200191508051906020019080838360005b83811015611f41578082015181840152602081019050611f26565b50505050905090810190601f168015611f6e5780820380516001836020036101000a031916815260200191505b50945050505050602060405180830381600087803b158015611f8f57600080fd5b505af1158015611fa3573d6000803e3d6000fd5b505050506040513d6020811015611fb957600080fd5b8101908080519060200190929190505050905063f0b9e5ba7c0100000000000000000000000000000000000000000000000000000000027bffffffffffffffffffffffffffffffffffffffffffffffffffffffff1916817bffffffffffffffffffffffffffffffffffffffffffffffffffffffff19161491505b50949350505050565b600082821115151561204a57fe5b818303905092915050565b600080828401905083811015151561206957fe5b8091505092915050565b600080823b9050600081119150509190505600a165627a7a723058200668d5c4526c702cb3ae533f357bef6ccb09d9e4deb893fafc58f8593568605e0029",
  "source": "pragma solidity ^0.4.23;\nimport \"./ERC721.sol\";\nimport \"./MineorityBase.sol\";\n\ncontract MineorityOwnership is MineorityBase,ERC721 {\n\n    string public name = \"Mineority\";\n    string public symbol = \"MINE\";\n\n\n    //---MODIFIERS---//\n    modifier canTransfer(uint256 _tokenId) {\n        require(isApprovedOrOwner(msg.sender, _tokenId));\n        _;\n    }\n\n    //---ERC721 IMPLEMENTATION---//\n    function supportsInterface(bytes4 _interfaceID) external pure returns (bool)\n    {\n        return ((_interfaceID == InterfaceSignature_ERC165)\n            || (_interfaceID == InterfaceSignature_ERC721)\n            || (_interfaceID == InterfaceSignature_ERC721Enumerable));\n    }\n\n    //* Returns total supply of all current minted tokens\n    function totalSupply() public view returns (uint256) {\n        return allTokens.length;\n    }\n\n    //* Returns current token balance of a given address\n    function balanceOf(address _owner) public view returns (uint256 count) {\n        require(_owner != address(0));\n        return ownedTokensCount[_owner];\n    }\n\n    //* Returns owner address of a given token\n    function ownerOf(uint256 _tokenId) public view returns (address owner) {\n        owner = tokenIndexToOwner[_tokenId];\n        require(owner != address(0));\n    }\n    //Consider it useless, test for necessarity\n    function exists(uint256 _tokenId) public view returns (bool) {\n        address owner = tokenIndexToOwner[_tokenId];\n        return owner != address(0);\n    }\n\n    //* Safe transfer tokens from address to address, includes check if\n    // receiving address is an applicable to recieve tokens contract or \n    // a regular address\n    function safeTransferFrom(address _from, address _to, uint256 _tokenId) public canTransfer(_tokenId) whenNotPaused {\n        safeTransferFrom(_from, _to, _tokenId, \"\");\n    }\n\n    //* Same as above, but can transfer some bytes of data with tokens\n    function safeTransferFrom(address _from, address _to, uint256 _tokenId, bytes _data) public canTransfer(_tokenId) whenNotPaused {\n        transferFrom(_from, _to, _tokenId);\n        require(checkAndCallSafeTransfer(_from, _to, _tokenId, _data));\n    }\n\n    //* Function to transfer token from address to address, with emiting Transfer event\n    // Requires the msg sender to be the owner, approved, or operator,\n    // and given token to be owned by given address \n    // Usage of this method is discouraged, use `safeTransferFrom` whenever possible\n    function transferFrom(address _from,address _to,uint256 _tokenId) public canTransfer(_tokenId) whenNotPaused {\n        require(_from != address(0));\n        require(_to != address(0));\n\n        clearApproval(_from, _tokenId);\n        removeTokenFrom(_from, _tokenId);\n        addTokenTo(_to, _tokenId);\n\n        emit Transfer(_from, _to, _tokenId);\n    }\n\n    //* Function to approve another address to transfer the given token ID \n    // The zero address indicates there is no approved address.\n    // There can only be one approved address per token at a given time.\n    // Requires the msg sender to be the owner or operator\n    function approve(address _to,uint256 _tokenId) public whenNotPaused {\n        address owner = ownerOf(_tokenId);\n        require(_to != owner);\n        require(msg.sender == owner || isApprovedForAll(owner, msg.sender));\n\n        if (getApproved(_tokenId) != address(0) || _to != address(0)) {\n            tokenIndexToApproved[_tokenId] = _to;\n            emit Approval(owner, _to, _tokenId);\n        }\n    }\n\n    //* Function to set or unset operator to a specific address for all\n    // its possessions\n    // An operator is allowed to transfer all tokens of the sender\n    function setApprovalForAll(address _to, bool _approved) public whenNotPaused {\n        require(_to != msg.sender);\n        operatorApprovals[msg.sender][_to] = _approved;\n        emit ApprovalForAll(msg.sender, _to, _approved);\n    }\n\n    //* Returns approved address of a given token, or zero\n    function getApproved(uint256 _tokenId) public view returns (address) {\n        return tokenIndexToApproved[_tokenId];\n    }\n\n    //* Returns a confirmation if a given address is an operator to owner\n    function isApprovedForAll(address _owner, address _operator) public view returns (bool) {\n        return operatorApprovals[_owner][_operator];\n    }\n    //---ERC721 ENUMERATION IMPLEMENTATION---//\n\n    //* Returns tokenID by index of the tokens list of the given owner\n    function tokenOfOwnerByIndex(address _owner, uint256 _index) public view returns (uint256) {\n        require(_index < balanceOf(_owner));\n        return ownedTokens[_owner][_index];\n    }\n\n    //* Return token index by token index\n    // Consider it deprecated and just for interface sake\n    function tokenByIndex(uint256 _index) public view returns (uint,uint) {\n        require(_index < totalSupply());\n        return (uint(allTokens[_index].asicID),uint(allTokens[_index].GPUType));\n    }\n\n    //------//\n    //* Internal function to add token to specific address possession\n    // Requires token to not be owned by any address \n    function addTokenTo(address _to, uint256 _tokenId) internal {\n        require(tokenIndexToOwner[_tokenId] == address(0));\n        tokenIndexToOwner[_tokenId] = _to;\n        ownedTokensCount[_to] = ownedTokensCount[_to].add(1);\n    }\n\n    //* Internal function to remove token from specific address possession\n    // Requires address to be token owner\n    function removeTokenFrom(address _from, uint256 _tokenId) internal {\n        require(ownerOf(_tokenId) == _from);\n        ownedTokensCount[_from] = ownedTokensCount[_from].sub(1);\n        tokenIndexToOwner[_tokenId] = address(0);\n    }\n\n    //* Internal function to clear current approval of a given token\n    // Requires address to be token owner\n    function clearApproval(address _owner, uint256 _tokenId) internal {\n        require(ownerOf(_tokenId) == _owner);\n        if (tokenIndexToApproved[_tokenId] != address(0)) {\n            tokenIndexToApproved[_tokenId] = address(0);\n            emit Approval(_owner, address(0), _tokenId);\n        }\n    }\n\n    //* Internal function to check if address is token owner, operator or approved\n    function isApprovedOrOwner(address _spender, uint256 _tokenId) internal view returns (bool) {\n        address owner = ownerOf(_tokenId);\n        return _spender == owner || getApproved(_tokenId) == _spender || isApprovedForAll(owner, _spender);\n    }\n}\n",
  "sourcePath": "/home/andrew/Projects/truffleTest/wemine/contracts/MineorityOwnership.sol",
  "compiler": {
    "name": "solc",
    "version": "0.4.23+commit.124ca40d.Emscripten.clang"
  },
  "schemaVersion": "1.0.1",
  "updatedAt": "2018-05-25T12:28:27.065Z"
}