{
  "contractName": "MineorityCore",
  "abi": [
    {
      "constant": true,
      "inputs": [
        {
          "name": "_interfaceID",
          "type": "bytes4"
        }
      ],
      "name": "supportsInterface",
      "outputs": [
        {
          "name": "",
          "type": "bool"
        }
      ],
      "payable": false,
      "stateMutability": "pure",
      "type": "function"
    },
    {
      "constant": true,
      "inputs": [],
      "name": "cfoAddress",
      "outputs": [
        {
          "name": "",
          "type": "address"
        }
      ],
      "payable": false,
      "stateMutability": "view",
      "type": "function"
    },
    {
      "constant": false,
      "inputs": [
        {
          "name": "_tokenId",
          "type": "uint256"
        },
        {
          "name": "_hostingPeriod",
          "type": "uint256"
        }
      ],
      "name": "buyToken",
      "outputs": [],
      "payable": true,
      "stateMutability": "payable",
      "type": "function"
    },
    {
      "constant": true,
      "inputs": [],
      "name": "name",
      "outputs": [
        {
          "name": "",
          "type": "string"
        }
      ],
      "payable": false,
      "stateMutability": "view",
      "type": "function"
    },
    {
      "constant": true,
      "inputs": [
        {
          "name": "_tokenId",
          "type": "uint256"
        }
      ],
      "name": "getApproved",
      "outputs": [
        {
          "name": "",
          "type": "address"
        }
      ],
      "payable": false,
      "stateMutability": "view",
      "type": "function"
    },
    {
      "constant": false,
      "inputs": [
        {
          "name": "_to",
          "type": "address"
        },
        {
          "name": "_tokenId",
          "type": "uint256"
        }
      ],
      "name": "approve",
      "outputs": [],
      "payable": false,
      "stateMutability": "nonpayable",
      "type": "function"
    },
    {
      "constant": true,
      "inputs": [],
      "name": "ceoAddress",
      "outputs": [
        {
          "name": "",
          "type": "address"
        }
      ],
      "payable": false,
      "stateMutability": "view",
      "type": "function"
    },
    {
      "constant": true,
      "inputs": [],
      "name": "totalSupply",
      "outputs": [
        {
          "name": "",
          "type": "uint256"
        }
      ],
      "payable": false,
      "stateMutability": "view",
      "type": "function"
    },
    {
      "constant": false,
      "inputs": [
        {
          "name": "_tokenId",
          "type": "uint256"
        },
        {
          "name": "_GPUClass",
          "type": "uint256"
        }
      ],
      "name": "sellToken",
      "outputs": [],
      "payable": false,
      "stateMutability": "nonpayable",
      "type": "function"
    },
    {
      "constant": true,
      "inputs": [],
      "name": "ctoAddress",
      "outputs": [
        {
          "name": "",
          "type": "address"
        }
      ],
      "payable": false,
      "stateMutability": "view",
      "type": "function"
    },
    {
      "constant": false,
      "inputs": [
        {
          "name": "_from",
          "type": "address"
        },
        {
          "name": "_to",
          "type": "address"
        },
        {
          "name": "_tokenId",
          "type": "uint256"
        }
      ],
      "name": "transferFrom",
      "outputs": [],
      "payable": false,
      "stateMutability": "nonpayable",
      "type": "function"
    },
    {
      "constant": false,
      "inputs": [],
      "name": "withdrawFunds",
      "outputs": [],
      "payable": false,
      "stateMutability": "nonpayable",
      "type": "function"
    },
    {
      "constant": false,
      "inputs": [
        {
          "name": "_newCEO",
          "type": "address"
        }
      ],
      "name": "setCEO",
      "outputs": [],
      "payable": false,
      "stateMutability": "nonpayable",
      "type": "function"
    },
    {
      "constant": true,
      "inputs": [
        {
          "name": "_owner",
          "type": "address"
        },
        {
          "name": "_index",
          "type": "uint256"
        }
      ],
      "name": "tokenOfOwnerByIndex",
      "outputs": [
        {
          "name": "",
          "type": "uint256"
        }
      ],
      "payable": false,
      "stateMutability": "view",
      "type": "function"
    },
    {
      "constant": false,
      "inputs": [],
      "name": "unpause",
      "outputs": [],
      "payable": false,
      "stateMutability": "nonpayable",
      "type": "function"
    },
    {
      "constant": false,
      "inputs": [
        {
          "name": "_from",
          "type": "address"
        },
        {
          "name": "_to",
          "type": "address"
        },
        {
          "name": "_tokenId",
          "type": "uint256"
        }
      ],
      "name": "safeTransferFrom",
      "outputs": [],
      "payable": false,
      "stateMutability": "nonpayable",
      "type": "function"
    },
    {
      "constant": false,
      "inputs": [
        {
          "name": "_newCFO",
          "type": "address"
        }
      ],
      "name": "setCFO",
      "outputs": [],
      "payable": false,
      "stateMutability": "nonpayable",
      "type": "function"
    },
    {
      "constant": true,
      "inputs": [
        {
          "name": "_tokenId",
          "type": "uint256"
        }
      ],
      "name": "exists",
      "outputs": [
        {
          "name": "",
          "type": "bool"
        }
      ],
      "payable": false,
      "stateMutability": "view",
      "type": "function"
    },
    {
      "constant": true,
      "inputs": [
        {
          "name": "_index",
          "type": "uint256"
        }
      ],
      "name": "tokenByIndex",
      "outputs": [
        {
          "name": "",
          "type": "uint256"
        },
        {
          "name": "",
          "type": "uint256"
        }
      ],
      "payable": false,
      "stateMutability": "view",
      "type": "function"
    },
    {
      "constant": true,
      "inputs": [],
      "name": "paused",
      "outputs": [
        {
          "name": "",
          "type": "bool"
        }
      ],
      "payable": false,
      "stateMutability": "view",
      "type": "function"
    },
    {
      "constant": true,
      "inputs": [
        {
          "name": "_hostingPeriod",
          "type": "uint256"
        },
        {
          "name": "_GPUClass",
          "type": "uint256"
        }
      ],
      "name": "getPrice",
      "outputs": [
        {
          "name": "price",
          "type": "uint256"
        }
      ],
      "payable": false,
      "stateMutability": "view",
      "type": "function"
    },
    {
      "constant": true,
      "inputs": [
        {
          "name": "",
          "type": "uint256"
        }
      ],
      "name": "tokenIndexToPurchaseDate",
      "outputs": [
        {
          "name": "",
          "type": "uint256"
        }
      ],
      "payable": false,
      "stateMutability": "view",
      "type": "function"
    },
    {
      "constant": false,
      "inputs": [],
      "name": "withdrawBalance",
      "outputs": [],
      "payable": false,
      "stateMutability": "nonpayable",
      "type": "function"
    },
    {
      "constant": false,
      "inputs": [
        {
          "name": "_owner",
          "type": "address"
        },
        {
          "name": "_tokenId",
          "type": "uint256"
        }
      ],
      "name": "_burn",
      "outputs": [],
      "payable": false,
      "stateMutability": "nonpayable",
      "type": "function"
    },
    {
      "constant": true,
      "inputs": [],
      "name": "InterfaceSignature_ERC721Optional",
      "outputs": [
        {
          "name": "",
          "type": "bytes4"
        }
      ],
      "payable": false,
      "stateMutability": "view",
      "type": "function"
    },
    {
      "constant": true,
      "inputs": [
        {
          "name": "_tokenId",
          "type": "uint256"
        }
      ],
      "name": "ownerOf",
      "outputs": [
        {
          "name": "owner",
          "type": "address"
        }
      ],
      "payable": false,
      "stateMutability": "view",
      "type": "function"
    },
    {
      "constant": true,
      "inputs": [
        {
          "name": "_owner",
          "type": "address"
        }
      ],
      "name": "balanceOf",
      "outputs": [
        {
          "name": "count",
          "type": "uint256"
        }
      ],
      "payable": false,
      "stateMutability": "view",
      "type": "function"
    },
    {
      "constant": false,
      "inputs": [],
      "name": "pause",
      "outputs": [],
      "payable": false,
      "stateMutability": "nonpayable",
      "type": "function"
    },
    {
      "constant": true,
      "inputs": [
        {
          "name": "_tokenId",
          "type": "uint256"
        }
      ],
      "name": "getSaleLot",
      "outputs": [
        {
          "name": "",
          "type": "address"
        },
        {
          "name": "",
          "type": "uint256"
        },
        {
          "name": "",
          "type": "uint256"
        }
      ],
      "payable": false,
      "stateMutability": "view",
      "type": "function"
    },
    {
      "constant": true,
      "inputs": [
        {
          "name": "",
          "type": "uint256"
        }
      ],
      "name": "tokenIndexToPurchasePrice",
      "outputs": [
        {
          "name": "",
          "type": "uint128"
        }
      ],
      "payable": false,
      "stateMutability": "view",
      "type": "function"
    },
    {
      "constant": false,
      "inputs": [
        {
          "name": "_checksum",
          "type": "uint256"
        }
      ],
      "name": "proveOwner",
      "outputs": [],
      "payable": false,
      "stateMutability": "nonpayable",
      "type": "function"
    },
    {
      "constant": false,
      "inputs": [
        {
          "name": "_tokenIds",
          "type": "uint256[]"
        },
        {
          "name": "_hostingPeriods",
          "type": "uint256[]"
        }
      ],
      "name": "buyTokens",
      "outputs": [],
      "payable": true,
      "stateMutability": "payable",
      "type": "function"
    },
    {
      "constant": false,
      "inputs": [
        {
          "name": "_tokenId",
          "type": "uint256"
        }
      ],
      "name": "removeSaleLot",
      "outputs": [],
      "payable": false,
      "stateMutability": "nonpayable",
      "type": "function"
    },
    {
      "constant": true,
      "inputs": [],
      "name": "symbol",
      "outputs": [
        {
          "name": "",
          "type": "string"
        }
      ],
      "payable": false,
      "stateMutability": "view",
      "type": "function"
    },
    {
      "constant": false,
      "inputs": [
        {
          "name": "_to",
          "type": "address"
        },
        {
          "name": "_approved",
          "type": "bool"
        }
      ],
      "name": "setApprovalForAll",
      "outputs": [],
      "payable": false,
      "stateMutability": "nonpayable",
      "type": "function"
    },
    {
      "constant": false,
      "inputs": [
        {
          "name": "_asicID",
          "type": "uint256"
        },
        {
          "name": "_pciVendorID",
          "type": "uint256"
        },
        {
          "name": "_pciDeviceID",
          "type": "uint256"
        },
        {
          "name": "_pciSubDeviceID",
          "type": "uint256"
        },
        {
          "name": "_pciSubVendorID",
          "type": "uint256"
        },
        {
          "name": "_memSizeMB",
          "type": "uint256"
        },
        {
          "name": "_memInfo",
          "type": "string"
        },
        {
          "name": "_GPUType",
          "type": "uint256"
        },
        {
          "name": "_GPUClass",
          "type": "uint256"
        }
      ],
      "name": "_mint",
      "outputs": [],
      "payable": false,
      "stateMutability": "nonpayable",
      "type": "function"
    },
    {
      "constant": false,
      "inputs": [
        {
          "name": "_from",
          "type": "address"
        },
        {
          "name": "_to",
          "type": "address"
        },
        {
          "name": "_tokenId",
          "type": "uint256"
        },
        {
          "name": "_data",
          "type": "bytes"
        }
      ],
      "name": "safeTransferFrom",
      "outputs": [],
      "payable": false,
      "stateMutability": "nonpayable",
      "type": "function"
    },
    {
      "constant": true,
      "inputs": [
        {
          "name": "",
          "type": "uint256"
        }
      ],
      "name": "tokenIndexToSaleLot",
      "outputs": [
        {
          "name": "seller",
          "type": "address"
        },
        {
          "name": "GPUClass",
          "type": "uint16"
        },
        {
          "name": "creationTime",
          "type": "uint256"
        }
      ],
      "payable": false,
      "stateMutability": "view",
      "type": "function"
    },
    {
      "constant": false,
      "inputs": [
        {
          "name": "_GPUClass",
          "type": "uint256"
        },
        {
          "name": "_hostingPeriod",
          "type": "uint256"
        },
        {
          "name": "_GPUPrice",
          "type": "uint256"
        },
        {
          "name": "_hostingPrice",
          "type": "uint256"
        }
      ],
      "name": "setPrice",
      "outputs": [],
      "payable": false,
      "stateMutability": "nonpayable",
      "type": "function"
    },
    {
      "constant": true,
      "inputs": [
        {
          "name": "",
          "type": "uint256"
        }
      ],
      "name": "tokenIndexToHostingPeriod",
      "outputs": [
        {
          "name": "",
          "type": "uint256"
        }
      ],
      "payable": false,
      "stateMutability": "view",
      "type": "function"
    },
    {
      "constant": true,
      "inputs": [
        {
          "name": "_tokenId",
          "type": "uint256"
        }
      ],
      "name": "getToken",
      "outputs": [
        {
          "name": "asicID",
          "type": "uint256"
        },
        {
          "name": "pciVendorID",
          "type": "uint256"
        },
        {
          "name": "pciDeviceID",
          "type": "uint256"
        },
        {
          "name": "pciSubDeviceID",
          "type": "uint256"
        },
        {
          "name": "pciSubVendorID",
          "type": "uint256"
        },
        {
          "name": "memSizeMB",
          "type": "uint256"
        },
        {
          "name": "memInfo",
          "type": "string"
        },
        {
          "name": "GPUType",
          "type": "uint256"
        }
      ],
      "payable": false,
      "stateMutability": "view",
      "type": "function"
    },
    {
      "constant": true,
      "inputs": [
        {
          "name": "_owner",
          "type": "address"
        },
        {
          "name": "_operator",
          "type": "address"
        }
      ],
      "name": "isApprovedForAll",
      "outputs": [
        {
          "name": "",
          "type": "bool"
        }
      ],
      "payable": false,
      "stateMutability": "view",
      "type": "function"
    },
    {
      "constant": false,
      "inputs": [
        {
          "name": "_newCTO",
          "type": "address"
        }
      ],
      "name": "setCTO",
      "outputs": [],
      "payable": false,
      "stateMutability": "nonpayable",
      "type": "function"
    },
    {
      "inputs": [],
      "payable": false,
      "stateMutability": "nonpayable",
      "type": "constructor"
    },
    {
      "payable": true,
      "stateMutability": "payable",
      "type": "fallback"
    },
    {
      "anonymous": false,
      "inputs": [
        {
          "indexed": false,
          "name": "checksum",
          "type": "uint256"
        }
      ],
      "name": "Check",
      "type": "event"
    },
    {
      "anonymous": false,
      "inputs": [
        {
          "indexed": false,
          "name": "tokenId",
          "type": "uint256"
        },
        {
          "indexed": false,
          "name": "seller",
          "type": "address"
        },
        {
          "indexed": false,
          "name": "GPUClass",
          "type": "uint256"
        }
      ],
      "name": "SaleCreated",
      "type": "event"
    },
    {
      "anonymous": false,
      "inputs": [
        {
          "indexed": false,
          "name": "tokenId",
          "type": "uint256"
        },
        {
          "indexed": false,
          "name": "seller",
          "type": "address"
        },
        {
          "indexed": false,
          "name": "GPUClass",
          "type": "uint256"
        }
      ],
      "name": "SaleClosed",
      "type": "event"
    },
    {
      "anonymous": false,
      "inputs": [
        {
          "indexed": false,
          "name": "tokenId",
          "type": "uint256"
        }
      ],
      "name": "SaleCancelled",
      "type": "event"
    },
    {
      "anonymous": false,
      "inputs": [
        {
          "indexed": true,
          "name": "from",
          "type": "address"
        },
        {
          "indexed": true,
          "name": "to",
          "type": "address"
        },
        {
          "indexed": true,
          "name": "tokenId",
          "type": "uint256"
        }
      ],
      "name": "Transfer",
      "type": "event"
    },
    {
      "anonymous": false,
      "inputs": [
        {
          "indexed": true,
          "name": "owner",
          "type": "address"
        },
        {
          "indexed": true,
          "name": "approved",
          "type": "address"
        },
        {
          "indexed": true,
          "name": "tokenId",
          "type": "uint256"
        }
      ],
      "name": "Approval",
      "type": "event"
    },
    {
      "anonymous": false,
      "inputs": [
        {
          "indexed": true,
          "name": "_owner",
          "type": "address"
        },
        {
          "indexed": true,
          "name": "_operator",
          "type": "address"
        },
        {
          "indexed": false,
          "name": "_approved",
          "type": "bool"
        }
      ],
      "name": "ApprovalForAll",
      "type": "event"
    }
  ],
  "bytecode": "0x60806040526000600260146101000a81548160ff0219169083151502179055506040805190810160405280600981526020017f4d696e656f726974790000000000000000000000000000000000000000000000815250600990805190602001906200006c9291906200010f565b506040805190810160405280600481526020017f4d494e4500000000000000000000000000000000000000000000000000000000815250600a9080519060200190620000ba9291906200010f565b50348015620000c857600080fd5b50336000806101000a81548173ffffffffffffffffffffffffffffffffffffffff021916908373ffffffffffffffffffffffffffffffffffffffff160217905550620001be565b828054600181600116156101000203166002900490600052602060002090601f016020900481019282601f106200015257805160ff191683800117855562000183565b8280016001018555821562000183579182015b828111156200018257825182559160200191906001019062000165565b5b50905062000192919062000196565b5090565b620001bb91905b80821115620001b75760008160009055506001016200019d565b5090565b90565b613a7d80620001ce6000396000f30060806040526004361061020f576000357c0100000000000000000000000000000000000000000000000000000000900463ffffffff16806301ffc9a7146102115780630519ce7914610275578063057466ea146102cc57806306fdde03146102f6578063081812fc14610386578063095ea7b3146103f35780630a0f81681461044057806318160ddd146104975780631897bcf3146104c25780631f513660146104f957806323b872dd1461055057806324600fc3146105bd57806327d7874c146105d45780632f745c59146106175780633f4ba83a1461067857806342842e0e1461068f5780634e0a3379146106fc5780634f558e791461073f5780634f6ccce7146107845780635c975abb146107cc5780635cf4ee91146107fb5780635f8a90f2146108465780635fd8c710146108875780636161eb181461089e578063624de3d9146108eb5780636352211e1461095457806370a08231146109c15780638456cb5914610a18578063857d45f814610a2f57806385d87b2b14610aaa5780638d56daeb14610b0f578063942a846714610b3c5780639575e96214610bd857806395d89b4114610c05578063a22cb46514610c95578063a32a64f514610ce4578063b88d4fde14610d9d578063c054ab7514610e50578063d176dd4514610ed3578063de2e4f8f14610f1e578063e4b50cb814610f5f578063e985e9c514611036578063fe1439b4146110b1575b005b34801561021d57600080fd5b5061025b60048036038101908080357bffffffffffffffffffffffffffffffffffffffffffffffffffffffff191690602001909291905050506110f4565b604051808215151515815260200191505060405180910390f35b34801561028157600080fd5b5061028a611237565b604051808273ffffffffffffffffffffffffffffffffffffffff1673ffffffffffffffffffffffffffffffffffffffff16815260200191505060405180910390f35b6102f4600480360381019080803590602001909291908035906020019092919050505061125d565b005b34801561030257600080fd5b5061030b6114df565b6040518080602001828103825283818151815260200191508051906020019080838360005b8381101561034b578082015181840152602081019050610330565b50505050905090810190601f1680156103785780820380516001836020036101000a031916815260200191505b509250505060405180910390f35b34801561039257600080fd5b506103b16004803603810190808035906020019092919050505061157d565b604051808273ffffffffffffffffffffffffffffffffffffffff1673ffffffffffffffffffffffffffffffffffffffff16815260200191505060405180910390f35b3480156103ff57600080fd5b5061043e600480360381019080803573ffffffffffffffffffffffffffffffffffffffff169060200190929190803590602001909291905050506115ba565b005b34801561044c57600080fd5b50610455611792565b604051808273ffffffffffffffffffffffffffffffffffffffff1673ffffffffffffffffffffffffffffffffffffffff16815260200191505060405180910390f35b3480156104a357600080fd5b506104ac6117b7565b6040518082815260200191505060405180910390f35b3480156104ce57600080fd5b506104f760048036038101908080359060200190929190803590602001909291905050506117c4565b005b34801561050557600080fd5b5061050e611937565b604051808273ffffffffffffffffffffffffffffffffffffffff1673ffffffffffffffffffffffffffffffffffffffff16815260200191505060405180910390f35b34801561055c57600080fd5b506105bb600480360381019080803573ffffffffffffffffffffffffffffffffffffffff169060200190929190803573ffffffffffffffffffffffffffffffffffffffff1690602001909291908035906020019092919050505061195d565b005b3480156105c957600080fd5b506105d2611a86565b005b3480156105e057600080fd5b50610615600480360381019080803573ffffffffffffffffffffffffffffffffffffffff169060200190929190505050611b64565b005b34801561062357600080fd5b50610662600480360381019080803573ffffffffffffffffffffffffffffffffffffffff16906020019092919080359060200190929190505050611c3e565b6040518082815260200191505060405180910390f35b34801561068457600080fd5b5061068d611cb5565b005b34801561069b57600080fd5b506106fa600480360381019080803573ffffffffffffffffffffffffffffffffffffffff169060200190929190803573ffffffffffffffffffffffffffffffffffffffff16906020019092919080359060200190929190505050611d48565b005b34801561070857600080fd5b5061073d600480360381019080803573ffffffffffffffffffffffffffffffffffffffff169060200190929190505050611d9c565b005b34801561074b57600080fd5b5061076a60048036038101908080359060200190929190505050611e77565b604051808215151515815260200191505060405180910390f35b34801561079057600080fd5b506107af60048036038101908080359060200190929190505050611ee9565b604051808381526020018281526020019250505060405180910390f35b3480156107d857600080fd5b506107e1611f92565b604051808215151515815260200191505060405180910390f35b34801561080757600080fd5b506108306004803603810190808035906020019092919080359060200190929190505050611fa5565b6040518082815260200191505060405180910390f35b34801561085257600080fd5b506108716004803603810190808035906020019092919050505061204e565b6040518082815260200191505060405180910390f35b34801561089357600080fd5b5061089c612066565b005b3480156108aa57600080fd5b506108e9600480360381019080803573ffffffffffffffffffffffffffffffffffffffff16906020019092919080359060200190929190505050612144565b005b3480156108f757600080fd5b506109006121f2565b60405180827bffffffffffffffffffffffffffffffffffffffffffffffffffffffff19167bffffffffffffffffffffffffffffffffffffffffffffffffffffffff1916815260200191505060405180910390f35b34801561096057600080fd5b5061097f60048036038101908080359060200190929190505050612235565b604051808273ffffffffffffffffffffffffffffffffffffffff1673ffffffffffffffffffffffffffffffffffffffff16815260200191505060405180910390f35b3480156109cd57600080fd5b50610a02600480360381019080803573ffffffffffffffffffffffffffffffffffffffff1690602001909291905050506122ae565b6040518082815260200191505060405180910390f35b348015610a2457600080fd5b50610a2d612332565b005b348015610a3b57600080fd5b50610a5a600480360381019080803590602001909291905050506123c6565b604051808473ffffffffffffffffffffffffffffffffffffffff1673ffffffffffffffffffffffffffffffffffffffff168152602001838152602001828152602001935050505060405180910390f35b348015610ab657600080fd5b50610ad560048036038101908080359060200190929190505050612433565b60405180826fffffffffffffffffffffffffffffffff166fffffffffffffffffffffffffffffffff16815260200191505060405180910390f35b348015610b1b57600080fd5b50610b3a60048036038101908080359060200190929190505050612462565b005b610bd6600480360381019080803590602001908201803590602001908080602002602001604051908101604052809392919081815260200183836020028082843782019150505050505091929192908035906020019082018035906020019080806020026020016040519081016040528093929190818152602001838360200280828437820191505050505050919291929050505061249c565b005b348015610be457600080fd5b50610c0360048036038101908080359060200190929190505050612833565b005b348015610c1157600080fd5b50610c1a612963565b6040518080602001828103825283818151815260200191508051906020019080838360005b83811015610c5a578082015181840152602081019050610c3f565b50505050905090810190601f168015610c875780820380516001836020036101000a031916815260200191505b509250505060405180910390f35b348015610ca157600080fd5b50610ce2600480360381019080803573ffffffffffffffffffffffffffffffffffffffff169060200190929190803515159060200190929190505050612a01565b005b348015610cf057600080fd5b50610d9b600480360381019080803590602001909291908035906020019092919080359060200190929190803590602001909291908035906020019092919080359060200190929190803590602001908201803590602001908080601f01602080910402602001604051908101604052809392919081815260200183838082843782019150505050505091929192908035906020019092919080359060200190929190505050612b59565b005b348015610da957600080fd5b50610e4e600480360381019080803573ffffffffffffffffffffffffffffffffffffffff169060200190929190803573ffffffffffffffffffffffffffffffffffffffff16906020019092919080359060200190929190803590602001908201803590602001908080601f0160208091040260200160405190810160405280939291908181526020018383808284378201915050505050509192919290505050612d7d565b005b348015610e5c57600080fd5b50610e7b60048036038101908080359060200190929190505050612dd8565b604051808473ffffffffffffffffffffffffffffffffffffffff1673ffffffffffffffffffffffffffffffffffffffff1681526020018361ffff1661ffff168152602001828152602001935050505060405180910390f35b348015610edf57600080fd5b50610f1c60048036038101908080359060200190929190803590602001909291908035906020019092919080359060200190929190505050612e30565b005b348015610f2a57600080fd5b50610f4960048036038101908080359060200190929190505050612f14565b6040518082815260200191505060405180910390f35b348015610f6b57600080fd5b50610f8a60048036038101908080359060200190929190505050612f2c565b6040518089815260200188815260200187815260200186815260200185815260200184815260200180602001838152602001828103825284818151815260200191508051906020019080838360005b83811015610ff4578082015181840152602081019050610fd9565b50505050905090810190601f1680156110215780820380516001836020036101000a031916815260200191505b50995050505050505050505060405180910390f35b34801561104257600080fd5b50611097600480360381019080803573ffffffffffffffffffffffffffffffffffffffff169060200190929190803573ffffffffffffffffffffffffffffffffffffffff1690602001909291905050506130d5565b604051808215151515815260200191505060405180910390f35b3480156110bd57600080fd5b506110f2600480360381019080803573ffffffffffffffffffffffffffffffffffffffff169060200190929190505050613169565b005b60006301ffc9a77c0100000000000000000000000000000000000000000000000000000000027bffffffffffffffffffffffffffffffffffffffffffffffffffffffff1916827bffffffffffffffffffffffffffffffffffffffffffffffffffffffff191614806111c557506380ac58cd7c0100000000000000000000000000000000000000000000000000000000027bffffffffffffffffffffffffffffffffffffffffffffffffffffffff1916827bffffffffffffffffffffffffffffffffffffffffffffffffffffffff1916145b80611230575063780e9d637c0100000000000000000000000000000000000000000000000000000000027bffffffffffffffffffffffffffffffffffffffffffffffffffffffff1916827bffffffffffffffffffffffffffffffffffffffffffffffffffffffff1916145b9050919050565b600160009054906101000a900473ffffffffffffffffffffffffffffffffffffffff1681565b600080600260149054906101000a900460ff1615151561127c57600080fd5b600d600085815260200190815260200160002091506112b1838360000160149054906101000a900461ffff1661ffff16611fa5565b90508034101515156112c257600080fd5b6112cc3385613244565b8160000160009054906101000a900473ffffffffffffffffffffffffffffffffffffffff1673ffffffffffffffffffffffffffffffffffffffff166108fc60646062840281151561131957fe5b049081150290604051600060405180830381858888f19350505050158015611345573d6000803e3d6000fd5b50600d6000858152602001908152602001600020600080820160006101000a81549073ffffffffffffffffffffffffffffffffffffffff02191690556000820160146101000a81549061ffff0219169055600182016000905550506113b3834261339e90919063ffffffff16565b600e60008681526020019081526020016000208190555042600f600086815260200190815260200160002081905550806010600086815260200190815260200160002060006101000a8154816fffffffffffffffffffffffffffffffff02191690836fffffffffffffffffffffffffffffffff1602179055507fbaff7966f0758b1794fcea83b6d60c741b6fe4ab1b2431d4353784f68551d156848360000160009054906101000a900473ffffffffffffffffffffffffffffffffffffffff168460000160149054906101000a900461ffff16604051808481526020018373ffffffffffffffffffffffffffffffffffffffff1673ffffffffffffffffffffffffffffffffffffffff1681526020018261ffff168152602001935050505060405180910390a150505050565b60098054600181600116156101000203166002900480601f0160208091040260200160405190810160405280929190818152602001828054600181600116156101000203166002900480156115755780601f1061154a57610100808354040283529160200191611575565b820191906000526020600020905b81548152906001019060200180831161155857829003601f168201915b505050505081565b60006005600083815260200190815260200160002060009054906101000a900473ffffffffffffffffffffffffffffffffffffffff169050919050565b6000600260149054906101000a900460ff161515156115d857600080fd5b6115e182612235565b90508073ffffffffffffffffffffffffffffffffffffffff168373ffffffffffffffffffffffffffffffffffffffff161415151561161e57600080fd5b8073ffffffffffffffffffffffffffffffffffffffff163373ffffffffffffffffffffffffffffffffffffffff16148061165e575061165d81336130d5565b5b151561166957600080fd5b600073ffffffffffffffffffffffffffffffffffffffff1661168a8361157d565b73ffffffffffffffffffffffffffffffffffffffff161415806116da5750600073ffffffffffffffffffffffffffffffffffffffff168373ffffffffffffffffffffffffffffffffffffffff1614155b1561178d57826005600084815260200190815260200160002060006101000a81548173ffffffffffffffffffffffffffffffffffffffff021916908373ffffffffffffffffffffffffffffffffffffffff160217905550818373ffffffffffffffffffffffffffffffffffffffff168273ffffffffffffffffffffffffffffffffffffffff167f8c5be1e5ebec7d5bd14f71427d1e84f3dd0314c0f7b2291e5b200ac8c7c3b92560405160405180910390a45b505050565b6000809054906101000a900473ffffffffffffffffffffffffffffffffffffffff1681565b6000600380549050905090565b6117cc6138f9565b600260149054906101000a900460ff161515156117e857600080fd5b6117f233846133bc565b6117fc338461351b565b6060604051908101604052803373ffffffffffffffffffffffffffffffffffffffff1681526020018361ffff16815260200142815250905080600d600085815260200190815260200160002060008201518160000160006101000a81548173ffffffffffffffffffffffffffffffffffffffff021916908373ffffffffffffffffffffffffffffffffffffffff16021790555060208201518160000160146101000a81548161ffff021916908361ffff160217905550604082015181600101559050507fa29262303591d48ce94646a46b652916ce782073349bb5dc261ac4c5237d9397833384604051808481526020018373ffffffffffffffffffffffffffffffffffffffff1673ffffffffffffffffffffffffffffffffffffffff168152602001828152602001935050505060405180910390a1505050565b600260009054906101000a900473ffffffffffffffffffffffffffffffffffffffff1681565b80611968338261364a565b151561197357600080fd5b600260149054906101000a900460ff1615151561198f57600080fd5b600073ffffffffffffffffffffffffffffffffffffffff168473ffffffffffffffffffffffffffffffffffffffff16141515156119cb57600080fd5b600073ffffffffffffffffffffffffffffffffffffffff168373ffffffffffffffffffffffffffffffffffffffff1614151515611a0757600080fd5b611a1184836133bc565b611a1b848361351b565b611a258383613244565b818373ffffffffffffffffffffffffffffffffffffffff168573ffffffffffffffffffffffffffffffffffffffff167fddf252ad1be2c89b69c2b068fc378daa952ba7f163c4a11628f55a4df523b3ef60405160405180910390a450505050565b600160009054906101000a900473ffffffffffffffffffffffffffffffffffffffff1673ffffffffffffffffffffffffffffffffffffffff163373ffffffffffffffffffffffffffffffffffffffff16141515611ae257600080fd5b600160009054906101000a900473ffffffffffffffffffffffffffffffffffffffff1673ffffffffffffffffffffffffffffffffffffffff166108fc3073ffffffffffffffffffffffffffffffffffffffff16319081150290604051600060405180830381858888f19350505050158015611b61573d6000803e3d6000fd5b50565b6000809054906101000a900473ffffffffffffffffffffffffffffffffffffffff1673ffffffffffffffffffffffffffffffffffffffff163373ffffffffffffffffffffffffffffffffffffffff16141515611bbf57600080fd5b600073ffffffffffffffffffffffffffffffffffffffff168173ffffffffffffffffffffffffffffffffffffffff1614151515611bfb57600080fd5b806000806101000a81548173ffffffffffffffffffffffffffffffffffffffff021916908373ffffffffffffffffffffffffffffffffffffffff16021790555050565b6000611c49836122ae565b82101515611c5657600080fd5b600760008473ffffffffffffffffffffffffffffffffffffffff1673ffffffffffffffffffffffffffffffffffffffff16815260200190815260200160002082815481101515611ca257fe5b9060005260206000200154905092915050565b6000809054906101000a900473ffffffffffffffffffffffffffffffffffffffff1673ffffffffffffffffffffffffffffffffffffffff163373ffffffffffffffffffffffffffffffffffffffff16141515611d1057600080fd5b600260149054906101000a900460ff161515611d2b57600080fd5b6000600260146101000a81548160ff021916908315150217905550565b80611d53338261364a565b1515611d5e57600080fd5b600260149054906101000a900460ff16151515611d7a57600080fd5b611d968484846020604051908101604052806000815250612d7d565b50505050565b6000809054906101000a900473ffffffffffffffffffffffffffffffffffffffff1673ffffffffffffffffffffffffffffffffffffffff163373ffffffffffffffffffffffffffffffffffffffff16141515611df757600080fd5b600073ffffffffffffffffffffffffffffffffffffffff168173ffffffffffffffffffffffffffffffffffffffff1614151515611e3357600080fd5b80600160006101000a81548173ffffffffffffffffffffffffffffffffffffffff021916908373ffffffffffffffffffffffffffffffffffffffff16021790555050565b6000806004600084815260200190815260200160002060009054906101000a900473ffffffffffffffffffffffffffffffffffffffff169050600073ffffffffffffffffffffffffffffffffffffffff168173ffffffffffffffffffffffffffffffffffffffff161415915050919050565b600080611ef46117b7565b83101515611f0157600080fd5b600383815481101515611f1057fe5b906000526020600020906002020160010160009054906101000a90046fffffffffffffffffffffffffffffffff166fffffffffffffffffffffffffffffffff16600384815481101515611f5f57fe5b9060005260206000209060020201600101601a9054906101000a900460ff166002811115611f8957fe5b91509150915091565b600260149054906101000a900460ff1681565b600080600c6000848152602001908152602001600020600085815260200190815260200160002090506120458160000160109054906101000a90046fffffffffffffffffffffffffffffffff166fffffffffffffffffffffffffffffffff168260000160009054906101000a90046fffffffffffffffffffffffffffffffff166fffffffffffffffffffffffffffffffff1661339e90919063ffffffff16565b91505092915050565b600f6020528060005260406000206000915090505481565b600160009054906101000a900473ffffffffffffffffffffffffffffffffffffffff1673ffffffffffffffffffffffffffffffffffffffff163373ffffffffffffffffffffffffffffffffffffffff161415156120c257600080fd5b600160009054906101000a900473ffffffffffffffffffffffffffffffffffffffff1673ffffffffffffffffffffffffffffffffffffffff166108fc3073ffffffffffffffffffffffffffffffffffffffff16319081150290604051600060405180830381858888f19350505050158015612141573d6000803e3d6000fd5b50565b8173ffffffffffffffffffffffffffffffffffffffff163373ffffffffffffffffffffffffffffffffffffffff1614151561217e57600080fd5b61218882826133bc565b612192828261351b565b80600073ffffffffffffffffffffffffffffffffffffffff168373ffffffffffffffffffffffffffffffffffffffff167fddf252ad1be2c89b69c2b068fc378daa952ba7f163c4a11628f55a4df523b3ef60405160405180910390a45050565b7fffffffffffffffffffffffffffffffffffffffffffffffffffffffffb0aa71877c01000000000000000000000000000000000000000000000000000000000281565b60006004600083815260200190815260200160002060009054906101000a900473ffffffffffffffffffffffffffffffffffffffff169050600073ffffffffffffffffffffffffffffffffffffffff168173ffffffffffffffffffffffffffffffffffffffff16141515156122a957600080fd5b919050565b60008073ffffffffffffffffffffffffffffffffffffffff168273ffffffffffffffffffffffffffffffffffffffff16141515156122eb57600080fd5b600660008373ffffffffffffffffffffffffffffffffffffffff1673ffffffffffffffffffffffffffffffffffffffff168152602001908152602001600020549050919050565b6000809054906101000a900473ffffffffffffffffffffffffffffffffffffffff1673ffffffffffffffffffffffffffffffffffffffff163373ffffffffffffffffffffffffffffffffffffffff1614151561238d57600080fd5b600260149054906101000a900460ff161515156123a957600080fd5b6001600260146101000a81548160ff021916908315150217905550565b600080600080600d600086815260200190815260200160002090508060000160009054906101000a900473ffffffffffffffffffffffffffffffffffffffff168160000160149054906101000a900461ffff1682600101548161ffff169150935093509350509193909250565b60106020528060005260406000206000915054906101000a90046fffffffffffffffffffffffffffffffff1681565b7fcce3a419c92a3c178219325ad1f4d004e5b6721f715b19111c7000b3d8a49fcb816040518082815260200191505060405180910390a150565b6000806000600260149054906101000a900460ff161515156124bd57600080fd5b600092505b84518361ffff16101561282c57600d6000868561ffff168151811015156124e557fe5b906020019060200201518152602001908152602001600020915061253a848461ffff1681518110151561251457fe5b906020019060200201518360000160149054906101000a900461ffff1661ffff16611fa5565b905080341015151561254b57600080fd5b61257033868561ffff1681518110151561256157fe5b90602001906020020151613244565b8160000160009054906101000a900473ffffffffffffffffffffffffffffffffffffffff1673ffffffffffffffffffffffffffffffffffffffff166108fc6064606284028115156125bd57fe5b049081150290604051600060405180830381858888f193505050501580156125e9573d6000803e3d6000fd5b50600d6000868561ffff1681518110151561260057fe5b906020019060200201518152602001908152602001600020600080820160006101000a81549073ffffffffffffffffffffffffffffffffffffffff02191690556000820160146101000a81549061ffff02191690556001820160009055505061268d848461ffff1681518110151561267457fe5b906020019060200201514261339e90919063ffffffff16565b600e6000878661ffff168151811015156126a357fe5b9060200190602002015181526020019081526020016000208190555042600f6000878661ffff168151811015156126d657fe5b906020019060200201518152602001908152602001600020819055508060106000878661ffff1681518110151561270957fe5b90602001906020020151815260200190815260200160002060006101000a8154816fffffffffffffffffffffffffffffffff02191690836fffffffffffffffffffffffffffffffff1602179055507fbaff7966f0758b1794fcea83b6d60c741b6fe4ab1b2431d4353784f68551d156858461ffff1681518110151561278a57fe5b906020019060200201518360000160009054906101000a900473ffffffffffffffffffffffffffffffffffffffff168460000160149054906101000a900461ffff16604051808481526020018373ffffffffffffffffffffffffffffffffffffffff1673ffffffffffffffffffffffffffffffffffffffff1681526020018261ffff168152602001935050505060405180910390a182806001019350506124c2565b5050505050565b6000600260149054906101000a900460ff1615151561285157600080fd5b600d600083815260200190815260200160002090508060000160009054906101000a900473ffffffffffffffffffffffffffffffffffffffff1673ffffffffffffffffffffffffffffffffffffffff163373ffffffffffffffffffffffffffffffffffffffff161415156128c457600080fd5b600d6000838152602001908152602001600020600080820160006101000a81549073ffffffffffffffffffffffffffffffffffffffff02191690556000820160146101000a81549061ffff0219169055600182016000905550506129283383613244565b7f2c56893f6f6026d19bd17b7d05c9f15c522de1ae2b1c3a825f91a73c799321f2826040518082815260200191505060405180910390a15050565b600a8054600181600116156101000203166002900480601f0160208091040260200160405190810160405280929190818152602001828054600181600116156101000203166002900480156129f95780601f106129ce576101008083540402835291602001916129f9565b820191906000526020600020905b8154815290600101906020018083116129dc57829003601f168201915b505050505081565b600260149054906101000a900460ff16151515612a1d57600080fd5b3373ffffffffffffffffffffffffffffffffffffffff168273ffffffffffffffffffffffffffffffffffffffff1614151515612a5857600080fd5b80600860003373ffffffffffffffffffffffffffffffffffffffff1673ffffffffffffffffffffffffffffffffffffffff16815260200190815260200160002060008473ffffffffffffffffffffffffffffffffffffffff1673ffffffffffffffffffffffffffffffffffffffff16815260200190815260200160002060006101000a81548160ff0219169083151502179055508173ffffffffffffffffffffffffffffffffffffffff163373ffffffffffffffffffffffffffffffffffffffff167f17307eab39ab6107e8899845ad3d59bd9653f200f220920489ca2b5937696c3183604051808215151515815260200191505060405180910390a35050565b612b61613935565b6000610100604051908101604052808681526020018c6fffffffffffffffffffffffffffffffff1681526020018b61ffff1681526020018a61ffff1681526020018961ffff1681526020018861ffff1681526020018761ffff168152602001856002811115612bcc57fe5b6002811115612bd757fe5b81525091506003805490509050600382908060018154018082558091505090600182039060005260206000209060020201600090919290919091506000820151816000019080519060200190612c2e9291906139ac565b5060208201518160010160006101000a8154816fffffffffffffffffffffffffffffffff02191690836fffffffffffffffffffffffffffffffff16021790555060408201518160010160106101000a81548161ffff021916908361ffff16021790555060608201518160010160126101000a81548161ffff021916908361ffff16021790555060808201518160010160146101000a81548161ffff021916908361ffff16021790555060a08201518160010160166101000a81548161ffff021916908361ffff16021790555060c08201518160010160186101000a81548161ffff021916908361ffff16021790555060e082015181600101601a6101000a81548160ff02191690836002811115612d4157fe5b0217905550505050612d533382613244565b63ffffffff8111151515612d6657600080fd5b612d7081846117c4565b5050505050505050505050565b81612d88338261364a565b1515612d9357600080fd5b600260149054906101000a900460ff16151515612daf57600080fd5b612dba85858561195d565b612dc6858585856136df565b1515612dd157600080fd5b5050505050565b600d6020528060005260406000206000915090508060000160009054906101000a900473ffffffffffffffffffffffffffffffffffffffff16908060000160149054906101000a900461ffff16908060010154905083565b6040805190810160405280836fffffffffffffffffffffffffffffffff168152602001826fffffffffffffffffffffffffffffffff16815250600c6000868152602001908152602001600020600085815260200190815260200160002060008201518160000160006101000a8154816fffffffffffffffffffffffffffffffff02191690836fffffffffffffffffffffffffffffffff16021790555060208201518160000160106101000a8154816fffffffffffffffffffffffffffffffff02191690836fffffffffffffffffffffffffffffffff16021790555090505050505050565b600e6020528060005260406000206000915090505481565b600080600080600080606060008060038a815481101515612f4957fe5b906000526020600020906002020190508060010160009054906101000a90046fffffffffffffffffffffffffffffffff166fffffffffffffffffffffffffffffffff1698508060010160109054906101000a900461ffff1661ffff1697508060010160129054906101000a900461ffff1661ffff1696508060010160149054906101000a900461ffff1661ffff1695508060010160169054906101000a900461ffff1661ffff1694508060010160189054906101000a900461ffff1661ffff169350806000018054600181600116156101000203166002900480601f0160208091040260200160405190810160405280929190818152602001828054600181600116156101000203166002900480156130a35780601f10613078576101008083540402835291602001916130a3565b820191906000526020600020905b81548152906001019060200180831161308657829003601f168201915b5050505050925080600101601a9054906101000a900460ff1660028111156130c757fe5b915050919395975091939597565b6000600860008473ffffffffffffffffffffffffffffffffffffffff1673ffffffffffffffffffffffffffffffffffffffff16815260200190815260200160002060008373ffffffffffffffffffffffffffffffffffffffff1673ffffffffffffffffffffffffffffffffffffffff16815260200190815260200160002060009054906101000a900460ff16905092915050565b6000809054906101000a900473ffffffffffffffffffffffffffffffffffffffff1673ffffffffffffffffffffffffffffffffffffffff163373ffffffffffffffffffffffffffffffffffffffff161415156131c457600080fd5b600073ffffffffffffffffffffffffffffffffffffffff168173ffffffffffffffffffffffffffffffffffffffff161415151561320057600080fd5b80600260006101000a81548173ffffffffffffffffffffffffffffffffffffffff021916908373ffffffffffffffffffffffffffffffffffffffff16021790555050565b600073ffffffffffffffffffffffffffffffffffffffff166004600083815260200190815260200160002060009054906101000a900473ffffffffffffffffffffffffffffffffffffffff1673ffffffffffffffffffffffffffffffffffffffff161415156132b257600080fd5b816004600083815260200190815260200160002060006101000a81548173ffffffffffffffffffffffffffffffffffffffff021916908373ffffffffffffffffffffffffffffffffffffffff1602179055506133576001600660008573ffffffffffffffffffffffffffffffffffffffff1673ffffffffffffffffffffffffffffffffffffffff1681526020019081526020016000205461339e90919063ffffffff16565b600660008473ffffffffffffffffffffffffffffffffffffffff1673ffffffffffffffffffffffffffffffffffffffff168152602001908152602001600020819055505050565b60008082840190508381101515156133b257fe5b8091505092915050565b8173ffffffffffffffffffffffffffffffffffffffff166133dc82612235565b73ffffffffffffffffffffffffffffffffffffffff161415156133fe57600080fd5b600073ffffffffffffffffffffffffffffffffffffffff166005600083815260200190815260200160002060009054906101000a900473ffffffffffffffffffffffffffffffffffffffff1673ffffffffffffffffffffffffffffffffffffffff161415156135175760006005600083815260200190815260200160002060006101000a81548173ffffffffffffffffffffffffffffffffffffffff021916908373ffffffffffffffffffffffffffffffffffffffff16021790555080600073ffffffffffffffffffffffffffffffffffffffff168373ffffffffffffffffffffffffffffffffffffffff167f8c5be1e5ebec7d5bd14f71427d1e84f3dd0314c0f7b2291e5b200ac8c7c3b92560405160405180910390a45b5050565b8173ffffffffffffffffffffffffffffffffffffffff1661353b82612235565b73ffffffffffffffffffffffffffffffffffffffff1614151561355d57600080fd5b6135b06001600660008573ffffffffffffffffffffffffffffffffffffffff1673ffffffffffffffffffffffffffffffffffffffff168152602001908152602001600020546138cd90919063ffffffff16565b600660008473ffffffffffffffffffffffffffffffffffffffff1673ffffffffffffffffffffffffffffffffffffffff1681526020019081526020016000208190555060006004600083815260200190815260200160002060006101000a81548173ffffffffffffffffffffffffffffffffffffffff021916908373ffffffffffffffffffffffffffffffffffffffff1602179055505050565b60008061365683612235565b90508073ffffffffffffffffffffffffffffffffffffffff168473ffffffffffffffffffffffffffffffffffffffff1614806136c557508373ffffffffffffffffffffffffffffffffffffffff166136ad8461157d565b73ffffffffffffffffffffffffffffffffffffffff16145b806136d657506136d581856130d5565b5b91505092915050565b6000806137018573ffffffffffffffffffffffffffffffffffffffff166138e6565b151561371057600191506138c4565b8473ffffffffffffffffffffffffffffffffffffffff1663f0b9e5ba8786866040518463ffffffff167c0100000000000000000000000000000000000000000000000000000000028152600401808473ffffffffffffffffffffffffffffffffffffffff1673ffffffffffffffffffffffffffffffffffffffff16815260200183815260200180602001828103825283818151815260200191508051906020019080838360005b838110156137d25780820151818401526020810190506137b7565b50505050905090810190601f1680156137ff5780820380516001836020036101000a031916815260200191505b50945050505050602060405180830381600087803b15801561382057600080fd5b505af1158015613834573d6000803e3d6000fd5b505050506040513d602081101561384a57600080fd5b8101908080519060200190929190505050905063f0b9e5ba7c0100000000000000000000000000000000000000000000000000000000027bffffffffffffffffffffffffffffffffffffffffffffffffffffffff1916817bffffffffffffffffffffffffffffffffffffffffffffffffffffffff19161491505b50949350505050565b60008282111515156138db57fe5b818303905092915050565b600080823b905060008111915050919050565b606060405190810160405280600073ffffffffffffffffffffffffffffffffffffffff168152602001600061ffff168152602001600081525090565b610100604051908101604052806060815260200160006fffffffffffffffffffffffffffffffff168152602001600061ffff168152602001600061ffff168152602001600061ffff168152602001600061ffff168152602001600061ffff168152602001600060028111156139a657fe5b81525090565b828054600181600116156101000203166002900490600052602060002090601f016020900481019282601f106139ed57805160ff1916838001178555613a1b565b82800160010185558215613a1b579182015b82811115613a1a5782518255916020019190600101906139ff565b5b509050613a289190613a2c565b5090565b613a4e91905b80821115613a4a576000816000905550600101613a32565b5090565b905600a165627a7a72305820f2ced8d7045df188cddce5ea4c1ca8c1c98bcc673290dfb481c18067653978880029",
  "source": "pragma solidity ^0.4.23;\nimport \"./MineorityMint.sol\";\n\ncontract MineorityCore is MineorityMint {\n\n    //**Main contract with all admin stuff**//\n  \n    constructor() public {\n        // the creator of the contract is the initial CEO\n        ceoAddress = msg.sender;\n    }\n\n    function() external payable {\n        \n    }\n\n    //* Returns all information of a given token\n    // check return datatypes to be all 256 or what\n    // same with minting\n    function getToken(uint256 _tokenId) public view\n        returns (\n          uint256 asicID,\n          uint256 pciVendorID,\n          uint256 pciDeviceID,\n          uint256 pciSubDeviceID,\n          uint256 pciSubVendorID,\n          uint256 memSizeMB,\n          string memInfo,\n          uint256 GPUType\n    ) {\n        Token storage tok = allTokens[_tokenId];\n\n        asicID = uint256(tok.asicID);\n        pciVendorID = uint256(tok.pciVendorID);\n        pciDeviceID = uint256(tok.pciDeviceID);\n        pciSubDeviceID = uint256(tok.pciSubDeviceID);\n        pciSubVendorID = uint256(tok.pciSubVendorID);\n        memSizeMB = uint256(tok.memSizeMB);\n        memInfo = tok.memInfo;\n        GPUType = uint256(tok.GPUType);\n    }\n\n    //* Withdraw all contract balance to CFO address\n    // Requires sender to be CFO address\n    function withdrawFunds() external onlyCFO {\n        cfoAddress.transfer(this.balance);\n    }\n}\n",
  "sourcePath": "/home/andrew/Projects/truffleTest/wemine/contracts/MineorityCore.sol",
  "compiler": {
    "name": "solc",
    "version": "0.4.23+commit.124ca40d.Emscripten.clang"
  },
  "schemaVersion": "1.0.1",
  "updatedAt": "2018-05-25T08:09:22.119Z"
}