{
  "contractName": "MineorityAccessControl",
  "abi": [
    {
      "constant": true,
      "inputs": [],
      "name": "cfoAddress",
      "outputs": [
        {
          "name": "",
          "type": "address"
        }
      ],
      "payable": false,
      "stateMutability": "view",
      "type": "function"
    },
    {
      "constant": true,
      "inputs": [],
      "name": "ceoAddress",
      "outputs": [
        {
          "name": "",
          "type": "address"
        }
      ],
      "payable": false,
      "stateMutability": "view",
      "type": "function"
    },
    {
      "constant": true,
      "inputs": [],
      "name": "ctoAddress",
      "outputs": [
        {
          "name": "",
          "type": "address"
        }
      ],
      "payable": false,
      "stateMutability": "view",
      "type": "function"
    },
    {
      "constant": true,
      "inputs": [],
      "name": "paused",
      "outputs": [
        {
          "name": "",
          "type": "bool"
        }
      ],
      "payable": false,
      "stateMutability": "view",
      "type": "function"
    },
    {
      "constant": false,
      "inputs": [
        {
          "name": "_newCEO",
          "type": "address"
        }
      ],
      "name": "setCEO",
      "outputs": [],
      "payable": false,
      "stateMutability": "nonpayable",
      "type": "function"
    },
    {
      "constant": false,
      "inputs": [
        {
          "name": "_newCFO",
          "type": "address"
        }
      ],
      "name": "setCFO",
      "outputs": [],
      "payable": false,
      "stateMutability": "nonpayable",
      "type": "function"
    },
    {
      "constant": false,
      "inputs": [
        {
          "name": "_newCTO",
          "type": "address"
        }
      ],
      "name": "setCTO",
      "outputs": [],
      "payable": false,
      "stateMutability": "nonpayable",
      "type": "function"
    },
    {
      "constant": false,
      "inputs": [],
      "name": "pause",
      "outputs": [],
      "payable": false,
      "stateMutability": "nonpayable",
      "type": "function"
    },
    {
      "constant": false,
      "inputs": [],
      "name": "unpause",
      "outputs": [],
      "payable": false,
      "stateMutability": "nonpayable",
      "type": "function"
    }
  ],
  "bytecode": "0x60806040526000600260146101000a81548160ff02191690831515021790555034801561002b57600080fd5b506107308061003b6000396000f300608060405260043610610099576000357c0100000000000000000000000000000000000000000000000000000000900463ffffffff1680630519ce791461009e5780630a0f8168146100f55780631f5136601461014c57806327d7874c146101a35780633f4ba83a146101e65780634e0a3379146101fd5780635c975abb146102405780638456cb591461026f578063fe1439b414610286575b600080fd5b3480156100aa57600080fd5b506100b36102c9565b604051808273ffffffffffffffffffffffffffffffffffffffff1673ffffffffffffffffffffffffffffffffffffffff16815260200191505060405180910390f35b34801561010157600080fd5b5061010a6102ef565b604051808273ffffffffffffffffffffffffffffffffffffffff1673ffffffffffffffffffffffffffffffffffffffff16815260200191505060405180910390f35b34801561015857600080fd5b50610161610314565b604051808273ffffffffffffffffffffffffffffffffffffffff1673ffffffffffffffffffffffffffffffffffffffff16815260200191505060405180910390f35b3480156101af57600080fd5b506101e4600480360381019080803573ffffffffffffffffffffffffffffffffffffffff16906020019092919050505061033a565b005b3480156101f257600080fd5b506101fb610414565b005b34801561020957600080fd5b5061023e600480360381019080803573ffffffffffffffffffffffffffffffffffffffff1690602001909291905050506104a7565b005b34801561024c57600080fd5b50610255610582565b604051808215151515815260200191505060405180910390f35b34801561027b57600080fd5b50610284610595565b005b34801561029257600080fd5b506102c7600480360381019080803573ffffffffffffffffffffffffffffffffffffffff169060200190929190505050610629565b005b600160009054906101000a900473ffffffffffffffffffffffffffffffffffffffff1681565b6000809054906101000a900473ffffffffffffffffffffffffffffffffffffffff1681565b600260009054906101000a900473ffffffffffffffffffffffffffffffffffffffff1681565b6000809054906101000a900473ffffffffffffffffffffffffffffffffffffffff1673ffffffffffffffffffffffffffffffffffffffff163373ffffffffffffffffffffffffffffffffffffffff1614151561039557600080fd5b600073ffffffffffffffffffffffffffffffffffffffff168173ffffffffffffffffffffffffffffffffffffffff16141515156103d157600080fd5b806000806101000a81548173ffffffffffffffffffffffffffffffffffffffff021916908373ffffffffffffffffffffffffffffffffffffffff16021790555050565b6000809054906101000a900473ffffffffffffffffffffffffffffffffffffffff1673ffffffffffffffffffffffffffffffffffffffff163373ffffffffffffffffffffffffffffffffffffffff1614151561046f57600080fd5b600260149054906101000a900460ff16151561048a57600080fd5b6000600260146101000a81548160ff021916908315150217905550565b6000809054906101000a900473ffffffffffffffffffffffffffffffffffffffff1673ffffffffffffffffffffffffffffffffffffffff163373ffffffffffffffffffffffffffffffffffffffff1614151561050257600080fd5b600073ffffffffffffffffffffffffffffffffffffffff168173ffffffffffffffffffffffffffffffffffffffff161415151561053e57600080fd5b80600160006101000a81548173ffffffffffffffffffffffffffffffffffffffff021916908373ffffffffffffffffffffffffffffffffffffffff16021790555050565b600260149054906101000a900460ff1681565b6000809054906101000a900473ffffffffffffffffffffffffffffffffffffffff1673ffffffffffffffffffffffffffffffffffffffff163373ffffffffffffffffffffffffffffffffffffffff161415156105f057600080fd5b600260149054906101000a900460ff1615151561060c57600080fd5b6001600260146101000a81548160ff021916908315150217905550565b6000809054906101000a900473ffffffffffffffffffffffffffffffffffffffff1673ffffffffffffffffffffffffffffffffffffffff163373ffffffffffffffffffffffffffffffffffffffff1614151561068457600080fd5b600073ffffffffffffffffffffffffffffffffffffffff168173ffffffffffffffffffffffffffffffffffffffff16141515156106c057600080fd5b80600260006101000a81548173ffffffffffffffffffffffffffffffffffffffff021916908373ffffffffffffffffffffffffffffffffffffffff160217905550505600a165627a7a72305820b66054bada5b8f22d10af55f33b1eeb4d5947cce958638048da26b7b6232c96d0029",
  "source": "pragma solidity ^0.4.23;\n\ncontract MineorityAccessControl {\n\n    //**Access controls levels**//\n    address public ceoAddress;\n    address public cfoAddress;\n    address public ctoAddress;\n\n    // @dev Keeps track whether the contract is paused. When that is true, most actions are blocked\n    bool public paused = false;\n\n    //---MODIFIERS---//\n\n    /// @dev Access modifier for CEO-only functionality\n    modifier onlyCEO() {\n        require(msg.sender == ceoAddress);\n        _;\n    }\n\n    /// @dev Access modifier for CFO-only functionality\n    modifier onlyCFO() {\n        require(msg.sender == cfoAddress);\n        _;\n    }\n\n    /// @dev Access modifier for CTO-only functionality\n    modifier onlyCTO() {\n        require(msg.sender == ctoAddress);\n        _;\n    }\n\n    /// @dev Modifier to allow actions only when the contract IS NOT paused\n    modifier whenNotPaused() {\n        require(!paused);\n        _;\n    }\n\n    /// @dev Modifier to allow actions only when the contract IS paused\n    modifier whenPaused {\n        require(paused);\n        _;\n    }\n\n    /// @dev Assigns a new address to act as the CEO. Only available to the current CEO.\n    /// @param _newCEO The address of the new CEO\n    function setCEO(address _newCEO) public onlyCEO {\n        require(_newCEO != address(0));\n\n        ceoAddress = _newCEO;\n    }\n\n    /// @dev Assigns a new address to act as the CFO. Only available to the current CEO.\n    /// @param _newCFO The address of the new CFO\n    function setCFO(address _newCFO) public onlyCEO {\n        require(_newCFO != address(0));\n\n        cfoAddress = _newCFO;\n    }\n\n    /// @dev Assigns a new address to act as the CTO. Only available to the current CEO.\n    /// @param _newCTO The address of the new CTO\n    function setCTO(address _newCTO) public onlyCEO {\n        require(_newCTO != address(0));\n\n        ctoAddress = _newCTO;\n    }\n\n    /// @dev Called by any \"C-level\" role to pause the contract. Used only when\n    ///  a bug or exploit is detected and we need to limit damage.\n    function pause() public onlyCEO whenNotPaused {\n        paused = true;\n    }\n\n    /// @dev Unpauses the smart contract. Can only be called by the CEO, since\n    ///  one reason we may pause the contract is when CFO or CTO accounts are\n    ///  compromised.\n    function unpause() public onlyCEO whenPaused {\n        // can't unpause if contract was upgraded\n        paused = false;\n    }\n\n}\n",
  "sourcePath": "/home/andrew/Projects/truffleTest/wemine/contracts/MineorityAccessControl.sol",
  "compiler": {
    "name": "solc",
    "version": "0.4.24+commit.e67f0147.Emscripten.clang"
  },
  "schemaVersion": "2.0.0",
  "updatedAt": "2018-05-27T16:01:17.897Z"
}