{
  "contractName": "MineorityMint",
  "abi": [
    {
      "constant": true,
      "inputs": [
        {
          "name": "_interfaceID",
          "type": "bytes4"
        }
      ],
      "name": "supportsInterface",
      "outputs": [
        {
          "name": "",
          "type": "bool"
        }
      ],
      "payable": false,
      "stateMutability": "pure",
      "type": "function"
    },
    {
      "constant": true,
      "inputs": [],
      "name": "cfoAddress",
      "outputs": [
        {
          "name": "",
          "type": "address"
        }
      ],
      "payable": false,
      "stateMutability": "view",
      "type": "function"
    },
    {
      "constant": false,
      "inputs": [
        {
          "name": "_tokenId",
          "type": "uint256"
        },
        {
          "name": "_hostingPeriod",
          "type": "uint256"
        }
      ],
      "name": "buyToken",
      "outputs": [],
      "payable": true,
      "stateMutability": "payable",
      "type": "function"
    },
    {
      "constant": true,
      "inputs": [],
      "name": "name",
      "outputs": [
        {
          "name": "",
          "type": "string"
        }
      ],
      "payable": false,
      "stateMutability": "view",
      "type": "function"
    },
    {
      "constant": true,
      "inputs": [
        {
          "name": "_GPUClass",
          "type": "uint256"
        },
        {
          "name": "_hostingPeriod",
          "type": "uint256"
        }
      ],
      "name": "getHostPrice",
      "outputs": [
        {
          "name": "hostPrice",
          "type": "uint256"
        }
      ],
      "payable": false,
      "stateMutability": "view",
      "type": "function"
    },
    {
      "constant": true,
      "inputs": [
        {
          "name": "_tokenId",
          "type": "uint256"
        }
      ],
      "name": "getApproved",
      "outputs": [
        {
          "name": "",
          "type": "address"
        }
      ],
      "payable": false,
      "stateMutability": "view",
      "type": "function"
    },
    {
      "constant": false,
      "inputs": [
        {
          "name": "_to",
          "type": "address"
        },
        {
          "name": "_tokenId",
          "type": "uint256"
        }
      ],
      "name": "approve",
      "outputs": [],
      "payable": false,
      "stateMutability": "nonpayable",
      "type": "function"
    },
    {
      "constant": true,
      "inputs": [],
      "name": "ceoAddress",
      "outputs": [
        {
          "name": "",
          "type": "address"
        }
      ],
      "payable": false,
      "stateMutability": "view",
      "type": "function"
    },
    {
      "constant": true,
      "inputs": [],
      "name": "totalSupply",
      "outputs": [
        {
          "name": "",
          "type": "uint256"
        }
      ],
      "payable": false,
      "stateMutability": "view",
      "type": "function"
    },
    {
      "constant": false,
      "inputs": [
        {
          "name": "_tokenId",
          "type": "uint256"
        },
        {
          "name": "_GPUClass",
          "type": "uint256"
        }
      ],
      "name": "sellToken",
      "outputs": [],
      "payable": false,
      "stateMutability": "nonpayable",
      "type": "function"
    },
    {
      "constant": true,
      "inputs": [],
      "name": "ctoAddress",
      "outputs": [
        {
          "name": "",
          "type": "address"
        }
      ],
      "payable": false,
      "stateMutability": "view",
      "type": "function"
    },
    {
      "constant": false,
      "inputs": [
        {
          "name": "_from",
          "type": "address"
        },
        {
          "name": "_to",
          "type": "address"
        },
        {
          "name": "_tokenId",
          "type": "uint256"
        }
      ],
      "name": "transferFrom",
      "outputs": [],
      "payable": false,
      "stateMutability": "nonpayable",
      "type": "function"
    },
    {
      "constant": false,
      "inputs": [
        {
          "name": "_newCEO",
          "type": "address"
        }
      ],
      "name": "setCEO",
      "outputs": [],
      "payable": false,
      "stateMutability": "nonpayable",
      "type": "function"
    },
    {
      "constant": true,
      "inputs": [],
      "name": "rate",
      "outputs": [
        {
          "name": "",
          "type": "uint128"
        }
      ],
      "payable": false,
      "stateMutability": "view",
      "type": "function"
    },
    {
      "constant": true,
      "inputs": [
        {
          "name": "_owner",
          "type": "address"
        },
        {
          "name": "_index",
          "type": "uint256"
        }
      ],
      "name": "tokenOfOwnerByIndex",
      "outputs": [
        {
          "name": "",
          "type": "uint256"
        }
      ],
      "payable": false,
      "stateMutability": "view",
      "type": "function"
    },
    {
      "constant": false,
      "inputs": [
        {
          "name": "_newRate",
          "type": "uint256"
        }
      ],
      "name": "setRate",
      "outputs": [],
      "payable": false,
      "stateMutability": "nonpayable",
      "type": "function"
    },
    {
      "constant": false,
      "inputs": [],
      "name": "unpause",
      "outputs": [],
      "payable": false,
      "stateMutability": "nonpayable",
      "type": "function"
    },
    {
      "constant": false,
      "inputs": [
        {
          "name": "_from",
          "type": "address"
        },
        {
          "name": "_to",
          "type": "address"
        },
        {
          "name": "_tokenId",
          "type": "uint256"
        }
      ],
      "name": "safeTransferFrom",
      "outputs": [],
      "payable": false,
      "stateMutability": "nonpayable",
      "type": "function"
    },
    {
      "constant": false,
      "inputs": [
        {
          "name": "_newCFO",
          "type": "address"
        }
      ],
      "name": "setCFO",
      "outputs": [],
      "payable": false,
      "stateMutability": "nonpayable",
      "type": "function"
    },
    {
      "constant": true,
      "inputs": [
        {
          "name": "_tokenId",
          "type": "uint256"
        }
      ],
      "name": "exists",
      "outputs": [
        {
          "name": "",
          "type": "bool"
        }
      ],
      "payable": false,
      "stateMutability": "view",
      "type": "function"
    },
    {
      "constant": true,
      "inputs": [
        {
          "name": "_index",
          "type": "uint256"
        }
      ],
      "name": "tokenByIndex",
      "outputs": [
        {
          "name": "",
          "type": "uint256"
        },
        {
          "name": "",
          "type": "uint256"
        }
      ],
      "payable": false,
      "stateMutability": "view",
      "type": "function"
    },
    {
      "constant": true,
      "inputs": [],
      "name": "paused",
      "outputs": [
        {
          "name": "",
          "type": "bool"
        }
      ],
      "payable": false,
      "stateMutability": "view",
      "type": "function"
    },
    {
      "constant": true,
      "inputs": [
        {
          "name": "_GPUClass",
          "type": "uint256"
        },
        {
          "name": "_hostingPeriod",
          "type": "uint256"
        }
      ],
      "name": "getPrice",
      "outputs": [
        {
          "name": "price",
          "type": "uint256"
        }
      ],
      "payable": false,
      "stateMutability": "view",
      "type": "function"
    },
    {
      "constant": true,
      "inputs": [
        {
          "name": "",
          "type": "uint256"
        }
      ],
      "name": "tokenIndexToPurchaseDate",
      "outputs": [
        {
          "name": "",
          "type": "uint256"
        }
      ],
      "payable": false,
      "stateMutability": "view",
      "type": "function"
    },
    {
      "constant": true,
      "inputs": [],
      "name": "InterfaceSignature_ERC721Optional",
      "outputs": [
        {
          "name": "",
          "type": "bytes4"
        }
      ],
      "payable": false,
      "stateMutability": "view",
      "type": "function"
    },
    {
      "constant": true,
      "inputs": [
        {
          "name": "_tokenId",
          "type": "uint256"
        }
      ],
      "name": "ownerOf",
      "outputs": [
        {
          "name": "owner",
          "type": "address"
        }
      ],
      "payable": false,
      "stateMutability": "view",
      "type": "function"
    },
    {
      "constant": true,
      "inputs": [
        {
          "name": "_owner",
          "type": "address"
        }
      ],
      "name": "balanceOf",
      "outputs": [
        {
          "name": "count",
          "type": "uint256"
        }
      ],
      "payable": false,
      "stateMutability": "view",
      "type": "function"
    },
    {
      "constant": false,
      "inputs": [],
      "name": "pause",
      "outputs": [],
      "payable": false,
      "stateMutability": "nonpayable",
      "type": "function"
    },
    {
      "constant": true,
      "inputs": [
        {
          "name": "_tokenId",
          "type": "uint256"
        }
      ],
      "name": "getSaleLot",
      "outputs": [
        {
          "name": "",
          "type": "address"
        },
        {
          "name": "",
          "type": "uint256"
        },
        {
          "name": "",
          "type": "uint256"
        }
      ],
      "payable": false,
      "stateMutability": "view",
      "type": "function"
    },
    {
      "constant": true,
      "inputs": [
        {
          "name": "",
          "type": "uint256"
        }
      ],
      "name": "tokenIndexToPurchasePrice",
      "outputs": [
        {
          "name": "",
          "type": "uint128"
        }
      ],
      "payable": false,
      "stateMutability": "view",
      "type": "function"
    },
    {
      "constant": false,
      "inputs": [
        {
          "name": "_tokenIds",
          "type": "uint256[]"
        },
        {
          "name": "_hostingPeriods",
          "type": "uint256[]"
        }
      ],
      "name": "buyTokens",
      "outputs": [],
      "payable": true,
      "stateMutability": "payable",
      "type": "function"
    },
    {
      "constant": false,
      "inputs": [
        {
          "name": "_tokenId",
          "type": "uint256"
        }
      ],
      "name": "removeSaleLot",
      "outputs": [],
      "payable": false,
      "stateMutability": "nonpayable",
      "type": "function"
    },
    {
      "constant": true,
      "inputs": [],
      "name": "symbol",
      "outputs": [
        {
          "name": "",
          "type": "string"
        }
      ],
      "payable": false,
      "stateMutability": "view",
      "type": "function"
    },
    {
      "constant": false,
      "inputs": [
        {
          "name": "_to",
          "type": "address"
        },
        {
          "name": "_approved",
          "type": "bool"
        }
      ],
      "name": "setApprovalForAll",
      "outputs": [],
      "payable": false,
      "stateMutability": "nonpayable",
      "type": "function"
    },
    {
      "constant": true,
      "inputs": [
        {
          "name": "_GPUClass",
          "type": "uint256"
        },
        {
          "name": "_hostingPeriod",
          "type": "uint256"
        }
      ],
      "name": "getGPUPrice",
      "outputs": [
        {
          "name": "gpuPrice",
          "type": "uint256"
        }
      ],
      "payable": false,
      "stateMutability": "view",
      "type": "function"
    },
    {
      "constant": false,
      "inputs": [
        {
          "name": "_from",
          "type": "address"
        },
        {
          "name": "_to",
          "type": "address"
        },
        {
          "name": "_tokenId",
          "type": "uint256"
        },
        {
          "name": "_data",
          "type": "bytes"
        }
      ],
      "name": "safeTransferFrom",
      "outputs": [],
      "payable": false,
      "stateMutability": "nonpayable",
      "type": "function"
    },
    {
      "constant": true,
      "inputs": [
        {
          "name": "",
          "type": "uint256"
        }
      ],
      "name": "tokenIndexToSaleLot",
      "outputs": [
        {
          "name": "seller",
          "type": "address"
        },
        {
          "name": "GPUClass",
          "type": "uint16"
        },
        {
          "name": "creationTime",
          "type": "uint256"
        }
      ],
      "payable": false,
      "stateMutability": "view",
      "type": "function"
    },
    {
      "constant": false,
      "inputs": [
        {
          "name": "_GPUClass",
          "type": "uint256"
        },
        {
          "name": "_hostingPeriod",
          "type": "uint256"
        },
        {
          "name": "_GPUPrice",
          "type": "uint256"
        },
        {
          "name": "_hostingPrice",
          "type": "uint256"
        }
      ],
      "name": "setPrice",
      "outputs": [],
      "payable": false,
      "stateMutability": "nonpayable",
      "type": "function"
    },
    {
      "constant": true,
      "inputs": [
        {
          "name": "",
          "type": "uint256"
        }
      ],
      "name": "tokenIndexToHostingPeriod",
      "outputs": [
        {
          "name": "",
          "type": "uint256"
        }
      ],
      "payable": false,
      "stateMutability": "view",
      "type": "function"
    },
    {
      "constant": true,
      "inputs": [
        {
          "name": "_owner",
          "type": "address"
        },
        {
          "name": "_operator",
          "type": "address"
        }
      ],
      "name": "isApprovedForAll",
      "outputs": [
        {
          "name": "",
          "type": "bool"
        }
      ],
      "payable": false,
      "stateMutability": "view",
      "type": "function"
    },
    {
      "constant": false,
      "inputs": [
        {
          "name": "_newCTO",
          "type": "address"
        }
      ],
      "name": "setCTO",
      "outputs": [],
      "payable": false,
      "stateMutability": "nonpayable",
      "type": "function"
    },
    {
      "anonymous": false,
      "inputs": [
        {
          "indexed": false,
          "name": "tokenId",
          "type": "uint256"
        },
        {
          "indexed": false,
          "name": "seller",
          "type": "address"
        },
        {
          "indexed": false,
          "name": "GPUClass",
          "type": "uint256"
        }
      ],
      "name": "SaleCreated",
      "type": "event"
    },
    {
      "anonymous": false,
      "inputs": [
        {
          "indexed": false,
          "name": "tokenId",
          "type": "uint256"
        },
        {
          "indexed": false,
          "name": "seller",
          "type": "address"
        },
        {
          "indexed": false,
          "name": "GPUClass",
          "type": "uint256"
        }
      ],
      "name": "SaleClosed",
      "type": "event"
    },
    {
      "anonymous": false,
      "inputs": [
        {
          "indexed": false,
          "name": "tokenId",
          "type": "uint256"
        }
      ],
      "name": "SaleCancelled",
      "type": "event"
    },
    {
      "anonymous": false,
      "inputs": [
        {
          "indexed": true,
          "name": "from",
          "type": "address"
        },
        {
          "indexed": true,
          "name": "to",
          "type": "address"
        },
        {
          "indexed": true,
          "name": "tokenId",
          "type": "uint256"
        }
      ],
      "name": "Transfer",
      "type": "event"
    },
    {
      "anonymous": false,
      "inputs": [
        {
          "indexed": true,
          "name": "owner",
          "type": "address"
        },
        {
          "indexed": true,
          "name": "approved",
          "type": "address"
        },
        {
          "indexed": true,
          "name": "tokenId",
          "type": "uint256"
        }
      ],
      "name": "Approval",
      "type": "event"
    },
    {
      "anonymous": false,
      "inputs": [
        {
          "indexed": true,
          "name": "_owner",
          "type": "address"
        },
        {
          "indexed": true,
          "name": "_operator",
          "type": "address"
        },
        {
          "indexed": false,
          "name": "_approved",
          "type": "bool"
        }
      ],
      "name": "ApprovalForAll",
      "type": "event"
    },
    {
      "constant": false,
      "inputs": [
        {
          "name": "_asicID",
          "type": "uint256"
        },
        {
          "name": "_pciVendorID",
          "type": "uint256"
        },
        {
          "name": "_pciDeviceID",
          "type": "uint256"
        },
        {
          "name": "_pciSubDeviceID",
          "type": "uint256"
        },
        {
          "name": "_pciSubVendorID",
          "type": "uint256"
        },
        {
          "name": "_memSizeMB",
          "type": "uint256"
        },
        {
          "name": "_memInfo",
          "type": "string"
        },
        {
          "name": "_asicManufacturer",
          "type": "string"
        },
        {
          "name": "_asicArchitecture",
          "type": "string"
        },
        {
          "name": "_GPUClass",
          "type": "uint256"
        }
      ],
      "name": "_mint",
      "outputs": [],
      "payable": false,
      "stateMutability": "nonpayable",
      "type": "function"
    },
    {
      "constant": false,
      "inputs": [
        {
          "name": "_owner",
          "type": "address"
        },
        {
          "name": "_tokenId",
          "type": "uint256"
        }
      ],
      "name": "_burn",
      "outputs": [],
      "payable": false,
      "stateMutability": "nonpayable",
      "type": "function"
    }
  ],
  "bytecode": "0x60806040526000600260146101000a81548160ff0219169083151502179055506040805190810160405280600981526020017f4d696e656f726974790000000000000000000000000000000000000000000000815250600990805190602001906200006c929190620000cf565b506040805190810160405280600481526020017f4d494e4500000000000000000000000000000000000000000000000000000000815250600a9080519060200190620000ba929190620000cf565b50348015620000c857600080fd5b506200017e565b828054600181600116156101000203166002900490600052602060002090601f016020900481019282601f106200011257805160ff191683800117855562000143565b8280016001018555821562000143579182015b828111156200014257825182559160200191906001019062000125565b5b50905062000152919062000156565b5090565b6200017b91905b80821115620001775760008160009055506001016200015d565b5090565b90565b613f9a806200018e6000396000f30060806040526004361061020f576000357c0100000000000000000000000000000000000000000000000000000000900463ffffffff16806301ffc9a7146102145780630519ce7914610278578063057466ea146102cf57806306fdde03146102f957806307d6085314610389578063081812fc146103d4578063095ea7b3146104415780630a0f81681461048e57806318160ddd146104e55780631897bcf3146105105780631f5136601461054757806323b872dd1461059e57806327d7874c1461060b5780632c4e722e1461064e5780632ee114031461069d5780632f745c59146107d857806334fcf437146108395780633f4ba83a1461086657806342842e0e1461087d5780634e0a3379146108ea5780634f558e791461092d5780634f6ccce7146109725780635c975abb146109ba5780635cf4ee91146109e95780635f8a90f214610a345780636161eb1814610a75578063624de3d914610ac25780636352211e14610b2b57806370a0823114610b985780638456cb5914610bef578063857d45f814610c0657806385d87b2b14610c81578063942a846714610ce65780639575e96214610d8257806395d89b4114610daf578063a22cb46514610e3f578063a728111714610e8e578063b88d4fde14610ed9578063c054ab7514610f8c578063d176dd451461100f578063de2e4f8f1461105a578063e985e9c51461109b578063fe1439b414611116575b600080fd5b34801561022057600080fd5b5061025e60048036038101908080357bffffffffffffffffffffffffffffffffffffffffffffffffffffffff19169060200190929190505050611159565b604051808215151515815260200191505060405180910390f35b34801561028457600080fd5b5061028d61129c565b604051808273ffffffffffffffffffffffffffffffffffffffff1673ffffffffffffffffffffffffffffffffffffffff16815260200191505060405180910390f35b6102f760048036038101908080359060200190929190803590602001909291905050506112c2565b005b34801561030557600080fd5b5061030e6115cc565b6040518080602001828103825283818151815260200191508051906020019080838360005b8381101561034e578082015181840152602081019050610333565b50505050905090810190601f16801561037b5780820380516001836020036101000a031916815260200191505b509250505060405180910390f35b34801561039557600080fd5b506103be600480360381019080803590602001909291908035906020019092919050505061166a565b6040518082815260200191505060405180910390f35b3480156103e057600080fd5b506103ff600480360381019080803590602001909291905050506116cd565b604051808273ffffffffffffffffffffffffffffffffffffffff1673ffffffffffffffffffffffffffffffffffffffff16815260200191505060405180910390f35b34801561044d57600080fd5b5061048c600480360381019080803573ffffffffffffffffffffffffffffffffffffffff1690602001909291908035906020019092919050505061170a565b005b34801561049a57600080fd5b506104a36118e2565b604051808273ffffffffffffffffffffffffffffffffffffffff1673ffffffffffffffffffffffffffffffffffffffff16815260200191505060405180910390f35b3480156104f157600080fd5b506104fa611907565b6040518082815260200191505060405180910390f35b34801561051c57600080fd5b506105456004803603810190808035906020019092919080359060200190929190505050611914565b005b34801561055357600080fd5b5061055c611ae3565b604051808273ffffffffffffffffffffffffffffffffffffffff1673ffffffffffffffffffffffffffffffffffffffff16815260200191505060405180910390f35b3480156105aa57600080fd5b50610609600480360381019080803573ffffffffffffffffffffffffffffffffffffffff169060200190929190803573ffffffffffffffffffffffffffffffffffffffff16906020019092919080359060200190929190505050611b09565b005b34801561061757600080fd5b5061064c600480360381019080803573ffffffffffffffffffffffffffffffffffffffff169060200190929190505050611c32565b005b34801561065a57600080fd5b50610663611d0c565b60405180826fffffffffffffffffffffffffffffffff166fffffffffffffffffffffffffffffffff16815260200191505060405180910390f35b3480156106a957600080fd5b506107d6600480360381019080803590602001909291908035906020019092919080359060200190929190803590602001909291908035906020019092919080359060200190929190803590602001908201803590602001908080601f0160208091040260200160405190810160405280939291908181526020018383808284378201915050505050509192919290803590602001908201803590602001908080601f0160208091040260200160405190810160405280939291908181526020018383808284378201915050505050509192919290803590602001908201803590602001908080601f016020809104026020016040519081016040528093929190818152602001838380828437820191505050505050919291929080359060200190929190505050611d2e565b005b3480156107e457600080fd5b50610823600480360381019080803573ffffffffffffffffffffffffffffffffffffffff16906020019092919080359060200190929190505050611fb1565b6040518082815260200191505060405180910390f35b34801561084557600080fd5b5061086460048036038101908080359060200190929190505050612028565b005b34801561087257600080fd5b5061087b6120c0565b005b34801561088957600080fd5b506108e8600480360381019080803573ffffffffffffffffffffffffffffffffffffffff169060200190929190803573ffffffffffffffffffffffffffffffffffffffff16906020019092919080359060200190929190505050612153565b005b3480156108f657600080fd5b5061092b600480360381019080803573ffffffffffffffffffffffffffffffffffffffff1690602001909291905050506121a7565b005b34801561093957600080fd5b5061095860048036038101908080359060200190929190505050612282565b604051808215151515815260200191505060405180910390f35b34801561097e57600080fd5b5061099d600480360381019080803590602001909291905050506122f4565b604051808381526020018281526020019250505060405180910390f35b3480156109c657600080fd5b506109cf612397565b604051808215151515815260200191505060405180910390f35b3480156109f557600080fd5b50610a1e60048036038101908080359060200190929190803590602001909291905050506123aa565b6040518082815260200191505060405180910390f35b348015610a4057600080fd5b50610a5f60048036038101908080359060200190929190505050612481565b6040518082815260200191505060405180910390f35b348015610a8157600080fd5b50610ac0600480360381019080803573ffffffffffffffffffffffffffffffffffffffff16906020019092919080359060200190929190505050612499565b005b348015610ace57600080fd5b50610ad76128a0565b60405180827bffffffffffffffffffffffffffffffffffffffffffffffffffffffff19167bffffffffffffffffffffffffffffffffffffffffffffffffffffffff1916815260200191505060405180910390f35b348015610b3757600080fd5b50610b56600480360381019080803590602001909291905050506128e3565b604051808273ffffffffffffffffffffffffffffffffffffffff1673ffffffffffffffffffffffffffffffffffffffff16815260200191505060405180910390f35b348015610ba457600080fd5b50610bd9600480360381019080803573ffffffffffffffffffffffffffffffffffffffff16906020019092919050505061295c565b6040518082815260200191505060405180910390f35b348015610bfb57600080fd5b50610c046129e0565b005b348015610c1257600080fd5b50610c3160048036038101908080359060200190929190505050612a74565b604051808473ffffffffffffffffffffffffffffffffffffffff1673ffffffffffffffffffffffffffffffffffffffff168152602001838152602001828152602001935050505060405180910390f35b348015610c8d57600080fd5b50610cac60048036038101908080359060200190929190505050612ae1565b60405180826fffffffffffffffffffffffffffffffff166fffffffffffffffffffffffffffffffff16815260200191505060405180910390f35b610d806004803603810190808035906020019082018035906020019080806020026020016040519081016040528093929190818152602001838360200280828437820191505050505050919291929080359060200190820180359060200190808060200260200160405190810160405280939291908181526020018383602002808284378201915050505050509192919290505050612b10565b005b348015610d8e57600080fd5b50610dad60048036038101908080359060200190929190505050612fdf565b005b348015610dbb57600080fd5b50610dc461310f565b6040518080602001828103825283818151815260200191508051906020019080838360005b83811015610e04578082015181840152602081019050610de9565b50505050905090810190601f168015610e315780820380516001836020036101000a031916815260200191505b509250505060405180910390f35b348015610e4b57600080fd5b50610e8c600480360381019080803573ffffffffffffffffffffffffffffffffffffffff1690602001909291908035151590602001909291905050506131ad565b005b348015610e9a57600080fd5b50610ec36004803603810190808035906020019092919080359060200190929190505050613305565b6040518082815260200191505060405180910390f35b348015610ee557600080fd5b50610f8a600480360381019080803573ffffffffffffffffffffffffffffffffffffffff169060200190929190803573ffffffffffffffffffffffffffffffffffffffff16906020019092919080359060200190929190803590602001908201803590602001908080601f0160208091040260200160405190810160405280939291908181526020018383808284378201915050505050509192919290505050613368565b005b348015610f9857600080fd5b50610fb7600480360381019080803590602001909291905050506133c3565b604051808473ffffffffffffffffffffffffffffffffffffffff1673ffffffffffffffffffffffffffffffffffffffff1681526020018361ffff1661ffff168152602001828152602001935050505060405180910390f35b34801561101b57600080fd5b506110586004803603810190808035906020019092919080359060200190929190803590602001909291908035906020019092919050505061341b565b005b34801561106657600080fd5b506110856004803603810190808035906020019092919050505061355b565b6040518082815260200191505060405180910390f35b3480156110a757600080fd5b506110fc600480360381019080803573ffffffffffffffffffffffffffffffffffffffff169060200190929190803573ffffffffffffffffffffffffffffffffffffffff169060200190929190505050613573565b604051808215151515815260200191505060405180910390f35b34801561112257600080fd5b50611157600480360381019080803573ffffffffffffffffffffffffffffffffffffffff169060200190929190505050613607565b005b60006301ffc9a77c0100000000000000000000000000000000000000000000000000000000027bffffffffffffffffffffffffffffffffffffffffffffffffffffffff1916827bffffffffffffffffffffffffffffffffffffffffffffffffffffffff1916148061122a57506380ac58cd7c0100000000000000000000000000000000000000000000000000000000027bffffffffffffffffffffffffffffffffffffffffffffffffffffffff1916827bffffffffffffffffffffffffffffffffffffffffffffffffffffffff1916145b80611295575063780e9d637c0100000000000000000000000000000000000000000000000000000000027bffffffffffffffffffffffffffffffffffffffffffffffffffffffff1916827bffffffffffffffffffffffffffffffffffffffffffffffffffffffff1916145b9050919050565b600160009054906101000a900473ffffffffffffffffffffffffffffffffffffffff1681565b600080600260149054906101000a900460ff161515156112e157600080fd5b600d60008581526020019081526020016000209150600073ffffffffffffffffffffffffffffffffffffffff16600d600086815260200190815260200160002060000160009054906101000a900473ffffffffffffffffffffffffffffffffffffffff1673ffffffffffffffffffffffffffffffffffffffff161415151561136857600080fd5b61139a600d600086815260200190815260200160002060000160149054906101000a900461ffff1661ffff16846123aa565b9050600b60009054906101000a90046fffffffffffffffffffffffffffffffff166fffffffffffffffffffffffffffffffff166113e8670de0b6b3a7640000836136e290919063ffffffff16565b8115156113f157fe5b0490506000811415151561140457600080fd5b80341015151561141357600080fd5b61141d338561371d565b600d6000858152602001908152602001600020600080820160006101000a81549073ffffffffffffffffffffffffffffffffffffffff02191690556000820160146101000a81549061ffff0219169055600182016000905550506114a06114916301e13380856136e290919063ffffffff16565b4261387790919063ffffffff16565b600e60008681526020019081526020016000208190555042600f600086815260200190815260200160002081905550806010600086815260200190815260200160002060006101000a8154816fffffffffffffffffffffffffffffffff02191690836fffffffffffffffffffffffffffffffff1602179055507fbaff7966f0758b1794fcea83b6d60c741b6fe4ab1b2431d4353784f68551d156848360000160009054906101000a900473ffffffffffffffffffffffffffffffffffffffff168460000160149054906101000a900461ffff16604051808481526020018373ffffffffffffffffffffffffffffffffffffffff1673ffffffffffffffffffffffffffffffffffffffff1681526020018261ffff168152602001935050505060405180910390a150505050565b60098054600181600116156101000203166002900480601f0160208091040260200160405190810160405280929190818152602001828054600181600116156101000203166002900480156116625780601f1061163757610100808354040283529160200191611662565b820191906000526020600020905b81548152906001019060200180831161164557829003601f168201915b505050505081565b6000600c6000848152602001908152602001600020600083815260200190815260200160002060000160109054906101000a90046fffffffffffffffffffffffffffffffff166fffffffffffffffffffffffffffffffff16905080905092915050565b60006005600083815260200190815260200160002060009054906101000a900473ffffffffffffffffffffffffffffffffffffffff169050919050565b6000600260149054906101000a900460ff1615151561172857600080fd5b611731826128e3565b90508073ffffffffffffffffffffffffffffffffffffffff168373ffffffffffffffffffffffffffffffffffffffff161415151561176e57600080fd5b8073ffffffffffffffffffffffffffffffffffffffff163373ffffffffffffffffffffffffffffffffffffffff1614806117ae57506117ad8133613573565b5b15156117b957600080fd5b600073ffffffffffffffffffffffffffffffffffffffff166117da836116cd565b73ffffffffffffffffffffffffffffffffffffffff1614158061182a5750600073ffffffffffffffffffffffffffffffffffffffff168373ffffffffffffffffffffffffffffffffffffffff1614155b156118dd57826005600084815260200190815260200160002060006101000a81548173ffffffffffffffffffffffffffffffffffffffff021916908373ffffffffffffffffffffffffffffffffffffffff160217905550818373ffffffffffffffffffffffffffffffffffffffff168273ffffffffffffffffffffffffffffffffffffffff167f8c5be1e5ebec7d5bd14f71427d1e84f3dd0314c0f7b2291e5b200ac8c7c3b92560405160405180910390a45b505050565b6000809054906101000a900473ffffffffffffffffffffffffffffffffffffffff1681565b6000600380549050905090565b61191c613dd2565b600260149054906101000a900460ff1615151561193857600080fd5b600260009054906101000a900473ffffffffffffffffffffffffffffffffffffffff1673ffffffffffffffffffffffffffffffffffffffff163373ffffffffffffffffffffffffffffffffffffffff1614151561199457600080fd5b61199e3384613895565b6119a833846139f4565b6060604051908101604052803373ffffffffffffffffffffffffffffffffffffffff1681526020018361ffff16815260200142815250905080600d600085815260200190815260200160002060008201518160000160006101000a81548173ffffffffffffffffffffffffffffffffffffffff021916908373ffffffffffffffffffffffffffffffffffffffff16021790555060208201518160000160146101000a81548161ffff021916908361ffff160217905550604082015181600101559050507fa29262303591d48ce94646a46b652916ce782073349bb5dc261ac4c5237d9397833384604051808481526020018373ffffffffffffffffffffffffffffffffffffffff1673ffffffffffffffffffffffffffffffffffffffff168152602001828152602001935050505060405180910390a1505050565b600260009054906101000a900473ffffffffffffffffffffffffffffffffffffffff1681565b80611b143382613b23565b1515611b1f57600080fd5b600260149054906101000a900460ff16151515611b3b57600080fd5b600073ffffffffffffffffffffffffffffffffffffffff168473ffffffffffffffffffffffffffffffffffffffff1614151515611b7757600080fd5b600073ffffffffffffffffffffffffffffffffffffffff168373ffffffffffffffffffffffffffffffffffffffff1614151515611bb357600080fd5b611bbd8483613895565b611bc784836139f4565b611bd1838361371d565b818373ffffffffffffffffffffffffffffffffffffffff168573ffffffffffffffffffffffffffffffffffffffff167fddf252ad1be2c89b69c2b068fc378daa952ba7f163c4a11628f55a4df523b3ef60405160405180910390a450505050565b6000809054906101000a900473ffffffffffffffffffffffffffffffffffffffff1673ffffffffffffffffffffffffffffffffffffffff163373ffffffffffffffffffffffffffffffffffffffff16141515611c8d57600080fd5b600073ffffffffffffffffffffffffffffffffffffffff168173ffffffffffffffffffffffffffffffffffffffff1614151515611cc957600080fd5b806000806101000a81548173ffffffffffffffffffffffffffffffffffffffff021916908373ffffffffffffffffffffffffffffffffffffffff16021790555050565b600b60009054906101000a90046fffffffffffffffffffffffffffffffff1681565b611d36613e0e565b6000600260009054906101000a900473ffffffffffffffffffffffffffffffffffffffff1673ffffffffffffffffffffffffffffffffffffffff163373ffffffffffffffffffffffffffffffffffffffff16141515611d9457600080fd5b610120604051908101604052808d6fffffffffffffffffffffffffffffffff1681526020018c61ffff1681526020018b61ffff1681526020018a61ffff1681526020018961ffff1681526020018861ffff16815260200187815260200186815260200185815250915060038054905090506003829080600181540180825580915050906001820390600052602060002090600402016000909192909190915060008201518160000160006101000a8154816fffffffffffffffffffffffffffffffff02191690836fffffffffffffffffffffffffffffffff16021790555060208201518160000160106101000a81548161ffff021916908361ffff16021790555060408201518160000160126101000a81548161ffff021916908361ffff16021790555060608201518160000160146101000a81548161ffff021916908361ffff16021790555060808201518160000160166101000a81548161ffff021916908361ffff16021790555060a08201518160000160186101000a81548161ffff021916908361ffff16021790555060c0820151816001019080519060200190611f3d929190613e81565b5060e0820151816002019080519060200190611f5a929190613e81565b50610100820151816003019080519060200190611f78929190613e81565b50505050611f86338261371d565b63ffffffff8111151515611f9957600080fd5b611fa38184611914565b505050505050505050505050565b6000611fbc8361295c565b82101515611fc957600080fd5b600760008473ffffffffffffffffffffffffffffffffffffffff1673ffffffffffffffffffffffffffffffffffffffff1681526020019081526020016000208281548110151561201557fe5b9060005260206000200154905092915050565b600260009054906101000a900473ffffffffffffffffffffffffffffffffffffffff1673ffffffffffffffffffffffffffffffffffffffff163373ffffffffffffffffffffffffffffffffffffffff1614151561208457600080fd5b80600b60006101000a8154816fffffffffffffffffffffffffffffffff02191690836fffffffffffffffffffffffffffffffff16021790555050565b6000809054906101000a900473ffffffffffffffffffffffffffffffffffffffff1673ffffffffffffffffffffffffffffffffffffffff163373ffffffffffffffffffffffffffffffffffffffff1614151561211b57600080fd5b600260149054906101000a900460ff16151561213657600080fd5b6000600260146101000a81548160ff021916908315150217905550565b8061215e3382613b23565b151561216957600080fd5b600260149054906101000a900460ff1615151561218557600080fd5b6121a18484846020604051908101604052806000815250613368565b50505050565b6000809054906101000a900473ffffffffffffffffffffffffffffffffffffffff1673ffffffffffffffffffffffffffffffffffffffff163373ffffffffffffffffffffffffffffffffffffffff1614151561220257600080fd5b600073ffffffffffffffffffffffffffffffffffffffff168173ffffffffffffffffffffffffffffffffffffffff161415151561223e57600080fd5b80600160006101000a81548173ffffffffffffffffffffffffffffffffffffffff021916908373ffffffffffffffffffffffffffffffffffffffff16021790555050565b6000806004600084815260200190815260200160002060009054906101000a900473ffffffffffffffffffffffffffffffffffffffff169050600073ffffffffffffffffffffffffffffffffffffffff168173ffffffffffffffffffffffffffffffffffffffff161415915050919050565b6000806122ff611907565b8310151561230c57600080fd5b60038381548110151561231b57fe5b906000526020600020906004020160000160009054906101000a90046fffffffffffffffffffffffffffffffff166fffffffffffffffffffffffffffffffff1660038481548110151561236a57fe5b906000526020600020906004020160000160109054906101000a900461ffff1661ffff1691509150915091565b600260149054906101000a900460ff1681565b600080600080600c6000878152602001908152602001600020600086815260200190815260200160002060000160009054906101000a90046fffffffffffffffffffffffffffffffff169250600c6000878152602001908152602001600020600086815260200190815260200160002060000160109054906101000a90046fffffffffffffffffffffffffffffffff169150612473826fffffffffffffffffffffffffffffffff16846fffffffffffffffffffffffffffffffff1661387790919063ffffffff16565b905080935050505092915050565b600f6020528060005260406000206000915090505481565b600260009054906101000a900473ffffffffffffffffffffffffffffffffffffffff1673ffffffffffffffffffffffffffffffffffffffff163373ffffffffffffffffffffffffffffffffffffffff161415156124f557600080fd5b8173ffffffffffffffffffffffffffffffffffffffff166004600083815260200190815260200160002060009054906101000a900473ffffffffffffffffffffffffffffffffffffffff1673ffffffffffffffffffffffffffffffffffffffff1614151561256257600080fd5b600073ffffffffffffffffffffffffffffffffffffffff166005600083815260200190815260200160002060009054906101000a900473ffffffffffffffffffffffffffffffffffffffff1673ffffffffffffffffffffffffffffffffffffffff1614151561267b5760006005600083815260200190815260200160002060006101000a81548173ffffffffffffffffffffffffffffffffffffffff021916908373ffffffffffffffffffffffffffffffffffffffff16021790555080600073ffffffffffffffffffffffffffffffffffffffff168373ffffffffffffffffffffffffffffffffffffffff167f8c5be1e5ebec7d5bd14f71427d1e84f3dd0314c0f7b2291e5b200ac8c7c3b92560405160405180910390a45b6126ce6001600660008573ffffffffffffffffffffffffffffffffffffffff1673ffffffffffffffffffffffffffffffffffffffff16815260200190815260200160002054613bb890919063ffffffff16565b600660008473ffffffffffffffffffffffffffffffffffffffff1673ffffffffffffffffffffffffffffffffffffffff1681526020019081526020016000208190555060006004600083815260200190815260200160002060006101000a81548173ffffffffffffffffffffffffffffffffffffffff021916908373ffffffffffffffffffffffffffffffffffffffff16021790555080600073ffffffffffffffffffffffffffffffffffffffff168373ffffffffffffffffffffffffffffffffffffffff167fddf252ad1be2c89b69c2b068fc378daa952ba7f163c4a11628f55a4df523b3ef60405160405180910390a46003818154811015156127cf57fe5b9060005260206000209060040201600080820160006101000a8154906fffffffffffffffffffffffffffffffff02191690556000820160106101000a81549061ffff02191690556000820160126101000a81549061ffff02191690556000820160146101000a81549061ffff02191690556000820160166101000a81549061ffff02191690556000820160186101000a81549061ffff021916905560018201600061287a9190613f01565b60028201600061288a9190613f01565b60038201600061289a9190613f01565b50505050565b7fffffffffffffffffffffffffffffffffffffffffffffffffffffffffb0aa71877c01000000000000000000000000000000000000000000000000000000000281565b60006004600083815260200190815260200160002060009054906101000a900473ffffffffffffffffffffffffffffffffffffffff169050600073ffffffffffffffffffffffffffffffffffffffff168173ffffffffffffffffffffffffffffffffffffffff161415151561295757600080fd5b919050565b60008073ffffffffffffffffffffffffffffffffffffffff168273ffffffffffffffffffffffffffffffffffffffff161415151561299957600080fd5b600660008373ffffffffffffffffffffffffffffffffffffffff1673ffffffffffffffffffffffffffffffffffffffff168152602001908152602001600020549050919050565b6000809054906101000a900473ffffffffffffffffffffffffffffffffffffffff1673ffffffffffffffffffffffffffffffffffffffff163373ffffffffffffffffffffffffffffffffffffffff16141515612a3b57600080fd5b600260149054906101000a900460ff16151515612a5757600080fd5b6001600260146101000a81548160ff021916908315150217905550565b600080600080600d600086815260200190815260200160002090508060000160009054906101000a900473ffffffffffffffffffffffffffffffffffffffff168160000160149054906101000a900461ffff1682600101548161ffff169150935093509350509193909250565b60106020528060005260406000206000915054906101000a90046fffffffffffffffffffffffffffffffff1681565b6000806000600260149054906101000a900460ff16151515612b3157600080fd5b60009250600091505b84518261ffff161015612fd857600d6000868461ffff16815181101515612b5d57fe5b9060200190602002015181526020019081526020016000209050600073ffffffffffffffffffffffffffffffffffffffff16600d6000878561ffff16815181101515612ba557fe5b90602001906020020151815260200190815260200160002060000160009054906101000a900473ffffffffffffffffffffffffffffffffffffffff1673ffffffffffffffffffffffffffffffffffffffff1614151515612c0457600080fd5b612cd3600b60009054906101000a90046fffffffffffffffffffffffffffffffff166fffffffffffffffffffffffffffffffff16612cba670de0b6b3a7640000612cac600d60008b8961ffff16815181101515612c5d57fe5b90602001906020020151815260200190815260200160002060000160149054906101000a900461ffff1661ffff16898861ffff16815181101515612c9d57fe5b906020019060200201516123aa565b6136e290919063ffffffff16565b811515612cc357fe5b048461387790919063ffffffff16565b92506000612d3f600d6000888661ffff16815181101515612cf057fe5b90602001906020020151815260200190815260200160002060000160149054906101000a900461ffff1661ffff16868561ffff16815181101515612d3057fe5b906020019060200201516123aa565b14151515612d4c57600080fd5b823410151515612d5b57600080fd5b612d8033868461ffff16815181101515612d7157fe5b9060200190602002015161371d565b600d6000868461ffff16815181101515612d9657fe5b906020019060200201518152602001908152602001600020600080820160006101000a81549073ffffffffffffffffffffffffffffffffffffffff02191690556000820160146101000a81549061ffff021916905560018201600090555050612e39612e2a6301e13380868561ffff16815181101515612e1257fe5b906020019060200201516136e290919063ffffffff16565b4261387790919063ffffffff16565b600e6000878561ffff16815181101515612e4f57fe5b9060200190602002015181526020019081526020016000208190555042600f6000878561ffff16815181101515612e8257fe5b906020019060200201518152602001908152602001600020819055508260106000878561ffff16815181101515612eb557fe5b90602001906020020151815260200190815260200160002060006101000a8154816fffffffffffffffffffffffffffffffff02191690836fffffffffffffffffffffffffffffffff1602179055507fbaff7966f0758b1794fcea83b6d60c741b6fe4ab1b2431d4353784f68551d156858361ffff16815181101515612f3657fe5b906020019060200201518260000160009054906101000a900473ffffffffffffffffffffffffffffffffffffffff168360000160149054906101000a900461ffff16604051808481526020018373ffffffffffffffffffffffffffffffffffffffff1673ffffffffffffffffffffffffffffffffffffffff1681526020018261ffff168152602001935050505060405180910390a18180600101925050612b3a565b5050505050565b6000600260149054906101000a900460ff16151515612ffd57600080fd5b600d600083815260200190815260200160002090508060000160009054906101000a900473ffffffffffffffffffffffffffffffffffffffff1673ffffffffffffffffffffffffffffffffffffffff163373ffffffffffffffffffffffffffffffffffffffff1614151561307057600080fd5b600d6000838152602001908152602001600020600080820160006101000a81549073ffffffffffffffffffffffffffffffffffffffff02191690556000820160146101000a81549061ffff0219169055600182016000905550506130d4338361371d565b7f2c56893f6f6026d19bd17b7d05c9f15c522de1ae2b1c3a825f91a73c799321f2826040518082815260200191505060405180910390a15050565b600a8054600181600116156101000203166002900480601f0160208091040260200160405190810160405280929190818152602001828054600181600116156101000203166002900480156131a55780601f1061317a576101008083540402835291602001916131a5565b820191906000526020600020905b81548152906001019060200180831161318857829003601f168201915b505050505081565b600260149054906101000a900460ff161515156131c957600080fd5b3373ffffffffffffffffffffffffffffffffffffffff168273ffffffffffffffffffffffffffffffffffffffff161415151561320457600080fd5b80600860003373ffffffffffffffffffffffffffffffffffffffff1673ffffffffffffffffffffffffffffffffffffffff16815260200190815260200160002060008473ffffffffffffffffffffffffffffffffffffffff1673ffffffffffffffffffffffffffffffffffffffff16815260200190815260200160002060006101000a81548160ff0219169083151502179055508173ffffffffffffffffffffffffffffffffffffffff163373ffffffffffffffffffffffffffffffffffffffff167f17307eab39ab6107e8899845ad3d59bd9653f200f220920489ca2b5937696c3183604051808215151515815260200191505060405180910390a35050565b6000600c6000848152602001908152602001600020600083815260200190815260200160002060000160009054906101000a90046fffffffffffffffffffffffffffffffff166fffffffffffffffffffffffffffffffff16905080905092915050565b816133733382613b23565b151561337e57600080fd5b600260149054906101000a900460ff1615151561339a57600080fd5b6133a5858585611b09565b6133b185858585613bd1565b15156133bc57600080fd5b5050505050565b600d6020528060005260406000206000915090508060000160009054906101000a900473ffffffffffffffffffffffffffffffffffffffff16908060000160149054906101000a900461ffff16908060010154905083565b600260009054906101000a900473ffffffffffffffffffffffffffffffffffffffff1673ffffffffffffffffffffffffffffffffffffffff163373ffffffffffffffffffffffffffffffffffffffff1614151561347757600080fd5b6040805190810160405280836fffffffffffffffffffffffffffffffff168152602001826fffffffffffffffffffffffffffffffff16815250600c6000868152602001908152602001600020600085815260200190815260200160002060008201518160000160006101000a8154816fffffffffffffffffffffffffffffffff02191690836fffffffffffffffffffffffffffffffff16021790555060208201518160000160106101000a8154816fffffffffffffffffffffffffffffffff02191690836fffffffffffffffffffffffffffffffff16021790555090505050505050565b600e6020528060005260406000206000915090505481565b6000600860008473ffffffffffffffffffffffffffffffffffffffff1673ffffffffffffffffffffffffffffffffffffffff16815260200190815260200160002060008373ffffffffffffffffffffffffffffffffffffffff1673ffffffffffffffffffffffffffffffffffffffff16815260200190815260200160002060009054906101000a900460ff16905092915050565b6000809054906101000a900473ffffffffffffffffffffffffffffffffffffffff1673ffffffffffffffffffffffffffffffffffffffff163373ffffffffffffffffffffffffffffffffffffffff1614151561366257600080fd5b600073ffffffffffffffffffffffffffffffffffffffff168173ffffffffffffffffffffffffffffffffffffffff161415151561369e57600080fd5b80600260006101000a81548173ffffffffffffffffffffffffffffffffffffffff021916908373ffffffffffffffffffffffffffffffffffffffff16021790555050565b60008060008414156136f75760009150613716565b828402905082848281151561370857fe5b0414151561371257fe5b8091505b5092915050565b600073ffffffffffffffffffffffffffffffffffffffff166004600083815260200190815260200160002060009054906101000a900473ffffffffffffffffffffffffffffffffffffffff1673ffffffffffffffffffffffffffffffffffffffff1614151561378b57600080fd5b816004600083815260200190815260200160002060006101000a81548173ffffffffffffffffffffffffffffffffffffffff021916908373ffffffffffffffffffffffffffffffffffffffff1602179055506138306001600660008573ffffffffffffffffffffffffffffffffffffffff1673ffffffffffffffffffffffffffffffffffffffff1681526020019081526020016000205461387790919063ffffffff16565b600660008473ffffffffffffffffffffffffffffffffffffffff1673ffffffffffffffffffffffffffffffffffffffff168152602001908152602001600020819055505050565b600080828401905083811015151561388b57fe5b8091505092915050565b8173ffffffffffffffffffffffffffffffffffffffff166138b5826128e3565b73ffffffffffffffffffffffffffffffffffffffff161415156138d757600080fd5b600073ffffffffffffffffffffffffffffffffffffffff166005600083815260200190815260200160002060009054906101000a900473ffffffffffffffffffffffffffffffffffffffff1673ffffffffffffffffffffffffffffffffffffffff161415156139f05760006005600083815260200190815260200160002060006101000a81548173ffffffffffffffffffffffffffffffffffffffff021916908373ffffffffffffffffffffffffffffffffffffffff16021790555080600073ffffffffffffffffffffffffffffffffffffffff168373ffffffffffffffffffffffffffffffffffffffff167f8c5be1e5ebec7d5bd14f71427d1e84f3dd0314c0f7b2291e5b200ac8c7c3b92560405160405180910390a45b5050565b8173ffffffffffffffffffffffffffffffffffffffff16613a14826128e3565b73ffffffffffffffffffffffffffffffffffffffff16141515613a3657600080fd5b613a896001600660008573ffffffffffffffffffffffffffffffffffffffff1673ffffffffffffffffffffffffffffffffffffffff16815260200190815260200160002054613bb890919063ffffffff16565b600660008473ffffffffffffffffffffffffffffffffffffffff1673ffffffffffffffffffffffffffffffffffffffff1681526020019081526020016000208190555060006004600083815260200190815260200160002060006101000a81548173ffffffffffffffffffffffffffffffffffffffff021916908373ffffffffffffffffffffffffffffffffffffffff1602179055505050565b600080613b2f836128e3565b90508073ffffffffffffffffffffffffffffffffffffffff168473ffffffffffffffffffffffffffffffffffffffff161480613b9e57508373ffffffffffffffffffffffffffffffffffffffff16613b86846116cd565b73ffffffffffffffffffffffffffffffffffffffff16145b80613baf5750613bae8185613573565b5b91505092915050565b6000828211151515613bc657fe5b818303905092915050565b600080613bf38573ffffffffffffffffffffffffffffffffffffffff16613dbf565b1515613c025760019150613db6565b8473ffffffffffffffffffffffffffffffffffffffff1663f0b9e5ba8786866040518463ffffffff167c0100000000000000000000000000000000000000000000000000000000028152600401808473ffffffffffffffffffffffffffffffffffffffff1673ffffffffffffffffffffffffffffffffffffffff16815260200183815260200180602001828103825283818151815260200191508051906020019080838360005b83811015613cc4578082015181840152602081019050613ca9565b50505050905090810190601f168015613cf15780820380516001836020036101000a031916815260200191505b50945050505050602060405180830381600087803b158015613d1257600080fd5b505af1158015613d26573d6000803e3d6000fd5b505050506040513d6020811015613d3c57600080fd5b8101908080519060200190929190505050905063f0b9e5ba7c0100000000000000000000000000000000000000000000000000000000027bffffffffffffffffffffffffffffffffffffffffffffffffffffffff1916817bffffffffffffffffffffffffffffffffffffffffffffffffffffffff19161491505b50949350505050565b600080823b905060008111915050919050565b606060405190810160405280600073ffffffffffffffffffffffffffffffffffffffff168152602001600061ffff168152602001600081525090565b6101206040519081016040528060006fffffffffffffffffffffffffffffffff168152602001600061ffff168152602001600061ffff168152602001600061ffff168152602001600061ffff168152602001600061ffff1681526020016060815260200160608152602001606081525090565b828054600181600116156101000203166002900490600052602060002090601f016020900481019282601f10613ec257805160ff1916838001178555613ef0565b82800160010185558215613ef0579182015b82811115613eef578251825591602001919060010190613ed4565b5b509050613efd9190613f49565b5090565b50805460018160011615610100020316600290046000825580601f10613f275750613f46565b601f016020900490600052602060002090810190613f459190613f49565b5b50565b613f6b91905b80821115613f67576000816000905550600101613f4f565b5090565b905600a165627a7a7230582042f24f38e52ce1f79c13ddf719a6e4557544f3319488af429e1c1285dda6f5fa0029",
  "source": "pragma solidity ^0.4.23;\nimport \"./MineorityTrading.sol\";\n\ncontract MineorityMint is MineorityTrading{\n\n    //**Mint and burn tokens**/\n        \n    //* Function to mint new token and immediately put it on sale\n    // Requires sender to be CTO address\n    function _mint(\n        uint256 _asicID,\n        uint256 _pciVendorID,\n        uint256 _pciDeviceID,\n        uint256 _pciSubDeviceID,\n        uint256 _pciSubVendorID,\n        uint256 _memSizeMB,\n        string _memInfo,\n        string _asicManufacturer,\n        string _asicArchitecture,\n        uint256 _GPUClass) public onlyCTO\n    {\n        Token memory _token = Token({\n            asicID: uint128(_asicID),\n            pciVendorID: uint16(_pciVendorID),\n            pciDeviceID: uint16(_pciDeviceID),\n            pciSubDeviceID: uint16(_pciSubDeviceID),\n            pciSubVendorID: uint16(_pciSubVendorID),\n            memSizeMB: uint16(_memSizeMB),\n            memInfo: _memInfo,\n            asicManufacturer: _asicManufacturer,\n            asicArchitecture: _asicArchitecture\n        });\n\n        uint256 _tokenId = allTokens.length;\n        allTokens.push(_token); \n\n        addTokenTo(msg.sender,_tokenId);\n        // Just to make sure\n        require(_tokenId <= 4294967295);\n\n        sellToken(_tokenId, _GPUClass);\n    }\n\n    //* Burns token in case when user wants his GPU to be shipped\n    // Requires sender to be owner of token\n    function _burn(address _owner, uint256 _tokenId) public onlyCTO {\n        require(tokenIndexToOwner[_tokenId] == _owner);\n        if (tokenIndexToApproved[_tokenId] != address(0)) {\n            tokenIndexToApproved[_tokenId] = address(0);\n            emit Approval(_owner, address(0), _tokenId);\n        }\n        ownedTokensCount[_owner] = ownedTokensCount[_owner].sub(1);\n        tokenIndexToOwner[_tokenId] = address(0);\n        emit Transfer(_owner, address(0), _tokenId);\n\n        delete allTokens[_tokenId];\n    }\n}\n",
  "sourcePath": "/home/andrew/Projects/truffleTest/wemine/contracts/MineorityMint.sol",
  "compiler": {
    "name": "solc",
    "version": "0.4.24+commit.e67f0147.Emscripten.clang"
  },
  "schemaVersion": "2.0.0",
  "updatedAt": "2018-06-06T13:05:24.334Z"
}