{
  "contractName": "MineorityBase",
  "abi": [
    {
      "constant": true,
      "inputs": [],
      "name": "cfoAddress",
      "outputs": [
        {
          "name": "",
          "type": "address"
        }
      ],
      "payable": false,
      "stateMutability": "view",
      "type": "function"
    },
    {
      "constant": true,
      "inputs": [],
      "name": "ceoAddress",
      "outputs": [
        {
          "name": "",
          "type": "address"
        }
      ],
      "payable": false,
      "stateMutability": "view",
      "type": "function"
    },
    {
      "constant": true,
      "inputs": [],
      "name": "ctoAddress",
      "outputs": [
        {
          "name": "",
          "type": "address"
        }
      ],
      "payable": false,
      "stateMutability": "view",
      "type": "function"
    },
    {
      "constant": false,
      "inputs": [
        {
          "name": "_newCEO",
          "type": "address"
        }
      ],
      "name": "setCEO",
      "outputs": [],
      "payable": false,
      "stateMutability": "nonpayable",
      "type": "function"
    },
    {
      "constant": false,
      "inputs": [],
      "name": "unpause",
      "outputs": [],
      "payable": false,
      "stateMutability": "nonpayable",
      "type": "function"
    },
    {
      "constant": false,
      "inputs": [
        {
          "name": "_newCFO",
          "type": "address"
        }
      ],
      "name": "setCFO",
      "outputs": [],
      "payable": false,
      "stateMutability": "nonpayable",
      "type": "function"
    },
    {
      "constant": true,
      "inputs": [],
      "name": "paused",
      "outputs": [
        {
          "name": "",
          "type": "bool"
        }
      ],
      "payable": false,
      "stateMutability": "view",
      "type": "function"
    },
    {
      "constant": false,
      "inputs": [],
      "name": "withdrawBalance",
      "outputs": [],
      "payable": false,
      "stateMutability": "nonpayable",
      "type": "function"
    },
    {
      "constant": true,
      "inputs": [],
      "name": "InterfaceSignature_ERC721Optional",
      "outputs": [
        {
          "name": "",
          "type": "bytes4"
        }
      ],
      "payable": false,
      "stateMutability": "view",
      "type": "function"
    },
    {
      "constant": false,
      "inputs": [],
      "name": "pause",
      "outputs": [],
      "payable": false,
      "stateMutability": "nonpayable",
      "type": "function"
    },
    {
      "constant": false,
      "inputs": [
        {
          "name": "_newCTO",
          "type": "address"
        }
      ],
      "name": "setCTO",
      "outputs": [],
      "payable": false,
      "stateMutability": "nonpayable",
      "type": "function"
    }
  ],
  "bytecode": "0x60806040526000600260146101000a81548160ff02191690831515021790555034801561002b57600080fd5b506108e78061003b6000396000f3006080604052600436106100af576000357c0100000000000000000000000000000000000000000000000000000000900463ffffffff1680630519ce79146100b45780630a0f81681461010b5780631f5136601461016257806327d7874c146101b95780633f4ba83a146101fc5780634e0a3379146102135780635c975abb146102565780635fd8c71014610285578063624de3d91461029c5780638456cb5914610305578063fe1439b41461031c575b600080fd5b3480156100c057600080fd5b506100c961035f565b604051808273ffffffffffffffffffffffffffffffffffffffff1673ffffffffffffffffffffffffffffffffffffffff16815260200191505060405180910390f35b34801561011757600080fd5b50610120610385565b604051808273ffffffffffffffffffffffffffffffffffffffff1673ffffffffffffffffffffffffffffffffffffffff16815260200191505060405180910390f35b34801561016e57600080fd5b506101776103aa565b604051808273ffffffffffffffffffffffffffffffffffffffff1673ffffffffffffffffffffffffffffffffffffffff16815260200191505060405180910390f35b3480156101c557600080fd5b506101fa600480360381019080803573ffffffffffffffffffffffffffffffffffffffff1690602001909291905050506103d0565b005b34801561020857600080fd5b506102116104aa565b005b34801561021f57600080fd5b50610254600480360381019080803573ffffffffffffffffffffffffffffffffffffffff16906020019092919050505061053d565b005b34801561026257600080fd5b5061026b610618565b604051808215151515815260200191505060405180910390f35b34801561029157600080fd5b5061029a61062b565b005b3480156102a857600080fd5b506102b1610709565b60405180827bffffffffffffffffffffffffffffffffffffffffffffffffffffffff19167bffffffffffffffffffffffffffffffffffffffffffffffffffffffff1916815260200191505060405180910390f35b34801561031157600080fd5b5061031a61074c565b005b34801561032857600080fd5b5061035d600480360381019080803573ffffffffffffffffffffffffffffffffffffffff1690602001909291905050506107e0565b005b600160009054906101000a900473ffffffffffffffffffffffffffffffffffffffff1681565b6000809054906101000a900473ffffffffffffffffffffffffffffffffffffffff1681565b600260009054906101000a900473ffffffffffffffffffffffffffffffffffffffff1681565b6000809054906101000a900473ffffffffffffffffffffffffffffffffffffffff1673ffffffffffffffffffffffffffffffffffffffff163373ffffffffffffffffffffffffffffffffffffffff1614151561042b57600080fd5b600073ffffffffffffffffffffffffffffffffffffffff168173ffffffffffffffffffffffffffffffffffffffff161415151561046757600080fd5b806000806101000a81548173ffffffffffffffffffffffffffffffffffffffff021916908373ffffffffffffffffffffffffffffffffffffffff16021790555050565b6000809054906101000a900473ffffffffffffffffffffffffffffffffffffffff1673ffffffffffffffffffffffffffffffffffffffff163373ffffffffffffffffffffffffffffffffffffffff1614151561050557600080fd5b600260149054906101000a900460ff16151561052057600080fd5b6000600260146101000a81548160ff021916908315150217905550565b6000809054906101000a900473ffffffffffffffffffffffffffffffffffffffff1673ffffffffffffffffffffffffffffffffffffffff163373ffffffffffffffffffffffffffffffffffffffff1614151561059857600080fd5b600073ffffffffffffffffffffffffffffffffffffffff168173ffffffffffffffffffffffffffffffffffffffff16141515156105d457600080fd5b80600160006101000a81548173ffffffffffffffffffffffffffffffffffffffff021916908373ffffffffffffffffffffffffffffffffffffffff16021790555050565b600260149054906101000a900460ff1681565b600160009054906101000a900473ffffffffffffffffffffffffffffffffffffffff1673ffffffffffffffffffffffffffffffffffffffff163373ffffffffffffffffffffffffffffffffffffffff1614151561068757600080fd5b600160009054906101000a900473ffffffffffffffffffffffffffffffffffffffff1673ffffffffffffffffffffffffffffffffffffffff166108fc3073ffffffffffffffffffffffffffffffffffffffff16319081150290604051600060405180830381858888f19350505050158015610706573d6000803e3d6000fd5b50565b7fffffffffffffffffffffffffffffffffffffffffffffffffffffffffb0aa71877c01000000000000000000000000000000000000000000000000000000000281565b6000809054906101000a900473ffffffffffffffffffffffffffffffffffffffff1673ffffffffffffffffffffffffffffffffffffffff163373ffffffffffffffffffffffffffffffffffffffff161415156107a757600080fd5b600260149054906101000a900460ff161515156107c357600080fd5b6001600260146101000a81548160ff021916908315150217905550565b6000809054906101000a900473ffffffffffffffffffffffffffffffffffffffff1673ffffffffffffffffffffffffffffffffffffffff163373ffffffffffffffffffffffffffffffffffffffff1614151561083b57600080fd5b600073ffffffffffffffffffffffffffffffffffffffff168173ffffffffffffffffffffffffffffffffffffffff161415151561087757600080fd5b80600260006101000a81548173ffffffffffffffffffffffffffffffffffffffff021916908373ffffffffffffffffffffffffffffffffffffffff160217905550505600a165627a7a72305820747ab3f4a890da325dfbbc4b37f142e121026a44b34fa8d26d92ffccf70a2eb10029",
  "source": "pragma solidity ^0.4.23;\nimport \"./MineorityAccessControl.sol\";\nimport \"./ERC721Receiver.sol\";\nimport \"./utils/SafeMath.sol\";\nimport \"./utils/AddressUtils.sol\";\n\ncontract MineorityBase is MineorityAccessControl {\n    using SafeMath for uint256;\n    using AddressUtils for address;\n\n    //**ERC721 implementation + all data structures**//\n\n    enum Status {New,Active,Maintenance,Unmounted}\n    enum asicManufacturer {AMD, NVIDIA, Intel}\n\n    struct Token {\n        //The unique ASIC Serial ID of a GPU card. It is stored as a binary value.\n        uint128 asicID;\n        // //The unique PCI Vendor ID of a GPU card. It is stored as a binary value.\n        // uint16 pciVendorID;\n        // //The unique PCI Device ID of a GPU card. It is stored as a binary value.\n        // uint16 pciDeviceID;\n        // //The model name and number of a GPU card.\n        // uint16 pciSubDeviceID;\n        // //The manufacturer of a GPU card - for instance, ASUS.\n        // uint16 pciSubVendorID;\n        // //The memory size of a GPU card - for instance, 16384 MB. Stored as a binary value.\n        // uint16 memSizeMB;\n        // //The memory type of a GPU card - in this case, the part number. Always 11 characters in length.\n        // string memInfo;\n\n        Status tokenStatus;\n        asicManufacturer GPUType;\n    }\n\n    //---STORAGE---//\n    Token[] internal allTokens;  \n\n    bytes4 constant ERC721_RECEIVED = 0xf0b9e5ba; \n\n    mapping (uint256 => address) internal tokenIndexToOwner;\n\n    mapping (uint256 => address) internal tokenIndexToApproved;\n\n    mapping (address => uint256) internal ownedTokensCount;\n\n    mapping (address => uint256[]) internal ownedTokens;\n\n    mapping (address => mapping (address => bool)) internal operatorApprovals;\n\n    bytes4 constant InterfaceSignature_ERC165 = 0x01ffc9a7;\n    /*\n    bytes4(keccak256('supportsInterface(bytes4)'));\n    */\n\n    bytes4 constant InterfaceSignature_ERC721 = 0x80ac58cd;\n    /*\n    bytes4(keccak256('balanceOf(address)')) ^\n    bytes4(keccak256('ownerOf(uint256)')) ^\n    bytes4(keccak256('approve(address,uint256)')) ^\n    bytes4(keccak256('getApproved(uint256)')) ^\n    bytes4(keccak256('setApprovalForAll(address,bool)')) ^\n    bytes4(keccak256('isApprovedForAll(address,address)')) ^\n    bytes4(keccak256('transferFrom(address,address,uint256)')) ^\n    bytes4(keccak256('safeTransferFrom(address,address,uint256)')) ^\n    bytes4(keccak256('safeTransferFrom(address,address,uint256,bytes)'));\n    */\n\n    //* Same with them, hashing functions mentioned in ERC721.sol\n    bytes4 constant InterfaceSignature_ERC721Enumerable = 0x780e9d63;\n    bytes4 public constant InterfaceSignature_ERC721Optional =- 0x4f558e79;\n\n\n    //* Interal function to check if target address is a regular address\n    // or an applicable to recieve token contract\n    function checkAndCallSafeTransfer(address _from, address _to, uint256 _tokenId, bytes _data) internal returns (bool) {\n        if (!_to.isContract()) {\n            return true;\n        }\n        bytes4 retval = ERC721Receiver(_to).onERC721Received(_from, _tokenId, _data);\n        return (retval == ERC721_RECEIVED);\n    }\n}\n",
  "sourcePath": "/home/andrew/Projects/truffleTest/wemine/contracts/MineorityBase.sol",
  "compiler": {
    "name": "solc",
    "version": "0.4.23+commit.124ca40d.Emscripten.clang"
  },
  "schemaVersion": "1.0.1",
  "updatedAt": "2018-05-14T18:40:02.799Z"
}