{
  "contractName": "MineorityTrading",
  "abi": [
    {
      "constant": true,
      "inputs": [
        {
          "name": "_interfaceID",
          "type": "bytes4"
        }
      ],
      "name": "supportsInterface",
      "outputs": [
        {
          "name": "",
          "type": "bool"
        }
      ],
      "payable": false,
      "stateMutability": "pure",
      "type": "function"
    },
    {
      "constant": true,
      "inputs": [],
      "name": "cfoAddress",
      "outputs": [
        {
          "name": "",
          "type": "address"
        }
      ],
      "payable": false,
      "stateMutability": "view",
      "type": "function"
    },
    {
      "constant": false,
      "inputs": [
        {
          "name": "_tokenId",
          "type": "uint256"
        },
        {
          "name": "_hostingPeriod",
          "type": "uint256"
        }
      ],
      "name": "buyToken",
      "outputs": [],
      "payable": true,
      "stateMutability": "payable",
      "type": "function"
    },
    {
      "constant": true,
      "inputs": [],
      "name": "name",
      "outputs": [
        {
          "name": "",
          "type": "string"
        }
      ],
      "payable": false,
      "stateMutability": "view",
      "type": "function"
    },
    {
      "constant": true,
      "inputs": [
        {
          "name": "_tokenId",
          "type": "uint256"
        }
      ],
      "name": "getApproved",
      "outputs": [
        {
          "name": "",
          "type": "address"
        }
      ],
      "payable": false,
      "stateMutability": "view",
      "type": "function"
    },
    {
      "constant": false,
      "inputs": [
        {
          "name": "_to",
          "type": "address"
        },
        {
          "name": "_tokenId",
          "type": "uint256"
        }
      ],
      "name": "approve",
      "outputs": [],
      "payable": false,
      "stateMutability": "nonpayable",
      "type": "function"
    },
    {
      "constant": true,
      "inputs": [],
      "name": "ceoAddress",
      "outputs": [
        {
          "name": "",
          "type": "address"
        }
      ],
      "payable": false,
      "stateMutability": "view",
      "type": "function"
    },
    {
      "constant": true,
      "inputs": [],
      "name": "totalSupply",
      "outputs": [
        {
          "name": "",
          "type": "uint256"
        }
      ],
      "payable": false,
      "stateMutability": "view",
      "type": "function"
    },
    {
      "constant": false,
      "inputs": [
        {
          "name": "_tokenId",
          "type": "uint256"
        },
        {
          "name": "_GPUClass",
          "type": "uint256"
        }
      ],
      "name": "sellToken",
      "outputs": [],
      "payable": false,
      "stateMutability": "nonpayable",
      "type": "function"
    },
    {
      "constant": true,
      "inputs": [],
      "name": "ctoAddress",
      "outputs": [
        {
          "name": "",
          "type": "address"
        }
      ],
      "payable": false,
      "stateMutability": "view",
      "type": "function"
    },
    {
      "constant": false,
      "inputs": [
        {
          "name": "_from",
          "type": "address"
        },
        {
          "name": "_to",
          "type": "address"
        },
        {
          "name": "_tokenId",
          "type": "uint256"
        }
      ],
      "name": "transferFrom",
      "outputs": [],
      "payable": false,
      "stateMutability": "nonpayable",
      "type": "function"
    },
    {
      "constant": false,
      "inputs": [
        {
          "name": "_newCEO",
          "type": "address"
        }
      ],
      "name": "setCEO",
      "outputs": [],
      "payable": false,
      "stateMutability": "nonpayable",
      "type": "function"
    },
    {
      "constant": true,
      "inputs": [
        {
          "name": "_owner",
          "type": "address"
        },
        {
          "name": "_index",
          "type": "uint256"
        }
      ],
      "name": "tokenOfOwnerByIndex",
      "outputs": [
        {
          "name": "",
          "type": "uint256"
        }
      ],
      "payable": false,
      "stateMutability": "view",
      "type": "function"
    },
    {
      "constant": false,
      "inputs": [],
      "name": "unpause",
      "outputs": [],
      "payable": false,
      "stateMutability": "nonpayable",
      "type": "function"
    },
    {
      "constant": false,
      "inputs": [
        {
          "name": "_from",
          "type": "address"
        },
        {
          "name": "_to",
          "type": "address"
        },
        {
          "name": "_tokenId",
          "type": "uint256"
        }
      ],
      "name": "safeTransferFrom",
      "outputs": [],
      "payable": false,
      "stateMutability": "nonpayable",
      "type": "function"
    },
    {
      "constant": false,
      "inputs": [
        {
          "name": "_newCFO",
          "type": "address"
        }
      ],
      "name": "setCFO",
      "outputs": [],
      "payable": false,
      "stateMutability": "nonpayable",
      "type": "function"
    },
    {
      "constant": true,
      "inputs": [
        {
          "name": "_tokenId",
          "type": "uint256"
        }
      ],
      "name": "exists",
      "outputs": [
        {
          "name": "",
          "type": "bool"
        }
      ],
      "payable": false,
      "stateMutability": "view",
      "type": "function"
    },
    {
      "constant": true,
      "inputs": [
        {
          "name": "_index",
          "type": "uint256"
        }
      ],
      "name": "tokenByIndex",
      "outputs": [
        {
          "name": "",
          "type": "uint256"
        },
        {
          "name": "",
          "type": "uint256"
        }
      ],
      "payable": false,
      "stateMutability": "view",
      "type": "function"
    },
    {
      "constant": true,
      "inputs": [],
      "name": "paused",
      "outputs": [
        {
          "name": "",
          "type": "bool"
        }
      ],
      "payable": false,
      "stateMutability": "view",
      "type": "function"
    },
    {
      "constant": true,
      "inputs": [
        {
          "name": "_hostingPeriod",
          "type": "uint256"
        },
        {
          "name": "_GPUClass",
          "type": "uint256"
        }
      ],
      "name": "getPrice",
      "outputs": [
        {
          "name": "price",
          "type": "uint256"
        }
      ],
      "payable": false,
      "stateMutability": "view",
      "type": "function"
    },
    {
      "constant": true,
      "inputs": [
        {
          "name": "",
          "type": "uint256"
        }
      ],
      "name": "tokenIndexToPurchaseDate",
      "outputs": [
        {
          "name": "",
          "type": "uint256"
        }
      ],
      "payable": false,
      "stateMutability": "view",
      "type": "function"
    },
    {
      "constant": false,
      "inputs": [],
      "name": "withdrawBalance",
      "outputs": [],
      "payable": false,
      "stateMutability": "nonpayable",
      "type": "function"
    },
    {
      "constant": true,
      "inputs": [],
      "name": "InterfaceSignature_ERC721Optional",
      "outputs": [
        {
          "name": "",
          "type": "bytes4"
        }
      ],
      "payable": false,
      "stateMutability": "view",
      "type": "function"
    },
    {
      "constant": true,
      "inputs": [
        {
          "name": "_tokenId",
          "type": "uint256"
        }
      ],
      "name": "ownerOf",
      "outputs": [
        {
          "name": "owner",
          "type": "address"
        }
      ],
      "payable": false,
      "stateMutability": "view",
      "type": "function"
    },
    {
      "constant": true,
      "inputs": [
        {
          "name": "_owner",
          "type": "address"
        }
      ],
      "name": "balanceOf",
      "outputs": [
        {
          "name": "count",
          "type": "uint256"
        }
      ],
      "payable": false,
      "stateMutability": "view",
      "type": "function"
    },
    {
      "constant": false,
      "inputs": [],
      "name": "pause",
      "outputs": [],
      "payable": false,
      "stateMutability": "nonpayable",
      "type": "function"
    },
    {
      "constant": true,
      "inputs": [
        {
          "name": "_tokenId",
          "type": "uint256"
        }
      ],
      "name": "getSaleLot",
      "outputs": [
        {
          "name": "",
          "type": "address"
        },
        {
          "name": "",
          "type": "uint256"
        },
        {
          "name": "",
          "type": "uint256"
        }
      ],
      "payable": false,
      "stateMutability": "view",
      "type": "function"
    },
    {
      "constant": true,
      "inputs": [
        {
          "name": "",
          "type": "uint256"
        }
      ],
      "name": "tokenIndexToPurchasePrice",
      "outputs": [
        {
          "name": "",
          "type": "uint128"
        }
      ],
      "payable": false,
      "stateMutability": "view",
      "type": "function"
    },
    {
      "constant": false,
      "inputs": [
        {
          "name": "_tokenIds",
          "type": "uint256[]"
        },
        {
          "name": "_hostingPeriods",
          "type": "uint256[]"
        }
      ],
      "name": "buyTokens",
      "outputs": [],
      "payable": true,
      "stateMutability": "payable",
      "type": "function"
    },
    {
      "constant": false,
      "inputs": [
        {
          "name": "_tokenId",
          "type": "uint256"
        }
      ],
      "name": "removeSaleLot",
      "outputs": [],
      "payable": false,
      "stateMutability": "nonpayable",
      "type": "function"
    },
    {
      "constant": true,
      "inputs": [],
      "name": "symbol",
      "outputs": [
        {
          "name": "",
          "type": "string"
        }
      ],
      "payable": false,
      "stateMutability": "view",
      "type": "function"
    },
    {
      "constant": false,
      "inputs": [
        {
          "name": "_to",
          "type": "address"
        },
        {
          "name": "_approved",
          "type": "bool"
        }
      ],
      "name": "setApprovalForAll",
      "outputs": [],
      "payable": false,
      "stateMutability": "nonpayable",
      "type": "function"
    },
    {
      "constant": false,
      "inputs": [
        {
          "name": "_from",
          "type": "address"
        },
        {
          "name": "_to",
          "type": "address"
        },
        {
          "name": "_tokenId",
          "type": "uint256"
        },
        {
          "name": "_data",
          "type": "bytes"
        }
      ],
      "name": "safeTransferFrom",
      "outputs": [],
      "payable": false,
      "stateMutability": "nonpayable",
      "type": "function"
    },
    {
      "constant": true,
      "inputs": [
        {
          "name": "",
          "type": "uint256"
        }
      ],
      "name": "tokenIndexToSaleLot",
      "outputs": [
        {
          "name": "seller",
          "type": "address"
        },
        {
          "name": "GPUClass",
          "type": "uint16"
        },
        {
          "name": "creationTime",
          "type": "uint256"
        }
      ],
      "payable": false,
      "stateMutability": "view",
      "type": "function"
    },
    {
      "constant": false,
      "inputs": [
        {
          "name": "_GPUClass",
          "type": "uint256"
        },
        {
          "name": "_hostingPeriod",
          "type": "uint256"
        },
        {
          "name": "_GPUPrice",
          "type": "uint256"
        },
        {
          "name": "_hostingPrice",
          "type": "uint256"
        }
      ],
      "name": "setPrice",
      "outputs": [],
      "payable": false,
      "stateMutability": "nonpayable",
      "type": "function"
    },
    {
      "constant": true,
      "inputs": [
        {
          "name": "",
          "type": "uint256"
        }
      ],
      "name": "tokenIndexToHostingPeriod",
      "outputs": [
        {
          "name": "",
          "type": "uint256"
        }
      ],
      "payable": false,
      "stateMutability": "view",
      "type": "function"
    },
    {
      "constant": true,
      "inputs": [
        {
          "name": "_owner",
          "type": "address"
        },
        {
          "name": "_operator",
          "type": "address"
        }
      ],
      "name": "isApprovedForAll",
      "outputs": [
        {
          "name": "",
          "type": "bool"
        }
      ],
      "payable": false,
      "stateMutability": "view",
      "type": "function"
    },
    {
      "constant": false,
      "inputs": [
        {
          "name": "_newCTO",
          "type": "address"
        }
      ],
      "name": "setCTO",
      "outputs": [],
      "payable": false,
      "stateMutability": "nonpayable",
      "type": "function"
    },
    {
      "anonymous": false,
      "inputs": [
        {
          "indexed": false,
          "name": "tokenId",
          "type": "uint256"
        },
        {
          "indexed": false,
          "name": "seller",
          "type": "address"
        },
        {
          "indexed": false,
          "name": "GPUClass",
          "type": "uint256"
        }
      ],
      "name": "SaleCreated",
      "type": "event"
    },
    {
      "anonymous": false,
      "inputs": [
        {
          "indexed": false,
          "name": "tokenId",
          "type": "uint256"
        },
        {
          "indexed": false,
          "name": "seller",
          "type": "address"
        },
        {
          "indexed": false,
          "name": "GPUClass",
          "type": "uint256"
        }
      ],
      "name": "SaleClosed",
      "type": "event"
    },
    {
      "anonymous": false,
      "inputs": [
        {
          "indexed": false,
          "name": "tokenId",
          "type": "uint256"
        }
      ],
      "name": "SaleCancelled",
      "type": "event"
    },
    {
      "anonymous": false,
      "inputs": [
        {
          "indexed": true,
          "name": "from",
          "type": "address"
        },
        {
          "indexed": true,
          "name": "to",
          "type": "address"
        },
        {
          "indexed": true,
          "name": "tokenId",
          "type": "uint256"
        }
      ],
      "name": "Transfer",
      "type": "event"
    },
    {
      "anonymous": false,
      "inputs": [
        {
          "indexed": true,
          "name": "owner",
          "type": "address"
        },
        {
          "indexed": true,
          "name": "approved",
          "type": "address"
        },
        {
          "indexed": true,
          "name": "tokenId",
          "type": "uint256"
        }
      ],
      "name": "Approval",
      "type": "event"
    },
    {
      "anonymous": false,
      "inputs": [
        {
          "indexed": true,
          "name": "_owner",
          "type": "address"
        },
        {
          "indexed": true,
          "name": "_operator",
          "type": "address"
        },
        {
          "indexed": false,
          "name": "_approved",
          "type": "bool"
        }
      ],
      "name": "ApprovalForAll",
      "type": "event"
    }
  ],
  "bytecode": "0x60806040526000600260146101000a81548160ff0219169083151502179055506040805190810160405280600981526020017f4d696e656f726974790000000000000000000000000000000000000000000000815250600990805190602001906200006c929190620000cf565b506040805190810160405280600481526020017f4d494e4500000000000000000000000000000000000000000000000000000000815250600a9080519060200190620000ba929190620000cf565b50348015620000c857600080fd5b506200017e565b828054600181600116156101000203166002900490600052602060002090601f016020900481019282601f106200011257805160ff191683800117855562000143565b8280016001018555821562000143579182015b828111156200014257825182559160200191906001019062000125565b5b50905062000152919062000156565b5090565b6200017b91905b80821115620001775760008160009055506001016200015d565b5090565b90565b612f17806200018e6000396000f3006080604052600436106101d8576000357c0100000000000000000000000000000000000000000000000000000000900463ffffffff16806301ffc9a7146101dd5780630519ce7914610241578063057466ea1461029857806306fdde03146102c2578063081812fc14610352578063095ea7b3146103bf5780630a0f81681461040c57806318160ddd146104635780631897bcf31461048e5780631f513660146104c557806323b872dd1461051c57806327d7874c146105895780632f745c59146105cc5780633f4ba83a1461062d57806342842e0e146106445780634e0a3379146106b15780634f558e79146106f45780634f6ccce7146107395780635c975abb146107815780635cf4ee91146107b05780635f8a90f2146107fb5780635fd8c7101461083c578063624de3d9146108535780636352211e146108bc57806370a08231146109295780638456cb5914610980578063857d45f81461099757806385d87b2b14610a12578063942a846714610a775780639575e96214610b1357806395d89b4114610b40578063a22cb46514610bd0578063b88d4fde14610c1f578063c054ab7514610cd2578063d176dd4514610d55578063de2e4f8f14610da0578063e985e9c514610de1578063fe1439b414610e5c575b600080fd5b3480156101e957600080fd5b5061022760048036038101908080357bffffffffffffffffffffffffffffffffffffffffffffffffffffffff19169060200190929190505050610e9f565b604051808215151515815260200191505060405180910390f35b34801561024d57600080fd5b50610256610fe2565b604051808273ffffffffffffffffffffffffffffffffffffffff1673ffffffffffffffffffffffffffffffffffffffff16815260200191505060405180910390f35b6102c06004803603810190808035906020019092919080359060200190929190505050611008565b005b3480156102ce57600080fd5b506102d7611028565b6040518080602001828103825283818151815260200191508051906020019080838360005b838110156103175780820151818401526020810190506102fc565b50505050905090810190601f1680156103445780820380516001836020036101000a031916815260200191505b509250505060405180910390f35b34801561035e57600080fd5b5061037d600480360381019080803590602001909291905050506110c6565b604051808273ffffffffffffffffffffffffffffffffffffffff1673ffffffffffffffffffffffffffffffffffffffff16815260200191505060405180910390f35b3480156103cb57600080fd5b5061040a600480360381019080803573ffffffffffffffffffffffffffffffffffffffff16906020019092919080359060200190929190505050611103565b005b34801561041857600080fd5b506104216112db565b604051808273ffffffffffffffffffffffffffffffffffffffff1673ffffffffffffffffffffffffffffffffffffffff16815260200191505060405180910390f35b34801561046f57600080fd5b50610478611300565b6040518082815260200191505060405180910390f35b34801561049a57600080fd5b506104c3600480360381019080803590602001909291908035906020019092919050505061130d565b005b3480156104d157600080fd5b506104da611480565b604051808273ffffffffffffffffffffffffffffffffffffffff1673ffffffffffffffffffffffffffffffffffffffff16815260200191505060405180910390f35b34801561052857600080fd5b50610587600480360381019080803573ffffffffffffffffffffffffffffffffffffffff169060200190929190803573ffffffffffffffffffffffffffffffffffffffff169060200190929190803590602001909291905050506114a6565b005b34801561059557600080fd5b506105ca600480360381019080803573ffffffffffffffffffffffffffffffffffffffff1690602001909291905050506115cf565b005b3480156105d857600080fd5b50610617600480360381019080803573ffffffffffffffffffffffffffffffffffffffff169060200190929190803590602001909291905050506116a9565b6040518082815260200191505060405180910390f35b34801561063957600080fd5b50610642611720565b005b34801561065057600080fd5b506106af600480360381019080803573ffffffffffffffffffffffffffffffffffffffff169060200190929190803573ffffffffffffffffffffffffffffffffffffffff169060200190929190803590602001909291905050506117b3565b005b3480156106bd57600080fd5b506106f2600480360381019080803573ffffffffffffffffffffffffffffffffffffffff169060200190929190505050611807565b005b34801561070057600080fd5b5061071f600480360381019080803590602001909291905050506118e2565b604051808215151515815260200191505060405180910390f35b34801561074557600080fd5b5061076460048036038101908080359060200190929190505050611954565b604051808381526020018281526020019250505060405180910390f35b34801561078d57600080fd5b506107966119fd565b604051808215151515815260200191505060405180910390f35b3480156107bc57600080fd5b506107e56004803603810190808035906020019092919080359060200190929190505050611a10565b6040518082815260200191505060405180910390f35b34801561080757600080fd5b5061082660048036038101908080359060200190929190505050611ab9565b6040518082815260200191505060405180910390f35b34801561084857600080fd5b50610851611ad1565b005b34801561085f57600080fd5b50610868611baf565b60405180827bffffffffffffffffffffffffffffffffffffffffffffffffffffffff19167bffffffffffffffffffffffffffffffffffffffffffffffffffffffff1916815260200191505060405180910390f35b3480156108c857600080fd5b506108e760048036038101908080359060200190929190505050611bf2565b604051808273ffffffffffffffffffffffffffffffffffffffff1673ffffffffffffffffffffffffffffffffffffffff16815260200191505060405180910390f35b34801561093557600080fd5b5061096a600480360381019080803573ffffffffffffffffffffffffffffffffffffffff169060200190929190505050611c6b565b6040518082815260200191505060405180910390f35b34801561098c57600080fd5b50610995611cef565b005b3480156109a357600080fd5b506109c260048036038101908080359060200190929190505050611d83565b604051808473ffffffffffffffffffffffffffffffffffffffff1673ffffffffffffffffffffffffffffffffffffffff168152602001838152602001828152602001935050505060405180910390f35b348015610a1e57600080fd5b50610a3d60048036038101908080359060200190929190505050611df0565b60405180826fffffffffffffffffffffffffffffffff166fffffffffffffffffffffffffffffffff16815260200191505060405180910390f35b610b116004803603810190808035906020019082018035906020019080806020026020016040519081016040528093929190818152602001838360200280828437820191505050505050919291929080359060200190820180359060200190808060200260200160405190810160405280939291908181526020018383602002808284378201915050505050509192919290505050611e1f565b005b348015610b1f57600080fd5b50610b3e600480360381019080803590602001909291905050506121b6565b005b348015610b4c57600080fd5b50610b556122e6565b6040518080602001828103825283818151815260200191508051906020019080838360005b83811015610b95578082015181840152602081019050610b7a565b50505050905090810190601f168015610bc25780820380516001836020036101000a031916815260200191505b509250505060405180910390f35b348015610bdc57600080fd5b50610c1d600480360381019080803573ffffffffffffffffffffffffffffffffffffffff169060200190929190803515159060200190929190505050612384565b005b348015610c2b57600080fd5b50610cd0600480360381019080803573ffffffffffffffffffffffffffffffffffffffff169060200190929190803573ffffffffffffffffffffffffffffffffffffffff16906020019092919080359060200190929190803590602001908201803590602001908080601f01602080910402602001604051908101604052809392919081815260200183838082843782019150505050505091929192905050506124dc565b005b348015610cde57600080fd5b50610cfd60048036038101908080359060200190929190505050612537565b604051808473ffffffffffffffffffffffffffffffffffffffff1673ffffffffffffffffffffffffffffffffffffffff1681526020018361ffff1661ffff168152602001828152602001935050505060405180910390f35b348015610d6157600080fd5b50610d9e6004803603810190808035906020019092919080359060200190929190803590602001909291908035906020019092919050505061258f565b005b348015610dac57600080fd5b50610dcb60048036038101908080359060200190929190505050612673565b6040518082815260200191505060405180910390f35b348015610ded57600080fd5b50610e42600480360381019080803573ffffffffffffffffffffffffffffffffffffffff169060200190929190803573ffffffffffffffffffffffffffffffffffffffff16906020019092919050505061268b565b604051808215151515815260200191505060405180910390f35b348015610e6857600080fd5b50610e9d600480360381019080803573ffffffffffffffffffffffffffffffffffffffff16906020019092919050505061271f565b005b60006301ffc9a77c0100000000000000000000000000000000000000000000000000000000027bffffffffffffffffffffffffffffffffffffffffffffffffffffffff1916827bffffffffffffffffffffffffffffffffffffffffffffffffffffffff19161480610f7057506380ac58cd7c0100000000000000000000000000000000000000000000000000000000027bffffffffffffffffffffffffffffffffffffffffffffffffffffffff1916827bffffffffffffffffffffffffffffffffffffffffffffffffffffffff1916145b80610fdb575063780e9d637c0100000000000000000000000000000000000000000000000000000000027bffffffffffffffffffffffffffffffffffffffffffffffffffffffff1916827bffffffffffffffffffffffffffffffffffffffffffffffffffffffff1916145b9050919050565b600160009054906101000a900473ffffffffffffffffffffffffffffffffffffffff1681565b600260149054906101000a900460ff1615151561102457600080fd5b5050565b60098054600181600116156101000203166002900480601f0160208091040260200160405190810160405280929190818152602001828054600181600116156101000203166002900480156110be5780601f10611093576101008083540402835291602001916110be565b820191906000526020600020905b8154815290600101906020018083116110a157829003601f168201915b505050505081565b60006005600083815260200190815260200160002060009054906101000a900473ffffffffffffffffffffffffffffffffffffffff169050919050565b6000600260149054906101000a900460ff1615151561112157600080fd5b61112a82611bf2565b90508073ffffffffffffffffffffffffffffffffffffffff168373ffffffffffffffffffffffffffffffffffffffff161415151561116757600080fd5b8073ffffffffffffffffffffffffffffffffffffffff163373ffffffffffffffffffffffffffffffffffffffff1614806111a757506111a6813361268b565b5b15156111b257600080fd5b600073ffffffffffffffffffffffffffffffffffffffff166111d3836110c6565b73ffffffffffffffffffffffffffffffffffffffff161415806112235750600073ffffffffffffffffffffffffffffffffffffffff168373ffffffffffffffffffffffffffffffffffffffff1614155b156112d657826005600084815260200190815260200160002060006101000a81548173ffffffffffffffffffffffffffffffffffffffff021916908373ffffffffffffffffffffffffffffffffffffffff160217905550818373ffffffffffffffffffffffffffffffffffffffff168273ffffffffffffffffffffffffffffffffffffffff167f8c5be1e5ebec7d5bd14f71427d1e84f3dd0314c0f7b2291e5b200ac8c7c3b92560405160405180910390a45b505050565b6000809054906101000a900473ffffffffffffffffffffffffffffffffffffffff1681565b6000600380549050905090565b611315612eaf565b600260149054906101000a900460ff1615151561133157600080fd5b61133b33846127fa565b6113453384612959565b6060604051908101604052803373ffffffffffffffffffffffffffffffffffffffff1681526020018361ffff16815260200142815250905080600d600085815260200190815260200160002060008201518160000160006101000a81548173ffffffffffffffffffffffffffffffffffffffff021916908373ffffffffffffffffffffffffffffffffffffffff16021790555060208201518160000160146101000a81548161ffff021916908361ffff160217905550604082015181600101559050507fa29262303591d48ce94646a46b652916ce782073349bb5dc261ac4c5237d9397833384604051808481526020018373ffffffffffffffffffffffffffffffffffffffff1673ffffffffffffffffffffffffffffffffffffffff168152602001828152602001935050505060405180910390a1505050565b600260009054906101000a900473ffffffffffffffffffffffffffffffffffffffff1681565b806114b13382612a88565b15156114bc57600080fd5b600260149054906101000a900460ff161515156114d857600080fd5b600073ffffffffffffffffffffffffffffffffffffffff168473ffffffffffffffffffffffffffffffffffffffff161415151561151457600080fd5b600073ffffffffffffffffffffffffffffffffffffffff168373ffffffffffffffffffffffffffffffffffffffff161415151561155057600080fd5b61155a84836127fa565b6115648483612959565b61156e8383612b1d565b818373ffffffffffffffffffffffffffffffffffffffff168573ffffffffffffffffffffffffffffffffffffffff167fddf252ad1be2c89b69c2b068fc378daa952ba7f163c4a11628f55a4df523b3ef60405160405180910390a450505050565b6000809054906101000a900473ffffffffffffffffffffffffffffffffffffffff1673ffffffffffffffffffffffffffffffffffffffff163373ffffffffffffffffffffffffffffffffffffffff1614151561162a57600080fd5b600073ffffffffffffffffffffffffffffffffffffffff168173ffffffffffffffffffffffffffffffffffffffff161415151561166657600080fd5b806000806101000a81548173ffffffffffffffffffffffffffffffffffffffff021916908373ffffffffffffffffffffffffffffffffffffffff16021790555050565b60006116b483611c6b565b821015156116c157600080fd5b600760008473ffffffffffffffffffffffffffffffffffffffff1673ffffffffffffffffffffffffffffffffffffffff1681526020019081526020016000208281548110151561170d57fe5b9060005260206000200154905092915050565b6000809054906101000a900473ffffffffffffffffffffffffffffffffffffffff1673ffffffffffffffffffffffffffffffffffffffff163373ffffffffffffffffffffffffffffffffffffffff1614151561177b57600080fd5b600260149054906101000a900460ff16151561179657600080fd5b6000600260146101000a81548160ff021916908315150217905550565b806117be3382612a88565b15156117c957600080fd5b600260149054906101000a900460ff161515156117e557600080fd5b61180184848460206040519081016040528060008152506124dc565b50505050565b6000809054906101000a900473ffffffffffffffffffffffffffffffffffffffff1673ffffffffffffffffffffffffffffffffffffffff163373ffffffffffffffffffffffffffffffffffffffff1614151561186257600080fd5b600073ffffffffffffffffffffffffffffffffffffffff168173ffffffffffffffffffffffffffffffffffffffff161415151561189e57600080fd5b80600160006101000a81548173ffffffffffffffffffffffffffffffffffffffff021916908373ffffffffffffffffffffffffffffffffffffffff16021790555050565b6000806004600084815260200190815260200160002060009054906101000a900473ffffffffffffffffffffffffffffffffffffffff169050600073ffffffffffffffffffffffffffffffffffffffff168173ffffffffffffffffffffffffffffffffffffffff161415915050919050565b60008061195f611300565b8310151561196c57600080fd5b60038381548110151561197b57fe5b906000526020600020906002020160010160009054906101000a90046fffffffffffffffffffffffffffffffff166fffffffffffffffffffffffffffffffff166003848154811015156119ca57fe5b9060005260206000209060020201600101601a9054906101000a900460ff1660028111156119f457fe5b91509150915091565b600260149054906101000a900460ff1681565b600080600c600084815260200190815260200160002060008581526020019081526020016000209050611ab08160000160109054906101000a90046fffffffffffffffffffffffffffffffff166fffffffffffffffffffffffffffffffff168260000160009054906101000a90046fffffffffffffffffffffffffffffffff166fffffffffffffffffffffffffffffffff16612c7790919063ffffffff16565b91505092915050565b600f6020528060005260406000206000915090505481565b600160009054906101000a900473ffffffffffffffffffffffffffffffffffffffff1673ffffffffffffffffffffffffffffffffffffffff163373ffffffffffffffffffffffffffffffffffffffff16141515611b2d57600080fd5b600160009054906101000a900473ffffffffffffffffffffffffffffffffffffffff1673ffffffffffffffffffffffffffffffffffffffff166108fc3073ffffffffffffffffffffffffffffffffffffffff16319081150290604051600060405180830381858888f19350505050158015611bac573d6000803e3d6000fd5b50565b7fffffffffffffffffffffffffffffffffffffffffffffffffffffffffb0aa71877c01000000000000000000000000000000000000000000000000000000000281565b60006004600083815260200190815260200160002060009054906101000a900473ffffffffffffffffffffffffffffffffffffffff169050600073ffffffffffffffffffffffffffffffffffffffff168173ffffffffffffffffffffffffffffffffffffffff1614151515611c6657600080fd5b919050565b60008073ffffffffffffffffffffffffffffffffffffffff168273ffffffffffffffffffffffffffffffffffffffff1614151515611ca857600080fd5b600660008373ffffffffffffffffffffffffffffffffffffffff1673ffffffffffffffffffffffffffffffffffffffff168152602001908152602001600020549050919050565b6000809054906101000a900473ffffffffffffffffffffffffffffffffffffffff1673ffffffffffffffffffffffffffffffffffffffff163373ffffffffffffffffffffffffffffffffffffffff16141515611d4a57600080fd5b600260149054906101000a900460ff16151515611d6657600080fd5b6001600260146101000a81548160ff021916908315150217905550565b600080600080600d600086815260200190815260200160002090508060000160009054906101000a900473ffffffffffffffffffffffffffffffffffffffff168160000160149054906101000a900461ffff1682600101548161ffff169150935093509350509193909250565b60106020528060005260406000206000915054906101000a90046fffffffffffffffffffffffffffffffff1681565b6000806000600260149054906101000a900460ff16151515611e4057600080fd5b600092505b84518361ffff1610156121af57600d6000868561ffff16815181101515611e6857fe5b9060200190602002015181526020019081526020016000209150611ebd848461ffff16815181101515611e9757fe5b906020019060200201518360000160149054906101000a900461ffff1661ffff16611a10565b9050803410151515611ece57600080fd5b611ef333868561ffff16815181101515611ee457fe5b90602001906020020151612b1d565b8160000160009054906101000a900473ffffffffffffffffffffffffffffffffffffffff1673ffffffffffffffffffffffffffffffffffffffff166108fc606460628402811515611f4057fe5b049081150290604051600060405180830381858888f19350505050158015611f6c573d6000803e3d6000fd5b50600d6000868561ffff16815181101515611f8357fe5b906020019060200201518152602001908152602001600020600080820160006101000a81549073ffffffffffffffffffffffffffffffffffffffff02191690556000820160146101000a81549061ffff021916905560018201600090555050612010848461ffff16815181101515611ff757fe5b9060200190602002015142612c7790919063ffffffff16565b600e6000878661ffff1681518110151561202657fe5b9060200190602002015181526020019081526020016000208190555042600f6000878661ffff1681518110151561205957fe5b906020019060200201518152602001908152602001600020819055508060106000878661ffff1681518110151561208c57fe5b90602001906020020151815260200190815260200160002060006101000a8154816fffffffffffffffffffffffffffffffff02191690836fffffffffffffffffffffffffffffffff1602179055507fbaff7966f0758b1794fcea83b6d60c741b6fe4ab1b2431d4353784f68551d156858461ffff1681518110151561210d57fe5b906020019060200201518360000160009054906101000a900473ffffffffffffffffffffffffffffffffffffffff168460000160149054906101000a900461ffff16604051808481526020018373ffffffffffffffffffffffffffffffffffffffff1673ffffffffffffffffffffffffffffffffffffffff1681526020018261ffff168152602001935050505060405180910390a18280600101935050611e45565b5050505050565b6000600260149054906101000a900460ff161515156121d457600080fd5b600d600083815260200190815260200160002090508060000160009054906101000a900473ffffffffffffffffffffffffffffffffffffffff1673ffffffffffffffffffffffffffffffffffffffff163373ffffffffffffffffffffffffffffffffffffffff1614151561224757600080fd5b600d6000838152602001908152602001600020600080820160006101000a81549073ffffffffffffffffffffffffffffffffffffffff02191690556000820160146101000a81549061ffff0219169055600182016000905550506122ab3383612b1d565b7f2c56893f6f6026d19bd17b7d05c9f15c522de1ae2b1c3a825f91a73c799321f2826040518082815260200191505060405180910390a15050565b600a8054600181600116156101000203166002900480601f01602080910402602001604051908101604052809291908181526020018280546001816001161561010002031660029004801561237c5780601f106123515761010080835404028352916020019161237c565b820191906000526020600020905b81548152906001019060200180831161235f57829003601f168201915b505050505081565b600260149054906101000a900460ff161515156123a057600080fd5b3373ffffffffffffffffffffffffffffffffffffffff168273ffffffffffffffffffffffffffffffffffffffff16141515156123db57600080fd5b80600860003373ffffffffffffffffffffffffffffffffffffffff1673ffffffffffffffffffffffffffffffffffffffff16815260200190815260200160002060008473ffffffffffffffffffffffffffffffffffffffff1673ffffffffffffffffffffffffffffffffffffffff16815260200190815260200160002060006101000a81548160ff0219169083151502179055508173ffffffffffffffffffffffffffffffffffffffff163373ffffffffffffffffffffffffffffffffffffffff167f17307eab39ab6107e8899845ad3d59bd9653f200f220920489ca2b5937696c3183604051808215151515815260200191505060405180910390a35050565b816124e73382612a88565b15156124f257600080fd5b600260149054906101000a900460ff1615151561250e57600080fd5b6125198585856114a6565b61252585858585612c95565b151561253057600080fd5b5050505050565b600d6020528060005260406000206000915090508060000160009054906101000a900473ffffffffffffffffffffffffffffffffffffffff16908060000160149054906101000a900461ffff16908060010154905083565b6040805190810160405280836fffffffffffffffffffffffffffffffff168152602001826fffffffffffffffffffffffffffffffff16815250600c6000868152602001908152602001600020600085815260200190815260200160002060008201518160000160006101000a8154816fffffffffffffffffffffffffffffffff02191690836fffffffffffffffffffffffffffffffff16021790555060208201518160000160106101000a8154816fffffffffffffffffffffffffffffffff02191690836fffffffffffffffffffffffffffffffff16021790555090505050505050565b600e6020528060005260406000206000915090505481565b6000600860008473ffffffffffffffffffffffffffffffffffffffff1673ffffffffffffffffffffffffffffffffffffffff16815260200190815260200160002060008373ffffffffffffffffffffffffffffffffffffffff1673ffffffffffffffffffffffffffffffffffffffff16815260200190815260200160002060009054906101000a900460ff16905092915050565b6000809054906101000a900473ffffffffffffffffffffffffffffffffffffffff1673ffffffffffffffffffffffffffffffffffffffff163373ffffffffffffffffffffffffffffffffffffffff1614151561277a57600080fd5b600073ffffffffffffffffffffffffffffffffffffffff168173ffffffffffffffffffffffffffffffffffffffff16141515156127b657600080fd5b80600260006101000a81548173ffffffffffffffffffffffffffffffffffffffff021916908373ffffffffffffffffffffffffffffffffffffffff16021790555050565b8173ffffffffffffffffffffffffffffffffffffffff1661281a82611bf2565b73ffffffffffffffffffffffffffffffffffffffff1614151561283c57600080fd5b600073ffffffffffffffffffffffffffffffffffffffff166005600083815260200190815260200160002060009054906101000a900473ffffffffffffffffffffffffffffffffffffffff1673ffffffffffffffffffffffffffffffffffffffff161415156129555760006005600083815260200190815260200160002060006101000a81548173ffffffffffffffffffffffffffffffffffffffff021916908373ffffffffffffffffffffffffffffffffffffffff16021790555080600073ffffffffffffffffffffffffffffffffffffffff168373ffffffffffffffffffffffffffffffffffffffff167f8c5be1e5ebec7d5bd14f71427d1e84f3dd0314c0f7b2291e5b200ac8c7c3b92560405160405180910390a45b5050565b8173ffffffffffffffffffffffffffffffffffffffff1661297982611bf2565b73ffffffffffffffffffffffffffffffffffffffff1614151561299b57600080fd5b6129ee6001600660008573ffffffffffffffffffffffffffffffffffffffff1673ffffffffffffffffffffffffffffffffffffffff16815260200190815260200160002054612e8390919063ffffffff16565b600660008473ffffffffffffffffffffffffffffffffffffffff1673ffffffffffffffffffffffffffffffffffffffff1681526020019081526020016000208190555060006004600083815260200190815260200160002060006101000a81548173ffffffffffffffffffffffffffffffffffffffff021916908373ffffffffffffffffffffffffffffffffffffffff1602179055505050565b600080612a9483611bf2565b90508073ffffffffffffffffffffffffffffffffffffffff168473ffffffffffffffffffffffffffffffffffffffff161480612b0357508373ffffffffffffffffffffffffffffffffffffffff16612aeb846110c6565b73ffffffffffffffffffffffffffffffffffffffff16145b80612b145750612b13818561268b565b5b91505092915050565b600073ffffffffffffffffffffffffffffffffffffffff166004600083815260200190815260200160002060009054906101000a900473ffffffffffffffffffffffffffffffffffffffff1673ffffffffffffffffffffffffffffffffffffffff16141515612b8b57600080fd5b816004600083815260200190815260200160002060006101000a81548173ffffffffffffffffffffffffffffffffffffffff021916908373ffffffffffffffffffffffffffffffffffffffff160217905550612c306001600660008573ffffffffffffffffffffffffffffffffffffffff1673ffffffffffffffffffffffffffffffffffffffff16815260200190815260200160002054612c7790919063ffffffff16565b600660008473ffffffffffffffffffffffffffffffffffffffff1673ffffffffffffffffffffffffffffffffffffffff168152602001908152602001600020819055505050565b6000808284019050838110151515612c8b57fe5b8091505092915050565b600080612cb78573ffffffffffffffffffffffffffffffffffffffff16612e9c565b1515612cc65760019150612e7a565b8473ffffffffffffffffffffffffffffffffffffffff1663f0b9e5ba8786866040518463ffffffff167c0100000000000000000000000000000000000000000000000000000000028152600401808473ffffffffffffffffffffffffffffffffffffffff1673ffffffffffffffffffffffffffffffffffffffff16815260200183815260200180602001828103825283818151815260200191508051906020019080838360005b83811015612d88578082015181840152602081019050612d6d565b50505050905090810190601f168015612db55780820380516001836020036101000a031916815260200191505b50945050505050602060405180830381600087803b158015612dd657600080fd5b505af1158015612dea573d6000803e3d6000fd5b505050506040513d6020811015612e0057600080fd5b8101908080519060200190929190505050905063f0b9e5ba7c0100000000000000000000000000000000000000000000000000000000027bffffffffffffffffffffffffffffffffffffffffffffffffffffffff1916817bffffffffffffffffffffffffffffffffffffffffffffffffffffffff19161491505b50949350505050565b6000828211151515612e9157fe5b818303905092915050565b600080823b905060008111915050919050565b606060405190810160405280600073ffffffffffffffffffffffffffffffffffffffff168152602001600061ffff1681526020016000815250905600a165627a7a72305820ff901133b9001644d0a1c2c7fff82693332e5d57525a7548c9cd9a74df6b5ea70029",
  "source": "pragma solidity ^0.4.23;\nimport \"./MineorityOwnership.sol\";\n\ncontract MineorityTrading is MineorityOwnership {\n\n    struct SaleLot {\n        address seller;\n        uint16 GPUClass;\n        uint256 creationTime;\n    }\n\n    struct GPUPrice {\n        uint128 GPUPrice;\n        uint128 hostingPrice;\n    }\n\n    //---STORAGE---//\n    uint128 rate; \n    \n    mapping (uint256 => mapping(uint256 => GPUPrice)) internal gpuClassToYearToPrice;\n\n    mapping (uint256 => SaleLot) public tokenIndexToSaleLot;\n\n    mapping (uint256 => uint256) public tokenIndexToHostingPeriod;\n    \n    mapping (uint256 => uint256) public tokenIndexToPurchaseDate;\n\n    mapping (uint256 => uint128) public tokenIndexToPurchasePrice;\n\n    event SaleCreated(uint256 tokenId,address seller,uint256 GPUClass);\n    event SaleClosed(uint256 tokenId,address seller,uint256 GPUClass);\n    event SaleCancelled(uint256 tokenId);\n    \n\n    function sellToken(uint256 _tokenId,uint256 _GPUClass) public whenNotPaused {\n        clearApproval(msg.sender,_tokenId);\n        removeTokenFrom(msg.sender,_tokenId);\n\n        SaleLot memory lot = SaleLot({\n            seller: msg.sender,\n            GPUClass: uint16(_GPUClass),\n            creationTime: now\n        });\n\n        tokenIndexToSaleLot[_tokenId] = lot;\n\n        emit SaleCreated(_tokenId, msg.sender, _GPUClass);\n    }\n\n    function buyTokens(uint256[] _tokenIds,uint256[] _hostingPeriods) public payable whenNotPaused {\n        // id = allTokens.length might solve one problem, look in tulips\n        for(uint16 i = 0;i < _tokenIds.length;i++) {\n            SaleLot storage lot = tokenIndexToSaleLot[_tokenIds[i]];\n\n            uint256 price = getPrice(_hostingPeriods[i],lot.GPUClass);\n\n            require(msg.value >= price);\n            \n            addTokenTo(msg.sender, _tokenIds[i]);\n\n            lot.seller.transfer((price * 98)/100);\n\n            delete tokenIndexToSaleLot[_tokenIds[i]];\n\n            tokenIndexToHostingPeriod[_tokenIds[i]] = now.add(_hostingPeriods[i]);\n            tokenIndexToPurchaseDate[_tokenIds[i]] = now;\n            tokenIndexToPurchasePrice[_tokenIds[i]] = uint128(price);\n            \n\n            emit SaleClosed(_tokenIds[i],lot.seller,lot.GPUClass);\n        }\n    }\n\n    function buyToken(uint256 _tokenId,uint256 _hostingPeriod) public payable whenNotPaused {\n        // SaleLot storage lot = tokenIndexToSaleLot[_tokenId];\n        // require(lot.seller != address(0));\n        // uint256 price = getPrice(_hostingPeriod,lot.GPUClass);\n        // require(price != 0);\n        // require(price == 0);\n        // require(0 != 0);\n\n        // require(msg.value >= price);\n\n        // addTokenTo(msg.sender, _tokenId);\n        // //2% we will leave for ourselves\n        // lot.seller.transfer((price * 98)/100);\n\n        // delete tokenIndexToSaleLot[_tokenId];\n\n        // tokenIndexToHostingPeriod[_tokenId] = now.add(_hostingPeriod);\n        // tokenIndexToPurchaseDate[_tokenId] = now;\n        // tokenIndexToPurchasePrice[_tokenId] = uint128(price);\n\n        // emit SaleClosed(_tokenId,lot.seller,lot.GPUClass);\n    }\n\n    //* Returns price for any particular GPU with hosting price\n    function getPrice(uint256 _hostingPeriod,uint256 _GPUClass) public view returns(uint256 price) {\n        \n        GPUPrice storage pricing = gpuClassToYearToPrice[_GPUClass][_hostingPeriod]; \n\n        return pricing.GPUPrice.add(pricing.hostingPrice);\n    }\n\n    //* Setter for price of every available GPU, only for CTO\n    function setPrice(uint256 _GPUClass,uint256 _hostingPeriod,uint256 _GPUPrice,uint256 _hostingPrice) public /*onlyCTO*/ {\n        gpuClassToYearToPrice[_GPUClass][_hostingPeriod] = GPUPrice({\n            GPUPrice: uint128(_GPUPrice),\n            hostingPrice: uint128(_hostingPrice)\n        });\n    }\n\n    //* Removes token from sale, requires sender to be seller\n    function removeSaleLot(uint256 _tokenId) public whenNotPaused {\n        SaleLot storage lot = tokenIndexToSaleLot[_tokenId];\n        require(msg.sender == lot.seller);\n\n        delete tokenIndexToSaleLot[_tokenId];\n        addTokenTo(msg.sender, _tokenId);\n\n        emit SaleCancelled(_tokenId);\n    }\n\n    //* Returns all information about chosen by tokenID Sale lot\n    function getSaleLot(uint256 _tokenId) public view returns (address,uint256,uint256) {\n        SaleLot storage lot = tokenIndexToSaleLot[_tokenId];\n\n        return (\n            lot.seller,\n            lot.GPUClass,\n            lot.creationTime );\n    }\n}\n",
  "sourcePath": "/home/andrew/Projects/truffleTest/wemine/contracts/MineorityTrading.sol",
  "compiler": {
    "name": "solc",
    "version": "0.4.23+commit.124ca40d.Emscripten.clang"
  },
  "schemaVersion": "1.0.1",
  "updatedAt": "2018-05-25T08:09:14.013Z"
}