{
  "contractName": "MineorityCore",
  "abi": [
    {
      "constant": true,
      "inputs": [
        {
          "name": "_interfaceID",
          "type": "bytes4"
        }
      ],
      "name": "supportsInterface",
      "outputs": [
        {
          "name": "",
          "type": "bool"
        }
      ],
      "payable": false,
      "stateMutability": "pure",
      "type": "function"
    },
    {
      "constant": true,
      "inputs": [],
      "name": "cfoAddress",
      "outputs": [
        {
          "name": "",
          "type": "address"
        }
      ],
      "payable": false,
      "stateMutability": "view",
      "type": "function"
    },
    {
      "constant": false,
      "inputs": [
        {
          "name": "_tokenId",
          "type": "uint256"
        },
        {
          "name": "_hostingPeriod",
          "type": "uint256"
        }
      ],
      "name": "buyToken",
      "outputs": [],
      "payable": true,
      "stateMutability": "payable",
      "type": "function"
    },
    {
      "constant": true,
      "inputs": [],
      "name": "name",
      "outputs": [
        {
          "name": "",
          "type": "string"
        }
      ],
      "payable": false,
      "stateMutability": "view",
      "type": "function"
    },
    {
      "constant": true,
      "inputs": [
        {
          "name": "_tokenId",
          "type": "uint256"
        }
      ],
      "name": "getApproved",
      "outputs": [
        {
          "name": "",
          "type": "address"
        }
      ],
      "payable": false,
      "stateMutability": "view",
      "type": "function"
    },
    {
      "constant": false,
      "inputs": [
        {
          "name": "_to",
          "type": "address"
        },
        {
          "name": "_tokenId",
          "type": "uint256"
        }
      ],
      "name": "approve",
      "outputs": [],
      "payable": false,
      "stateMutability": "nonpayable",
      "type": "function"
    },
    {
      "constant": true,
      "inputs": [],
      "name": "ceoAddress",
      "outputs": [
        {
          "name": "",
          "type": "address"
        }
      ],
      "payable": false,
      "stateMutability": "view",
      "type": "function"
    },
    {
      "constant": true,
      "inputs": [],
      "name": "totalSupply",
      "outputs": [
        {
          "name": "",
          "type": "uint256"
        }
      ],
      "payable": false,
      "stateMutability": "view",
      "type": "function"
    },
    {
      "constant": false,
      "inputs": [
        {
          "name": "_tokenId",
          "type": "uint256"
        },
        {
          "name": "_GPUClass",
          "type": "uint256"
        }
      ],
      "name": "sellToken",
      "outputs": [],
      "payable": false,
      "stateMutability": "nonpayable",
      "type": "function"
    },
    {
      "constant": true,
      "inputs": [],
      "name": "ctoAddress",
      "outputs": [
        {
          "name": "",
          "type": "address"
        }
      ],
      "payable": false,
      "stateMutability": "view",
      "type": "function"
    },
    {
      "constant": false,
      "inputs": [
        {
          "name": "_from",
          "type": "address"
        },
        {
          "name": "_to",
          "type": "address"
        },
        {
          "name": "_tokenId",
          "type": "uint256"
        }
      ],
      "name": "transferFrom",
      "outputs": [],
      "payable": false,
      "stateMutability": "nonpayable",
      "type": "function"
    },
    {
      "constant": false,
      "inputs": [],
      "name": "withdrawFunds",
      "outputs": [],
      "payable": false,
      "stateMutability": "nonpayable",
      "type": "function"
    },
    {
      "constant": false,
      "inputs": [
        {
          "name": "_newCEO",
          "type": "address"
        }
      ],
      "name": "setCEO",
      "outputs": [],
      "payable": false,
      "stateMutability": "nonpayable",
      "type": "function"
    },
    {
      "constant": true,
      "inputs": [
        {
          "name": "_owner",
          "type": "address"
        },
        {
          "name": "_index",
          "type": "uint256"
        }
      ],
      "name": "tokenOfOwnerByIndex",
      "outputs": [
        {
          "name": "",
          "type": "uint256"
        }
      ],
      "payable": false,
      "stateMutability": "view",
      "type": "function"
    },
    {
      "constant": true,
      "inputs": [
        {
          "name": "_tokenId",
          "type": "uint256"
        },
        {
          "name": "_hostingPeriod",
          "type": "uint256"
        },
        {
          "name": "_GPUClass",
          "type": "uint256"
        }
      ],
      "name": "getPrice",
      "outputs": [
        {
          "name": "price",
          "type": "uint256"
        }
      ],
      "payable": false,
      "stateMutability": "view",
      "type": "function"
    },
    {
      "constant": false,
      "inputs": [],
      "name": "unpause",
      "outputs": [],
      "payable": false,
      "stateMutability": "nonpayable",
      "type": "function"
    },
    {
      "constant": false,
      "inputs": [
        {
          "name": "_from",
          "type": "address"
        },
        {
          "name": "_to",
          "type": "address"
        },
        {
          "name": "_tokenId",
          "type": "uint256"
        }
      ],
      "name": "safeTransferFrom",
      "outputs": [],
      "payable": false,
      "stateMutability": "nonpayable",
      "type": "function"
    },
    {
      "constant": false,
      "inputs": [
        {
          "name": "_newCFO",
          "type": "address"
        }
      ],
      "name": "setCFO",
      "outputs": [],
      "payable": false,
      "stateMutability": "nonpayable",
      "type": "function"
    },
    {
      "constant": true,
      "inputs": [
        {
          "name": "_tokenId",
          "type": "uint256"
        }
      ],
      "name": "exists",
      "outputs": [
        {
          "name": "",
          "type": "bool"
        }
      ],
      "payable": false,
      "stateMutability": "view",
      "type": "function"
    },
    {
      "constant": true,
      "inputs": [
        {
          "name": "_index",
          "type": "uint256"
        }
      ],
      "name": "tokenByIndex",
      "outputs": [
        {
          "name": "",
          "type": "uint256"
        },
        {
          "name": "",
          "type": "uint256"
        }
      ],
      "payable": false,
      "stateMutability": "view",
      "type": "function"
    },
    {
      "constant": true,
      "inputs": [],
      "name": "paused",
      "outputs": [
        {
          "name": "",
          "type": "bool"
        }
      ],
      "payable": false,
      "stateMutability": "view",
      "type": "function"
    },
    {
      "constant": true,
      "inputs": [
        {
          "name": "",
          "type": "uint256"
        }
      ],
      "name": "tokenIndexToPurchaseDate",
      "outputs": [
        {
          "name": "",
          "type": "uint256"
        }
      ],
      "payable": false,
      "stateMutability": "view",
      "type": "function"
    },
    {
      "constant": false,
      "inputs": [],
      "name": "withdrawBalance",
      "outputs": [],
      "payable": false,
      "stateMutability": "nonpayable",
      "type": "function"
    },
    {
      "constant": false,
      "inputs": [
        {
          "name": "_owner",
          "type": "address"
        },
        {
          "name": "_tokenId",
          "type": "uint256"
        }
      ],
      "name": "_burn",
      "outputs": [],
      "payable": false,
      "stateMutability": "nonpayable",
      "type": "function"
    },
    {
      "constant": true,
      "inputs": [],
      "name": "InterfaceSignature_ERC721Optional",
      "outputs": [
        {
          "name": "",
          "type": "bytes4"
        }
      ],
      "payable": false,
      "stateMutability": "view",
      "type": "function"
    },
    {
      "constant": true,
      "inputs": [
        {
          "name": "_tokenId",
          "type": "uint256"
        }
      ],
      "name": "ownerOf",
      "outputs": [
        {
          "name": "owner",
          "type": "address"
        }
      ],
      "payable": false,
      "stateMutability": "view",
      "type": "function"
    },
    {
      "constant": true,
      "inputs": [
        {
          "name": "_owner",
          "type": "address"
        }
      ],
      "name": "balanceOf",
      "outputs": [
        {
          "name": "count",
          "type": "uint256"
        }
      ],
      "payable": false,
      "stateMutability": "view",
      "type": "function"
    },
    {
      "constant": false,
      "inputs": [],
      "name": "pause",
      "outputs": [],
      "payable": false,
      "stateMutability": "nonpayable",
      "type": "function"
    },
    {
      "constant": true,
      "inputs": [
        {
          "name": "_tokenId",
          "type": "uint256"
        }
      ],
      "name": "getSaleLot",
      "outputs": [
        {
          "name": "",
          "type": "address"
        },
        {
          "name": "",
          "type": "uint256"
        },
        {
          "name": "",
          "type": "uint256"
        }
      ],
      "payable": false,
      "stateMutability": "view",
      "type": "function"
    },
    {
      "constant": false,
      "inputs": [
        {
          "name": "_checksum",
          "type": "uint256"
        }
      ],
      "name": "proveOwner",
      "outputs": [],
      "payable": false,
      "stateMutability": "nonpayable",
      "type": "function"
    },
    {
      "constant": false,
      "inputs": [
        {
          "name": "_tokenId",
          "type": "uint256"
        }
      ],
      "name": "removeSaleLot",
      "outputs": [],
      "payable": false,
      "stateMutability": "nonpayable",
      "type": "function"
    },
    {
      "constant": true,
      "inputs": [],
      "name": "symbol",
      "outputs": [
        {
          "name": "",
          "type": "string"
        }
      ],
      "payable": false,
      "stateMutability": "view",
      "type": "function"
    },
    {
      "constant": false,
      "inputs": [
        {
          "name": "_to",
          "type": "address"
        },
        {
          "name": "_approved",
          "type": "bool"
        }
      ],
      "name": "setApprovalForAll",
      "outputs": [],
      "payable": false,
      "stateMutability": "nonpayable",
      "type": "function"
    },
    {
      "constant": false,
      "inputs": [
        {
          "name": "_asicID",
          "type": "uint256"
        },
        {
          "name": "_pciVendorID",
          "type": "uint256"
        },
        {
          "name": "_pciDeviceID",
          "type": "uint256"
        },
        {
          "name": "_pciSubDeviceID",
          "type": "uint256"
        },
        {
          "name": "_pciSubVendorID",
          "type": "uint256"
        },
        {
          "name": "_memSizeMB",
          "type": "uint256"
        },
        {
          "name": "_memInfo",
          "type": "string"
        },
        {
          "name": "_GPUType",
          "type": "uint256"
        },
        {
          "name": "_GPUClass",
          "type": "uint256"
        }
      ],
      "name": "_mint",
      "outputs": [],
      "payable": false,
      "stateMutability": "nonpayable",
      "type": "function"
    },
    {
      "constant": false,
      "inputs": [
        {
          "name": "_from",
          "type": "address"
        },
        {
          "name": "_to",
          "type": "address"
        },
        {
          "name": "_tokenId",
          "type": "uint256"
        },
        {
          "name": "_data",
          "type": "bytes"
        }
      ],
      "name": "safeTransferFrom",
      "outputs": [],
      "payable": false,
      "stateMutability": "nonpayable",
      "type": "function"
    },
    {
      "constant": true,
      "inputs": [
        {
          "name": "",
          "type": "uint256"
        }
      ],
      "name": "tokenIndexToSaleLot",
      "outputs": [
        {
          "name": "seller",
          "type": "address"
        },
        {
          "name": "GPUClass",
          "type": "uint128"
        },
        {
          "name": "creationTime",
          "type": "uint256"
        }
      ],
      "payable": false,
      "stateMutability": "view",
      "type": "function"
    },
    {
      "constant": false,
      "inputs": [
        {
          "name": "_GPUClass",
          "type": "uint256"
        },
        {
          "name": "_hostingPeriod",
          "type": "uint256"
        },
        {
          "name": "_GPUPrice",
          "type": "uint256"
        },
        {
          "name": "_hostingPrice",
          "type": "uint256"
        }
      ],
      "name": "setPrice",
      "outputs": [],
      "payable": false,
      "stateMutability": "nonpayable",
      "type": "function"
    },
    {
      "constant": true,
      "inputs": [
        {
          "name": "",
          "type": "uint256"
        }
      ],
      "name": "tokenIndexToHostingPeriod",
      "outputs": [
        {
          "name": "",
          "type": "uint256"
        }
      ],
      "payable": false,
      "stateMutability": "view",
      "type": "function"
    },
    {
      "constant": true,
      "inputs": [
        {
          "name": "_tokenId",
          "type": "uint256"
        }
      ],
      "name": "getToken",
      "outputs": [
        {
          "name": "asicID",
          "type": "uint256"
        },
        {
          "name": "pciVendorID",
          "type": "uint256"
        },
        {
          "name": "pciDeviceID",
          "type": "uint256"
        },
        {
          "name": "pciSubDeviceID",
          "type": "uint256"
        },
        {
          "name": "pciSubVendorID",
          "type": "uint256"
        },
        {
          "name": "memSizeMB",
          "type": "uint256"
        },
        {
          "name": "memInfo",
          "type": "string"
        },
        {
          "name": "GPUType",
          "type": "uint256"
        }
      ],
      "payable": false,
      "stateMutability": "view",
      "type": "function"
    },
    {
      "constant": true,
      "inputs": [
        {
          "name": "_owner",
          "type": "address"
        },
        {
          "name": "_operator",
          "type": "address"
        }
      ],
      "name": "isApprovedForAll",
      "outputs": [
        {
          "name": "",
          "type": "bool"
        }
      ],
      "payable": false,
      "stateMutability": "view",
      "type": "function"
    },
    {
      "constant": false,
      "inputs": [
        {
          "name": "_newCTO",
          "type": "address"
        }
      ],
      "name": "setCTO",
      "outputs": [],
      "payable": false,
      "stateMutability": "nonpayable",
      "type": "function"
    },
    {
      "inputs": [],
      "payable": false,
      "stateMutability": "nonpayable",
      "type": "constructor"
    },
    {
      "payable": true,
      "stateMutability": "payable",
      "type": "fallback"
    },
    {
      "anonymous": false,
      "inputs": [
        {
          "indexed": false,
          "name": "checksum",
          "type": "uint256"
        }
      ],
      "name": "Check",
      "type": "event"
    },
    {
      "anonymous": false,
      "inputs": [
        {
          "indexed": false,
          "name": "tokenId",
          "type": "uint256"
        },
        {
          "indexed": false,
          "name": "seller",
          "type": "address"
        },
        {
          "indexed": false,
          "name": "GPUClass",
          "type": "uint256"
        }
      ],
      "name": "SaleCreated",
      "type": "event"
    },
    {
      "anonymous": false,
      "inputs": [
        {
          "indexed": false,
          "name": "tokenId",
          "type": "uint256"
        },
        {
          "indexed": false,
          "name": "seller",
          "type": "address"
        },
        {
          "indexed": false,
          "name": "GPUClass",
          "type": "uint256"
        }
      ],
      "name": "SaleClosed",
      "type": "event"
    },
    {
      "anonymous": false,
      "inputs": [
        {
          "indexed": false,
          "name": "tokenId",
          "type": "uint256"
        }
      ],
      "name": "SaleCancelled",
      "type": "event"
    },
    {
      "anonymous": false,
      "inputs": [
        {
          "indexed": true,
          "name": "from",
          "type": "address"
        },
        {
          "indexed": true,
          "name": "to",
          "type": "address"
        },
        {
          "indexed": true,
          "name": "tokenId",
          "type": "uint256"
        }
      ],
      "name": "Transfer",
      "type": "event"
    },
    {
      "anonymous": false,
      "inputs": [
        {
          "indexed": true,
          "name": "owner",
          "type": "address"
        },
        {
          "indexed": true,
          "name": "approved",
          "type": "address"
        },
        {
          "indexed": true,
          "name": "tokenId",
          "type": "uint256"
        }
      ],
      "name": "Approval",
      "type": "event"
    },
    {
      "anonymous": false,
      "inputs": [
        {
          "indexed": true,
          "name": "_owner",
          "type": "address"
        },
        {
          "indexed": true,
          "name": "_operator",
          "type": "address"
        },
        {
          "indexed": false,
          "name": "_approved",
          "type": "bool"
        }
      ],
      "name": "ApprovalForAll",
      "type": "event"
    }
  ],
  "bytecode": "0x60806040526000600260146101000a81548160ff0219169083151502179055506040805190810160405280600981526020017f4d696e656f726974790000000000000000000000000000000000000000000000815250600990805190602001906200006c929190620002fe565b506040805190810160405280600481526020017f4d494e4500000000000000000000000000000000000000000000000000000000815250600a9080519060200190620000ba929190620002fe565b50348015620000c857600080fd5b50620000d362000385565b620000dd62000385565b620000e762000385565b620000f162000385565b620000fb62000385565b336000806101000a81548173ffffffffffffffffffffffffffffffffffffffff021916908373ffffffffffffffffffffffffffffffffffffffff160217905550604080519081016040528061032f815260200160008152509450604080519081016040528061040681526020016000815250935060408051908101604052806104d881526020016000815250925060408051908101604052806109c48152602001600081525091506040805190810160405280610bea81526020016000815250905084600c600060018152602001908152602001600020600060018152602001908152602001600020600082015181600001556020820151816001015590505083600c600060018152602001908152602001600020600060028152602001908152602001600020600082015181600001556020820151816001015590505082600c600060018152602001908152602001600020600060038152602001908152602001600020600082015181600001556020820151816001015590505081600c600060028152602001908152602001600020600060028152602001908152602001600020600082015181600001556020820151816001015590505080600c60006002815260200190815260200160002060006003815260200190815260200160002060008201518160000155602082015181600101559050505050505050620003c7565b828054600181600116156101000203166002900490600052602060002090601f016020900481019282601f106200034157805160ff191683800117855562000372565b8280016001018555821562000372579182015b828111156200037157825182559160200191906001019062000354565b5b5090506200038191906200039f565b5090565b604080519081016040528060008152602001600081525090565b620003c491905b80821115620003c0576000816000905550600101620003a6565b5090565b90565b6134d580620003d76000396000f3006080604052600436106101f9576000357c0100000000000000000000000000000000000000000000000000000000900463ffffffff16806301ffc9a7146101fb5780630519ce791461025f578063057466ea146102b657806306fdde03146102e0578063081812fc14610370578063095ea7b3146103dd5780630a0f81681461042a57806318160ddd146104815780631897bcf3146104ac5780631f513660146104e357806323b872dd1461053a57806324600fc3146105a757806327d7874c146105be5780632f745c59146106015780633cc4ecab146106625780633f4ba83a146106b757806342842e0e146106ce5780634e0a33791461073b5780634f558e791461077e5780634f6ccce7146107c35780635c975abb1461080b5780635f8a90f21461083a5780635fd8c7101461087b5780636161eb1814610892578063624de3d9146108df5780636352211e1461094857806370a08231146109b55780638456cb5914610a0c578063857d45f814610a235780638d56daeb14610a9e5780639575e96214610acb57806395d89b4114610af8578063a22cb46514610b88578063a32a64f514610bd7578063b88d4fde14610c90578063c054ab7514610d43578063d176dd4514610de2578063de2e4f8f14610e2d578063e4b50cb814610e6e578063e985e9c514610f45578063fe1439b414610fc0575b005b34801561020757600080fd5b5061024560048036038101908080357bffffffffffffffffffffffffffffffffffffffffffffffffffffffff19169060200190929190505050611003565b604051808215151515815260200191505060405180910390f35b34801561026b57600080fd5b50610274611146565b604051808273ffffffffffffffffffffffffffffffffffffffff1673ffffffffffffffffffffffffffffffffffffffff16815260200191505060405180910390f35b6102de600480360381019080803590602001909291908035906020019092919050505061116c565b005b3480156102ec57600080fd5b506102f56113d9565b6040518080602001828103825283818151815260200191508051906020019080838360005b8381101561033557808201518184015260208101905061031a565b50505050905090810190601f1680156103625780820380516001836020036101000a031916815260200191505b509250505060405180910390f35b34801561037c57600080fd5b5061039b60048036038101908080359060200190929190505050611477565b604051808273ffffffffffffffffffffffffffffffffffffffff1673ffffffffffffffffffffffffffffffffffffffff16815260200191505060405180910390f35b3480156103e957600080fd5b50610428600480360381019080803573ffffffffffffffffffffffffffffffffffffffff169060200190929190803590602001909291905050506114b4565b005b34801561043657600080fd5b5061043f61168c565b604051808273ffffffffffffffffffffffffffffffffffffffff1673ffffffffffffffffffffffffffffffffffffffff16815260200191505060405180910390f35b34801561048d57600080fd5b506104966116b1565b6040518082815260200191505060405180910390f35b3480156104b857600080fd5b506104e160048036038101908080359060200190929190803590602001909291905050506116be565b005b3480156104ef57600080fd5b506104f861185b565b604051808273ffffffffffffffffffffffffffffffffffffffff1673ffffffffffffffffffffffffffffffffffffffff16815260200191505060405180910390f35b34801561054657600080fd5b506105a5600480360381019080803573ffffffffffffffffffffffffffffffffffffffff169060200190929190803573ffffffffffffffffffffffffffffffffffffffff16906020019092919080359060200190929190505050611881565b005b3480156105b357600080fd5b506105bc6119aa565b005b3480156105ca57600080fd5b506105ff600480360381019080803573ffffffffffffffffffffffffffffffffffffffff169060200190929190505050611a2c565b005b34801561060d57600080fd5b5061064c600480360381019080803573ffffffffffffffffffffffffffffffffffffffff16906020019092919080359060200190929190505050611b06565b6040518082815260200191505060405180910390f35b34801561066e57600080fd5b506106a1600480360381019080803590602001909291908035906020019092919080359060200190929190505050611b7d565b6040518082815260200191505060405180910390f35b3480156106c357600080fd5b506106cc611bcb565b005b3480156106da57600080fd5b50610739600480360381019080803573ffffffffffffffffffffffffffffffffffffffff169060200190929190803573ffffffffffffffffffffffffffffffffffffffff16906020019092919080359060200190929190505050611c5e565b005b34801561074757600080fd5b5061077c600480360381019080803573ffffffffffffffffffffffffffffffffffffffff169060200190929190505050611cb2565b005b34801561078a57600080fd5b506107a960048036038101908080359060200190929190505050611d8d565b604051808215151515815260200191505060405180910390f35b3480156107cf57600080fd5b506107ee60048036038101908080359060200190929190505050611dff565b604051808381526020018281526020019250505060405180910390f35b34801561081757600080fd5b50610820611ea8565b604051808215151515815260200191505060405180910390f35b34801561084657600080fd5b5061086560048036038101908080359060200190929190505050611ebb565b6040518082815260200191505060405180910390f35b34801561088757600080fd5b50610890611ed3565b005b34801561089e57600080fd5b506108dd600480360381019080803573ffffffffffffffffffffffffffffffffffffffff16906020019092919080359060200190929190505050611fb1565b005b3480156108eb57600080fd5b506108f461205f565b60405180827bffffffffffffffffffffffffffffffffffffffffffffffffffffffff19167bffffffffffffffffffffffffffffffffffffffffffffffffffffffff1916815260200191505060405180910390f35b34801561095457600080fd5b50610973600480360381019080803590602001909291905050506120a2565b604051808273ffffffffffffffffffffffffffffffffffffffff1673ffffffffffffffffffffffffffffffffffffffff16815260200191505060405180910390f35b3480156109c157600080fd5b506109f6600480360381019080803573ffffffffffffffffffffffffffffffffffffffff16906020019092919050505061211b565b6040518082815260200191505060405180910390f35b348015610a1857600080fd5b50610a2161219f565b005b348015610a2f57600080fd5b50610a4e60048036038101908080359060200190929190505050612233565b604051808473ffffffffffffffffffffffffffffffffffffffff1673ffffffffffffffffffffffffffffffffffffffff168152602001838152602001828152602001935050505060405180910390f35b348015610aaa57600080fd5b50610ac9600480360381019080803590602001909291905050506122bc565b005b348015610ad757600080fd5b50610af6600480360381019080803590602001909291905050506122f6565b005b348015610b0457600080fd5b50610b0d612434565b6040518080602001828103825283818151815260200191508051906020019080838360005b83811015610b4d578082015181840152602081019050610b32565b50505050905090810190601f168015610b7a5780820380516001836020036101000a031916815260200191505b509250505060405180910390f35b348015610b9457600080fd5b50610bd5600480360381019080803573ffffffffffffffffffffffffffffffffffffffff1690602001909291908035151590602001909291905050506124d2565b005b348015610be357600080fd5b50610c8e600480360381019080803590602001909291908035906020019092919080359060200190929190803590602001909291908035906020019092919080359060200190929190803590602001908201803590602001908080601f0160208091040260200160405190810160405280939291908181526020018383808284378201915050505050509192919290803590602001909291908035906020019092919050505061262a565b005b348015610c9c57600080fd5b50610d41600480360381019080803573ffffffffffffffffffffffffffffffffffffffff169060200190929190803573ffffffffffffffffffffffffffffffffffffffff16906020019092919080359060200190929190803590602001908201803590602001908080601f0160208091040260200160405190810160405280939291908181526020018383808284378201915050505050509192919290505050612847565b005b348015610d4f57600080fd5b50610d6e600480360381019080803590602001909291905050506128a2565b604051808473ffffffffffffffffffffffffffffffffffffffff1673ffffffffffffffffffffffffffffffffffffffff168152602001836fffffffffffffffffffffffffffffffff166fffffffffffffffffffffffffffffffff168152602001828152602001935050505060405180910390f35b348015610dee57600080fd5b50610e2b60048036038101908080359060200190929190803590602001909291908035906020019092919080359060200190929190505050612908565b005b348015610e3957600080fd5b50610e586004803603810190808035906020019092919050505061295e565b6040518082815260200191505060405180910390f35b348015610e7a57600080fd5b50610e9960048036038101908080359060200190929190505050612976565b6040518089815260200188815260200187815260200186815260200185815260200184815260200180602001838152602001828103825284818151815260200191508051906020019080838360005b83811015610f03578082015181840152602081019050610ee8565b50505050905090810190601f168015610f305780820380516001836020036101000a031916815260200191505b50995050505050505050505060405180910390f35b348015610f5157600080fd5b50610fa6600480360381019080803573ffffffffffffffffffffffffffffffffffffffff169060200190929190803573ffffffffffffffffffffffffffffffffffffffff169060200190929190505050612b1f565b604051808215151515815260200191505060405180910390f35b348015610fcc57600080fd5b50611001600480360381019080803573ffffffffffffffffffffffffffffffffffffffff169060200190929190505050612bb3565b005b60006301ffc9a77c0100000000000000000000000000000000000000000000000000000000027bffffffffffffffffffffffffffffffffffffffffffffffffffffffff1916827bffffffffffffffffffffffffffffffffffffffffffffffffffffffff191614806110d457506380ac58cd7c0100000000000000000000000000000000000000000000000000000000027bffffffffffffffffffffffffffffffffffffffffffffffffffffffff1916827bffffffffffffffffffffffffffffffffffffffffffffffffffffffff1916145b8061113f575063780e9d637c0100000000000000000000000000000000000000000000000000000000027bffffffffffffffffffffffffffffffffffffffffffffffffffffffff1916827bffffffffffffffffffffffffffffffffffffffffffffffffffffffff1916145b9050919050565b600160009054906101000a900473ffffffffffffffffffffffffffffffffffffffff1681565b600080600260149054906101000a900460ff1615151561118b57600080fd5b600d600085815260200190815260200160002091506111dd84848460010160009054906101000a90046fffffffffffffffffffffffffffffffff166fffffffffffffffffffffffffffffffff16611b7d565b90508034101515156111ee57600080fd5b6111f83385612c8e565b8160000160009054906101000a900473ffffffffffffffffffffffffffffffffffffffff1673ffffffffffffffffffffffffffffffffffffffff166108fc60646062840281151561124557fe5b049081150290604051600060405180830381858888f19350505050158015611271573d6000803e3d6000fd5b50600d6000858152602001908152602001600020600080820160006101000a81549073ffffffffffffffffffffffffffffffffffffffff02191690556001820160006101000a8154906fffffffffffffffffffffffffffffffff02191690556002820160009055505082600e60008681526020019081526020016000208190555042600f6000868152602001908152602001600020819055507fbaff7966f0758b1794fcea83b6d60c741b6fe4ab1b2431d4353784f68551d156848360000160009054906101000a900473ffffffffffffffffffffffffffffffffffffffff168460010160009054906101000a90046fffffffffffffffffffffffffffffffff16604051808481526020018373ffffffffffffffffffffffffffffffffffffffff1673ffffffffffffffffffffffffffffffffffffffff168152602001826fffffffffffffffffffffffffffffffff168152602001935050505060405180910390a150505050565b60098054600181600116156101000203166002900480601f01602080910402602001604051908101604052809291908181526020018280546001816001161561010002031660029004801561146f5780601f106114445761010080835404028352916020019161146f565b820191906000526020600020905b81548152906001019060200180831161145257829003601f168201915b505050505081565b60006005600083815260200190815260200160002060009054906101000a900473ffffffffffffffffffffffffffffffffffffffff169050919050565b6000600260149054906101000a900460ff161515156114d257600080fd5b6114db826120a2565b90508073ffffffffffffffffffffffffffffffffffffffff168373ffffffffffffffffffffffffffffffffffffffff161415151561151857600080fd5b8073ffffffffffffffffffffffffffffffffffffffff163373ffffffffffffffffffffffffffffffffffffffff16148061155857506115578133612b1f565b5b151561156357600080fd5b600073ffffffffffffffffffffffffffffffffffffffff1661158483611477565b73ffffffffffffffffffffffffffffffffffffffff161415806115d45750600073ffffffffffffffffffffffffffffffffffffffff168373ffffffffffffffffffffffffffffffffffffffff1614155b1561168757826005600084815260200190815260200160002060006101000a81548173ffffffffffffffffffffffffffffffffffffffff021916908373ffffffffffffffffffffffffffffffffffffffff160217905550818373ffffffffffffffffffffffffffffffffffffffff168273ffffffffffffffffffffffffffffffffffffffff167f8c5be1e5ebec7d5bd14f71427d1e84f3dd0314c0f7b2291e5b200ac8c7c3b92560405160405180910390a45b505050565b6000809054906101000a900473ffffffffffffffffffffffffffffffffffffffff1681565b6000600380549050905090565b6116c6613343565b600260149054906101000a900460ff161515156116e257600080fd5b6116ec3384612de8565b6116f63384612f47565b6060604051908101604052803373ffffffffffffffffffffffffffffffffffffffff168152602001836fffffffffffffffffffffffffffffffff16815260200142815250905080600d600085815260200190815260200160002060008201518160000160006101000a81548173ffffffffffffffffffffffffffffffffffffffff021916908373ffffffffffffffffffffffffffffffffffffffff16021790555060208201518160010160006101000a8154816fffffffffffffffffffffffffffffffff02191690836fffffffffffffffffffffffffffffffff160217905550604082015181600201559050507fa29262303591d48ce94646a46b652916ce782073349bb5dc261ac4c5237d9397833384604051808481526020018373ffffffffffffffffffffffffffffffffffffffff1673ffffffffffffffffffffffffffffffffffffffff168152602001828152602001935050505060405180910390a1505050565b600260009054906101000a900473ffffffffffffffffffffffffffffffffffffffff1681565b8061188c3382613076565b151561189757600080fd5b600260149054906101000a900460ff161515156118b357600080fd5b600073ffffffffffffffffffffffffffffffffffffffff168473ffffffffffffffffffffffffffffffffffffffff16141515156118ef57600080fd5b600073ffffffffffffffffffffffffffffffffffffffff168373ffffffffffffffffffffffffffffffffffffffff161415151561192b57600080fd5b6119358483612de8565b61193f8483612f47565b6119498383612c8e565b818373ffffffffffffffffffffffffffffffffffffffff168573ffffffffffffffffffffffffffffffffffffffff167fddf252ad1be2c89b69c2b068fc378daa952ba7f163c4a11628f55a4df523b3ef60405160405180910390a450505050565b600160009054906101000a900473ffffffffffffffffffffffffffffffffffffffff1673ffffffffffffffffffffffffffffffffffffffff166108fc3073ffffffffffffffffffffffffffffffffffffffff16319081150290604051600060405180830381858888f19350505050158015611a29573d6000803e3d6000fd5b50565b6000809054906101000a900473ffffffffffffffffffffffffffffffffffffffff1673ffffffffffffffffffffffffffffffffffffffff163373ffffffffffffffffffffffffffffffffffffffff16141515611a8757600080fd5b600073ffffffffffffffffffffffffffffffffffffffff168173ffffffffffffffffffffffffffffffffffffffff1614151515611ac357600080fd5b806000806101000a81548173ffffffffffffffffffffffffffffffffffffffff021916908373ffffffffffffffffffffffffffffffffffffffff16021790555050565b6000611b118361211b565b82101515611b1e57600080fd5b600760008473ffffffffffffffffffffffffffffffffffffffff1673ffffffffffffffffffffffffffffffffffffffff16815260200190815260200160002082815481101515611b6a57fe5b9060005260206000200154905092915050565b600080600c600084815260200190815260200160002060008581526020019081526020016000209050611bc18160010154826000015461310b90919063ffffffff16565b9150509392505050565b6000809054906101000a900473ffffffffffffffffffffffffffffffffffffffff1673ffffffffffffffffffffffffffffffffffffffff163373ffffffffffffffffffffffffffffffffffffffff16141515611c2657600080fd5b600260149054906101000a900460ff161515611c4157600080fd5b6000600260146101000a81548160ff021916908315150217905550565b80611c693382613076565b1515611c7457600080fd5b600260149054906101000a900460ff16151515611c9057600080fd5b611cac8484846020604051908101604052806000815250612847565b50505050565b6000809054906101000a900473ffffffffffffffffffffffffffffffffffffffff1673ffffffffffffffffffffffffffffffffffffffff163373ffffffffffffffffffffffffffffffffffffffff16141515611d0d57600080fd5b600073ffffffffffffffffffffffffffffffffffffffff168173ffffffffffffffffffffffffffffffffffffffff1614151515611d4957600080fd5b80600160006101000a81548173ffffffffffffffffffffffffffffffffffffffff021916908373ffffffffffffffffffffffffffffffffffffffff16021790555050565b6000806004600084815260200190815260200160002060009054906101000a900473ffffffffffffffffffffffffffffffffffffffff169050600073ffffffffffffffffffffffffffffffffffffffff168173ffffffffffffffffffffffffffffffffffffffff161415915050919050565b600080611e0a6116b1565b83101515611e1757600080fd5b600383815481101515611e2657fe5b906000526020600020906002020160010160009054906101000a90046fffffffffffffffffffffffffffffffff166fffffffffffffffffffffffffffffffff16600384815481101515611e7557fe5b9060005260206000209060020201600101601a9054906101000a900460ff166002811115611e9f57fe5b91509150915091565b600260149054906101000a900460ff1681565b600f6020528060005260406000206000915090505481565b600160009054906101000a900473ffffffffffffffffffffffffffffffffffffffff1673ffffffffffffffffffffffffffffffffffffffff163373ffffffffffffffffffffffffffffffffffffffff16141515611f2f57600080fd5b600160009054906101000a900473ffffffffffffffffffffffffffffffffffffffff1673ffffffffffffffffffffffffffffffffffffffff166108fc3073ffffffffffffffffffffffffffffffffffffffff16319081150290604051600060405180830381858888f19350505050158015611fae573d6000803e3d6000fd5b50565b8173ffffffffffffffffffffffffffffffffffffffff163373ffffffffffffffffffffffffffffffffffffffff16141515611feb57600080fd5b611ff58282612de8565b611fff8282612f47565b80600073ffffffffffffffffffffffffffffffffffffffff168373ffffffffffffffffffffffffffffffffffffffff167fddf252ad1be2c89b69c2b068fc378daa952ba7f163c4a11628f55a4df523b3ef60405160405180910390a45050565b7fffffffffffffffffffffffffffffffffffffffffffffffffffffffffb0aa71877c01000000000000000000000000000000000000000000000000000000000281565b60006004600083815260200190815260200160002060009054906101000a900473ffffffffffffffffffffffffffffffffffffffff169050600073ffffffffffffffffffffffffffffffffffffffff168173ffffffffffffffffffffffffffffffffffffffff161415151561211657600080fd5b919050565b60008073ffffffffffffffffffffffffffffffffffffffff168273ffffffffffffffffffffffffffffffffffffffff161415151561215857600080fd5b600660008373ffffffffffffffffffffffffffffffffffffffff1673ffffffffffffffffffffffffffffffffffffffff168152602001908152602001600020549050919050565b6000809054906101000a900473ffffffffffffffffffffffffffffffffffffffff1673ffffffffffffffffffffffffffffffffffffffff163373ffffffffffffffffffffffffffffffffffffffff161415156121fa57600080fd5b600260149054906101000a900460ff1615151561221657600080fd5b6001600260146101000a81548160ff021916908315150217905550565b600080600080600d600086815260200190815260200160002090508060000160009054906101000a900473ffffffffffffffffffffffffffffffffffffffff168160010160009054906101000a90046fffffffffffffffffffffffffffffffff168260020154816fffffffffffffffffffffffffffffffff169150935093509350509193909250565b7fcce3a419c92a3c178219325ad1f4d004e5b6721f715b19111c7000b3d8a49fcb816040518082815260200191505060405180910390a150565b6000600260149054906101000a900460ff1615151561231457600080fd5b600d600083815260200190815260200160002090508060000160009054906101000a900473ffffffffffffffffffffffffffffffffffffffff1673ffffffffffffffffffffffffffffffffffffffff163373ffffffffffffffffffffffffffffffffffffffff1614151561238757600080fd5b600d6000838152602001908152602001600020600080820160006101000a81549073ffffffffffffffffffffffffffffffffffffffff02191690556001820160006101000a8154906fffffffffffffffffffffffffffffffff0219169055600282016000905550506123f93383612c8e565b7f2c56893f6f6026d19bd17b7d05c9f15c522de1ae2b1c3a825f91a73c799321f2826040518082815260200191505060405180910390a15050565b600a8054600181600116156101000203166002900480601f0160208091040260200160405190810160405280929190818152602001828054600181600116156101000203166002900480156124ca5780601f1061249f576101008083540402835291602001916124ca565b820191906000526020600020905b8154815290600101906020018083116124ad57829003601f168201915b505050505081565b600260149054906101000a900460ff161515156124ee57600080fd5b3373ffffffffffffffffffffffffffffffffffffffff168273ffffffffffffffffffffffffffffffffffffffff161415151561252957600080fd5b80600860003373ffffffffffffffffffffffffffffffffffffffff1673ffffffffffffffffffffffffffffffffffffffff16815260200190815260200160002060008473ffffffffffffffffffffffffffffffffffffffff1673ffffffffffffffffffffffffffffffffffffffff16815260200190815260200160002060006101000a81548160ff0219169083151502179055508173ffffffffffffffffffffffffffffffffffffffff163373ffffffffffffffffffffffffffffffffffffffff167f17307eab39ab6107e8899845ad3d59bd9653f200f220920489ca2b5937696c3183604051808215151515815260200191505060405180910390a35050565b61263261338d565b6000610100604051908101604052808681526020018c6fffffffffffffffffffffffffffffffff1681526020018b61ffff1681526020018a61ffff1681526020018961ffff1681526020018861ffff1681526020018761ffff16815260200185600281111561269d57fe5b60028111156126a857fe5b81525091506003829080600181540180825580915050906001820390600052602060002090600202016000909192909190915060008201518160000190805190602001906126f7929190613404565b5060208201518160010160006101000a8154816fffffffffffffffffffffffffffffffff02191690836fffffffffffffffffffffffffffffffff16021790555060408201518160010160106101000a81548161ffff021916908361ffff16021790555060608201518160010160126101000a81548161ffff021916908361ffff16021790555060808201518160010160146101000a81548161ffff021916908361ffff16021790555060a08201518160010160166101000a81548161ffff021916908361ffff16021790555060c08201518160010160186101000a81548161ffff021916908361ffff16021790555060e082015181600101601a6101000a81548160ff0219169083600281111561280a57fe5b02179055505050905061281d3382612c8e565b63ffffffff811115151561283057600080fd5b61283a81846116be565b5050505050505050505050565b816128523382613076565b151561285d57600080fd5b600260149054906101000a900460ff1615151561287957600080fd5b612884858585611881565b61289085858585613129565b151561289b57600080fd5b5050505050565b600d6020528060005260406000206000915090508060000160009054906101000a900473ffffffffffffffffffffffffffffffffffffffff16908060010160009054906101000a90046fffffffffffffffffffffffffffffffff16908060020154905083565b604080519081016040528083815260200182815250600c60008681526020019081526020016000206000858152602001908152602001600020600082015181600001556020820151816001015590505050505050565b600e6020528060005260406000206000915090505481565b600080600080600080606060008060038a81548110151561299357fe5b906000526020600020906002020190508060010160009054906101000a90046fffffffffffffffffffffffffffffffff166fffffffffffffffffffffffffffffffff1698508060010160109054906101000a900461ffff1661ffff1697508060010160129054906101000a900461ffff1661ffff1696508060010160149054906101000a900461ffff1661ffff1695508060010160169054906101000a900461ffff1661ffff1694508060010160189054906101000a900461ffff1661ffff169350806000018054600181600116156101000203166002900480601f016020809104026020016040519081016040528092919081815260200182805460018160011615610100020316600290048015612aed5780601f10612ac257610100808354040283529160200191612aed565b820191906000526020600020905b815481529060010190602001808311612ad057829003601f168201915b5050505050925080600101601a9054906101000a900460ff166002811115612b1157fe5b915050919395975091939597565b6000600860008473ffffffffffffffffffffffffffffffffffffffff1673ffffffffffffffffffffffffffffffffffffffff16815260200190815260200160002060008373ffffffffffffffffffffffffffffffffffffffff1673ffffffffffffffffffffffffffffffffffffffff16815260200190815260200160002060009054906101000a900460ff16905092915050565b6000809054906101000a900473ffffffffffffffffffffffffffffffffffffffff1673ffffffffffffffffffffffffffffffffffffffff163373ffffffffffffffffffffffffffffffffffffffff16141515612c0e57600080fd5b600073ffffffffffffffffffffffffffffffffffffffff168173ffffffffffffffffffffffffffffffffffffffff1614151515612c4a57600080fd5b80600260006101000a81548173ffffffffffffffffffffffffffffffffffffffff021916908373ffffffffffffffffffffffffffffffffffffffff16021790555050565b600073ffffffffffffffffffffffffffffffffffffffff166004600083815260200190815260200160002060009054906101000a900473ffffffffffffffffffffffffffffffffffffffff1673ffffffffffffffffffffffffffffffffffffffff16141515612cfc57600080fd5b816004600083815260200190815260200160002060006101000a81548173ffffffffffffffffffffffffffffffffffffffff021916908373ffffffffffffffffffffffffffffffffffffffff160217905550612da16001600660008573ffffffffffffffffffffffffffffffffffffffff1673ffffffffffffffffffffffffffffffffffffffff1681526020019081526020016000205461310b90919063ffffffff16565b600660008473ffffffffffffffffffffffffffffffffffffffff1673ffffffffffffffffffffffffffffffffffffffff168152602001908152602001600020819055505050565b8173ffffffffffffffffffffffffffffffffffffffff16612e08826120a2565b73ffffffffffffffffffffffffffffffffffffffff16141515612e2a57600080fd5b600073ffffffffffffffffffffffffffffffffffffffff166005600083815260200190815260200160002060009054906101000a900473ffffffffffffffffffffffffffffffffffffffff1673ffffffffffffffffffffffffffffffffffffffff16141515612f435760006005600083815260200190815260200160002060006101000a81548173ffffffffffffffffffffffffffffffffffffffff021916908373ffffffffffffffffffffffffffffffffffffffff16021790555080600073ffffffffffffffffffffffffffffffffffffffff168373ffffffffffffffffffffffffffffffffffffffff167f8c5be1e5ebec7d5bd14f71427d1e84f3dd0314c0f7b2291e5b200ac8c7c3b92560405160405180910390a45b5050565b8173ffffffffffffffffffffffffffffffffffffffff16612f67826120a2565b73ffffffffffffffffffffffffffffffffffffffff16141515612f8957600080fd5b612fdc6001600660008573ffffffffffffffffffffffffffffffffffffffff1673ffffffffffffffffffffffffffffffffffffffff1681526020019081526020016000205461331790919063ffffffff16565b600660008473ffffffffffffffffffffffffffffffffffffffff1673ffffffffffffffffffffffffffffffffffffffff1681526020019081526020016000208190555060006004600083815260200190815260200160002060006101000a81548173ffffffffffffffffffffffffffffffffffffffff021916908373ffffffffffffffffffffffffffffffffffffffff1602179055505050565b600080613082836120a2565b90508073ffffffffffffffffffffffffffffffffffffffff168473ffffffffffffffffffffffffffffffffffffffff1614806130f157508373ffffffffffffffffffffffffffffffffffffffff166130d984611477565b73ffffffffffffffffffffffffffffffffffffffff16145b8061310257506131018185612b1f565b5b91505092915050565b600080828401905083811015151561311f57fe5b8091505092915050565b60008061314b8573ffffffffffffffffffffffffffffffffffffffff16613330565b151561315a576001915061330e565b8473ffffffffffffffffffffffffffffffffffffffff1663f0b9e5ba8786866040518463ffffffff167c0100000000000000000000000000000000000000000000000000000000028152600401808473ffffffffffffffffffffffffffffffffffffffff1673ffffffffffffffffffffffffffffffffffffffff16815260200183815260200180602001828103825283818151815260200191508051906020019080838360005b8381101561321c578082015181840152602081019050613201565b50505050905090810190601f1680156132495780820380516001836020036101000a031916815260200191505b50945050505050602060405180830381600087803b15801561326a57600080fd5b505af115801561327e573d6000803e3d6000fd5b505050506040513d602081101561329457600080fd5b8101908080519060200190929190505050905063f0b9e5ba7c0100000000000000000000000000000000000000000000000000000000027bffffffffffffffffffffffffffffffffffffffffffffffffffffffff1916817bffffffffffffffffffffffffffffffffffffffffffffffffffffffff19161491505b50949350505050565b600082821115151561332557fe5b818303905092915050565b600080823b905060008111915050919050565b606060405190810160405280600073ffffffffffffffffffffffffffffffffffffffff16815260200160006fffffffffffffffffffffffffffffffff168152602001600081525090565b610100604051908101604052806060815260200160006fffffffffffffffffffffffffffffffff168152602001600061ffff168152602001600061ffff168152602001600061ffff168152602001600061ffff168152602001600061ffff168152602001600060028111156133fe57fe5b81525090565b828054600181600116156101000203166002900490600052602060002090601f016020900481019282601f1061344557805160ff1916838001178555613473565b82800160010185558215613473579182015b82811115613472578251825591602001919060010190613457565b5b5090506134809190613484565b5090565b6134a691905b808211156134a257600081600090555060010161348a565b5090565b905600a165627a7a72305820ea5d5ca948aa1ef4fffa971c944dbbceb7554be6fe4394196435acfd8a55df030029",
  "source": "pragma solidity ^0.4.23;\nimport \"./MineorityMint.sol\";\n\ncontract MineorityCore is MineorityMint {\n\n    //**Main contract with all admin stuff**//\n  \n    constructor() public {\n        // the creator of the contract is the initial CEO\n        ceoAddress = msg.sender;\n\n        // It doesn't practically matters but for contract readability we should\n        // call it in setter after deploying once, instead of here\n        GPUPrice memory Mine_31Y1 = GPUPrice({\n            GPUPrice:815,\n            hostingPrice: 0\n        });\n        GPUPrice memory Mine_31Y2 = GPUPrice({\n            GPUPrice:1030,\n            hostingPrice: 0\n        });\n        GPUPrice memory Mine_31Y3 = GPUPrice({\n            GPUPrice:1240,\n            hostingPrice: 0\n        });\n\n        GPUPrice memory Mine_56Y2 = GPUPrice({\n            GPUPrice:2500,\n            hostingPrice: 0\n        });\n        GPUPrice memory Mine_56Y3 = GPUPrice({\n            GPUPrice:3050,\n            hostingPrice: 0\n        });\n        gpuClassToYearToPrice[1][1] = Mine_31Y1;\n        gpuClassToYearToPrice[1][2] = Mine_31Y2;\n        gpuClassToYearToPrice[1][3] = Mine_31Y3;\n        gpuClassToYearToPrice[2][2] = Mine_56Y2;\n        gpuClassToYearToPrice[2][3] = Mine_56Y3;\n    }\n\n    function() external payable {\n        \n    }\n\n    //* Returns all information of a given token\n    // check return datatypes to be all 256 or what\n    // same with minting\n    function getToken(uint256 _tokenId) public view\n        returns (\n          uint256 asicID,\n          uint256 pciVendorID,\n          uint256 pciDeviceID,\n          uint256 pciSubDeviceID,\n          uint256 pciSubVendorID,\n          uint256 memSizeMB,\n          string memInfo,\n          uint256 GPUType\n    ) {\n        Token storage tok = allTokens[_tokenId];\n\n        asicID = uint256(tok.asicID);\n        pciVendorID = uint256(tok.pciVendorID);\n        pciDeviceID = uint256(tok.pciDeviceID);\n        pciSubDeviceID = uint256(tok.pciSubDeviceID);\n        pciSubVendorID = uint256(tok.pciSubVendorID);\n        memSizeMB = uint256(tok.memSizeMB);\n        memInfo = tok.memInfo;\n        GPUType = uint256(tok.GPUType);\n    }\n\n    //* For now it'll be there\n    function withdrawFunds() public /*OnlyCFO*/{\n        cfoAddress.transfer(this.balance);\n    }\n}\n",
  "sourcePath": "/home/andrew/Projects/truffleTest/wemine/contracts/MineorityCore.sol",
  "compiler": {
    "name": "solc",
    "version": "0.4.23+commit.124ca40d.Emscripten.clang"
  },
  "schemaVersion": "1.0.1",
  "updatedAt": "2018-05-22T12:50:38.020Z"
}