{
  "contractName": "MineorityTrading",
  "abi": [
    {
      "constant": true,
      "inputs": [
        {
          "name": "_interfaceID",
          "type": "bytes4"
        }
      ],
      "name": "supportsInterface",
      "outputs": [
        {
          "name": "",
          "type": "bool"
        }
      ],
      "payable": false,
      "stateMutability": "pure",
      "type": "function"
    },
    {
      "constant": true,
      "inputs": [],
      "name": "cfoAddress",
      "outputs": [
        {
          "name": "",
          "type": "address"
        }
      ],
      "payable": false,
      "stateMutability": "view",
      "type": "function"
    },
    {
      "constant": false,
      "inputs": [
        {
          "name": "_tokenId",
          "type": "uint256"
        },
        {
          "name": "_hostingPeriod",
          "type": "uint256"
        }
      ],
      "name": "buyToken",
      "outputs": [],
      "payable": true,
      "stateMutability": "payable",
      "type": "function"
    },
    {
      "constant": true,
      "inputs": [],
      "name": "name",
      "outputs": [
        {
          "name": "",
          "type": "string"
        }
      ],
      "payable": false,
      "stateMutability": "view",
      "type": "function"
    },
    {
      "constant": true,
      "inputs": [
        {
          "name": "_tokenId",
          "type": "uint256"
        }
      ],
      "name": "getApproved",
      "outputs": [
        {
          "name": "",
          "type": "address"
        }
      ],
      "payable": false,
      "stateMutability": "view",
      "type": "function"
    },
    {
      "constant": false,
      "inputs": [
        {
          "name": "_to",
          "type": "address"
        },
        {
          "name": "_tokenId",
          "type": "uint256"
        }
      ],
      "name": "approve",
      "outputs": [],
      "payable": false,
      "stateMutability": "nonpayable",
      "type": "function"
    },
    {
      "constant": true,
      "inputs": [],
      "name": "ceoAddress",
      "outputs": [
        {
          "name": "",
          "type": "address"
        }
      ],
      "payable": false,
      "stateMutability": "view",
      "type": "function"
    },
    {
      "constant": true,
      "inputs": [],
      "name": "totalSupply",
      "outputs": [
        {
          "name": "",
          "type": "uint256"
        }
      ],
      "payable": false,
      "stateMutability": "view",
      "type": "function"
    },
    {
      "constant": false,
      "inputs": [
        {
          "name": "_tokenId",
          "type": "uint256"
        },
        {
          "name": "_GPUClass",
          "type": "uint256"
        }
      ],
      "name": "sellToken",
      "outputs": [],
      "payable": false,
      "stateMutability": "nonpayable",
      "type": "function"
    },
    {
      "constant": true,
      "inputs": [],
      "name": "ctoAddress",
      "outputs": [
        {
          "name": "",
          "type": "address"
        }
      ],
      "payable": false,
      "stateMutability": "view",
      "type": "function"
    },
    {
      "constant": false,
      "inputs": [
        {
          "name": "_from",
          "type": "address"
        },
        {
          "name": "_to",
          "type": "address"
        },
        {
          "name": "_tokenId",
          "type": "uint256"
        }
      ],
      "name": "transferFrom",
      "outputs": [],
      "payable": false,
      "stateMutability": "nonpayable",
      "type": "function"
    },
    {
      "constant": false,
      "inputs": [
        {
          "name": "_newCEO",
          "type": "address"
        }
      ],
      "name": "setCEO",
      "outputs": [],
      "payable": false,
      "stateMutability": "nonpayable",
      "type": "function"
    },
    {
      "constant": true,
      "inputs": [
        {
          "name": "_owner",
          "type": "address"
        },
        {
          "name": "_index",
          "type": "uint256"
        }
      ],
      "name": "tokenOfOwnerByIndex",
      "outputs": [
        {
          "name": "",
          "type": "uint256"
        }
      ],
      "payable": false,
      "stateMutability": "view",
      "type": "function"
    },
    {
      "constant": false,
      "inputs": [
        {
          "name": "_tokenId",
          "type": "uint256"
        },
        {
          "name": "_hostingPeriod",
          "type": "uint256"
        },
        {
          "name": "_GPUClass",
          "type": "uint256"
        }
      ],
      "name": "getPrice",
      "outputs": [
        {
          "name": "price",
          "type": "uint256"
        }
      ],
      "payable": false,
      "stateMutability": "nonpayable",
      "type": "function"
    },
    {
      "constant": false,
      "inputs": [],
      "name": "unpause",
      "outputs": [],
      "payable": false,
      "stateMutability": "nonpayable",
      "type": "function"
    },
    {
      "constant": false,
      "inputs": [
        {
          "name": "_from",
          "type": "address"
        },
        {
          "name": "_to",
          "type": "address"
        },
        {
          "name": "_tokenId",
          "type": "uint256"
        }
      ],
      "name": "safeTransferFrom",
      "outputs": [],
      "payable": false,
      "stateMutability": "nonpayable",
      "type": "function"
    },
    {
      "constant": false,
      "inputs": [
        {
          "name": "_newCFO",
          "type": "address"
        }
      ],
      "name": "setCFO",
      "outputs": [],
      "payable": false,
      "stateMutability": "nonpayable",
      "type": "function"
    },
    {
      "constant": true,
      "inputs": [
        {
          "name": "_tokenId",
          "type": "uint256"
        }
      ],
      "name": "exists",
      "outputs": [
        {
          "name": "",
          "type": "bool"
        }
      ],
      "payable": false,
      "stateMutability": "view",
      "type": "function"
    },
    {
      "constant": true,
      "inputs": [
        {
          "name": "_index",
          "type": "uint256"
        }
      ],
      "name": "tokenByIndex",
      "outputs": [
        {
          "name": "",
          "type": "uint256"
        },
        {
          "name": "",
          "type": "uint256"
        }
      ],
      "payable": false,
      "stateMutability": "view",
      "type": "function"
    },
    {
      "constant": true,
      "inputs": [],
      "name": "paused",
      "outputs": [
        {
          "name": "",
          "type": "bool"
        }
      ],
      "payable": false,
      "stateMutability": "view",
      "type": "function"
    },
    {
      "constant": true,
      "inputs": [
        {
          "name": "",
          "type": "uint256"
        }
      ],
      "name": "tokenIndexToPurchaseDate",
      "outputs": [
        {
          "name": "",
          "type": "uint256"
        }
      ],
      "payable": false,
      "stateMutability": "view",
      "type": "function"
    },
    {
      "constant": false,
      "inputs": [],
      "name": "withdrawBalance",
      "outputs": [],
      "payable": false,
      "stateMutability": "nonpayable",
      "type": "function"
    },
    {
      "constant": true,
      "inputs": [],
      "name": "InterfaceSignature_ERC721Optional",
      "outputs": [
        {
          "name": "",
          "type": "bytes4"
        }
      ],
      "payable": false,
      "stateMutability": "view",
      "type": "function"
    },
    {
      "constant": true,
      "inputs": [
        {
          "name": "_tokenId",
          "type": "uint256"
        }
      ],
      "name": "ownerOf",
      "outputs": [
        {
          "name": "owner",
          "type": "address"
        }
      ],
      "payable": false,
      "stateMutability": "view",
      "type": "function"
    },
    {
      "constant": true,
      "inputs": [
        {
          "name": "_owner",
          "type": "address"
        }
      ],
      "name": "balanceOf",
      "outputs": [
        {
          "name": "count",
          "type": "uint256"
        }
      ],
      "payable": false,
      "stateMutability": "view",
      "type": "function"
    },
    {
      "constant": false,
      "inputs": [],
      "name": "pause",
      "outputs": [],
      "payable": false,
      "stateMutability": "nonpayable",
      "type": "function"
    },
    {
      "constant": true,
      "inputs": [
        {
          "name": "_tokenId",
          "type": "uint256"
        }
      ],
      "name": "getSaleLot",
      "outputs": [
        {
          "name": "",
          "type": "address"
        },
        {
          "name": "",
          "type": "uint256"
        },
        {
          "name": "",
          "type": "uint256"
        }
      ],
      "payable": false,
      "stateMutability": "view",
      "type": "function"
    },
    {
      "constant": false,
      "inputs": [
        {
          "name": "_tokenId",
          "type": "uint256"
        }
      ],
      "name": "removeSaleLot",
      "outputs": [],
      "payable": false,
      "stateMutability": "nonpayable",
      "type": "function"
    },
    {
      "constant": true,
      "inputs": [],
      "name": "symbol",
      "outputs": [
        {
          "name": "",
          "type": "string"
        }
      ],
      "payable": false,
      "stateMutability": "view",
      "type": "function"
    },
    {
      "constant": false,
      "inputs": [
        {
          "name": "_to",
          "type": "address"
        },
        {
          "name": "_approved",
          "type": "bool"
        }
      ],
      "name": "setApprovalForAll",
      "outputs": [],
      "payable": false,
      "stateMutability": "nonpayable",
      "type": "function"
    },
    {
      "constant": false,
      "inputs": [
        {
          "name": "_from",
          "type": "address"
        },
        {
          "name": "_to",
          "type": "address"
        },
        {
          "name": "_tokenId",
          "type": "uint256"
        },
        {
          "name": "_data",
          "type": "bytes"
        }
      ],
      "name": "safeTransferFrom",
      "outputs": [],
      "payable": false,
      "stateMutability": "nonpayable",
      "type": "function"
    },
    {
      "constant": true,
      "inputs": [
        {
          "name": "",
          "type": "uint256"
        }
      ],
      "name": "tokenIndexToSaleLot",
      "outputs": [
        {
          "name": "seller",
          "type": "address"
        },
        {
          "name": "GPUClass",
          "type": "uint128"
        },
        {
          "name": "creationTime",
          "type": "uint256"
        }
      ],
      "payable": false,
      "stateMutability": "view",
      "type": "function"
    },
    {
      "constant": true,
      "inputs": [
        {
          "name": "",
          "type": "uint256"
        }
      ],
      "name": "tokenIndexToHostingPeriod",
      "outputs": [
        {
          "name": "",
          "type": "uint256"
        }
      ],
      "payable": false,
      "stateMutability": "view",
      "type": "function"
    },
    {
      "constant": true,
      "inputs": [
        {
          "name": "_owner",
          "type": "address"
        },
        {
          "name": "_operator",
          "type": "address"
        }
      ],
      "name": "isApprovedForAll",
      "outputs": [
        {
          "name": "",
          "type": "bool"
        }
      ],
      "payable": false,
      "stateMutability": "view",
      "type": "function"
    },
    {
      "constant": false,
      "inputs": [
        {
          "name": "_newCTO",
          "type": "address"
        }
      ],
      "name": "setCTO",
      "outputs": [],
      "payable": false,
      "stateMutability": "nonpayable",
      "type": "function"
    },
    {
      "anonymous": false,
      "inputs": [
        {
          "indexed": false,
          "name": "tokenId",
          "type": "uint256"
        },
        {
          "indexed": false,
          "name": "seller",
          "type": "address"
        },
        {
          "indexed": false,
          "name": "GPUClass",
          "type": "uint256"
        }
      ],
      "name": "SaleCreated",
      "type": "event"
    },
    {
      "anonymous": false,
      "inputs": [
        {
          "indexed": false,
          "name": "tokenId",
          "type": "uint256"
        },
        {
          "indexed": false,
          "name": "seller",
          "type": "address"
        },
        {
          "indexed": false,
          "name": "GPUClass",
          "type": "uint256"
        }
      ],
      "name": "SaleClosed",
      "type": "event"
    },
    {
      "anonymous": false,
      "inputs": [
        {
          "indexed": false,
          "name": "tokenId",
          "type": "uint256"
        }
      ],
      "name": "SaleCancelled",
      "type": "event"
    },
    {
      "anonymous": false,
      "inputs": [
        {
          "indexed": true,
          "name": "from",
          "type": "address"
        },
        {
          "indexed": true,
          "name": "to",
          "type": "address"
        },
        {
          "indexed": true,
          "name": "tokenId",
          "type": "uint256"
        }
      ],
      "name": "Transfer",
      "type": "event"
    },
    {
      "anonymous": false,
      "inputs": [
        {
          "indexed": true,
          "name": "owner",
          "type": "address"
        },
        {
          "indexed": true,
          "name": "approved",
          "type": "address"
        },
        {
          "indexed": true,
          "name": "tokenId",
          "type": "uint256"
        }
      ],
      "name": "Approval",
      "type": "event"
    },
    {
      "anonymous": false,
      "inputs": [
        {
          "indexed": true,
          "name": "_owner",
          "type": "address"
        },
        {
          "indexed": true,
          "name": "_operator",
          "type": "address"
        },
        {
          "indexed": false,
          "name": "_approved",
          "type": "bool"
        }
      ],
      "name": "ApprovalForAll",
      "type": "event"
    }
  ],
  "bytecode": "0x60806040526000600260146101000a81548160ff0219169083151502179055506040805190810160405280600981526020017f4d696e656f726974790000000000000000000000000000000000000000000000815250600990805190602001906200006c92919062000288565b506040805190810160405280600481526020017f4d494e4500000000000000000000000000000000000000000000000000000000815250600a9080519060200190620000ba92919062000288565b50604080519081016040528061032081526020016104b0815250600b60008201518160000155602082015181600101555050604080519081016040528061032081526020016104b0815250600d60008201518160000155602082015181600101555050604080519081016040528061032081526020016104b0815250600f60008201518160000155602082015181600101555050604080519081016040528061032081526020016104b0815250601160008201518160000155602082015181600101555050604080519081016040528061032081526020016104b0815250601360008201518160000155602082015181600101555050604080519081016040528061032081526020016104b0815250601560008201518160000155602082015181600101555050604080519081016040528061032081526020016104b0815250601760008201518160000155602082015181600101555050604080519081016040528061032081526020016104b0815250601960008201518160000155602082015181600101555050604080519081016040528061032081526020016104b0815250601b600082015181600001556020820151816001015550503480156200028157600080fd5b5062000337565b828054600181600116156101000203166002900490600052602060002090601f016020900481019282601f10620002cb57805160ff1916838001178555620002fc565b82800160010185558215620002fc579182015b82811115620002fb578251825591602001919060010190620002de565b5b5090506200030b91906200030f565b5090565b6200033491905b808211156200033057600081600090555060010162000316565b5090565b90565b612eb180620003476000396000f3006080604052600436106101b7576000357c0100000000000000000000000000000000000000000000000000000000900463ffffffff16806301ffc9a7146101bc5780630519ce7914610220578063057466ea1461027757806306fdde03146102a1578063081812fc14610331578063095ea7b31461039e5780630a0f8168146103eb57806318160ddd146104425780631897bcf31461046d5780631f513660146104a457806323b872dd146104fb57806327d7874c146105685780632f745c59146105ab5780633cc4ecab1461060c5780633f4ba83a1461066157806342842e0e146106785780634e0a3379146106e55780634f558e79146107285780634f6ccce71461076d5780635c975abb146107b55780635f8a90f2146107e45780635fd8c71014610825578063624de3d91461083c5780636352211e146108a557806370a08231146109125780638456cb5914610969578063857d45f8146109805780639575e962146109fb57806395d89b4114610a28578063a22cb46514610ab8578063b88d4fde14610b07578063c054ab7514610bba578063de2e4f8f14610c59578063e985e9c514610c9a578063fe1439b414610d15575b600080fd5b3480156101c857600080fd5b5061020660048036038101908080357bffffffffffffffffffffffffffffffffffffffffffffffffffffffff19169060200190929190505050610d58565b604051808215151515815260200191505060405180910390f35b34801561022c57600080fd5b50610235610e9b565b604051808273ffffffffffffffffffffffffffffffffffffffff1673ffffffffffffffffffffffffffffffffffffffff16815260200191505060405180910390f35b61029f6004803603810190808035906020019092919080359060200190929190505050610ec1565b005b3480156102ad57600080fd5b506102b661112e565b6040518080602001828103825283818151815260200191508051906020019080838360005b838110156102f65780820151818401526020810190506102db565b50505050905090810190601f1680156103235780820380516001836020036101000a031916815260200191505b509250505060405180910390f35b34801561033d57600080fd5b5061035c600480360381019080803590602001909291905050506111cc565b604051808273ffffffffffffffffffffffffffffffffffffffff1673ffffffffffffffffffffffffffffffffffffffff16815260200191505060405180910390f35b3480156103aa57600080fd5b506103e9600480360381019080803573ffffffffffffffffffffffffffffffffffffffff16906020019092919080359060200190929190505050611209565b005b3480156103f757600080fd5b506104006113e1565b604051808273ffffffffffffffffffffffffffffffffffffffff1673ffffffffffffffffffffffffffffffffffffffff16815260200191505060405180910390f35b34801561044e57600080fd5b50610457611406565b6040518082815260200191505060405180910390f35b34801561047957600080fd5b506104a26004803603810190808035906020019092919080359060200190929190505050611413565b005b3480156104b057600080fd5b506104b96115b0565b604051808273ffffffffffffffffffffffffffffffffffffffff1673ffffffffffffffffffffffffffffffffffffffff16815260200191505060405180910390f35b34801561050757600080fd5b50610566600480360381019080803573ffffffffffffffffffffffffffffffffffffffff169060200190929190803573ffffffffffffffffffffffffffffffffffffffff169060200190929190803590602001909291905050506115d6565b005b34801561057457600080fd5b506105a9600480360381019080803573ffffffffffffffffffffffffffffffffffffffff1690602001909291905050506116ff565b005b3480156105b757600080fd5b506105f6600480360381019080803573ffffffffffffffffffffffffffffffffffffffff169060200190929190803590602001909291905050506117d9565b6040518082815260200191505060405180910390f35b34801561061857600080fd5b5061064b600480360381019080803590602001909291908035906020019092919080359060200190929190505050611850565b6040518082815260200191505060405180910390f35b34801561066d57600080fd5b50610676611bc8565b005b34801561068457600080fd5b506106e3600480360381019080803573ffffffffffffffffffffffffffffffffffffffff169060200190929190803573ffffffffffffffffffffffffffffffffffffffff16906020019092919080359060200190929190505050611c5b565b005b3480156106f157600080fd5b50610726600480360381019080803573ffffffffffffffffffffffffffffffffffffffff169060200190929190505050611caf565b005b34801561073457600080fd5b5061075360048036038101908080359060200190929190505050611d8a565b604051808215151515815260200191505060405180910390f35b34801561077957600080fd5b5061079860048036038101908080359060200190929190505050611dfc565b604051808381526020018281526020019250505060405180910390f35b3480156107c157600080fd5b506107ca611ea5565b604051808215151515815260200191505060405180910390f35b3480156107f057600080fd5b5061080f60048036038101908080359060200190929190505050611eb8565b6040518082815260200191505060405180910390f35b34801561083157600080fd5b5061083a611ecf565b005b34801561084857600080fd5b50610851611fad565b60405180827bffffffffffffffffffffffffffffffffffffffffffffffffffffffff19167bffffffffffffffffffffffffffffffffffffffffffffffffffffffff1916815260200191505060405180910390f35b3480156108b157600080fd5b506108d060048036038101908080359060200190929190505050611ff0565b604051808273ffffffffffffffffffffffffffffffffffffffff1673ffffffffffffffffffffffffffffffffffffffff16815260200191505060405180910390f35b34801561091e57600080fd5b50610953600480360381019080803573ffffffffffffffffffffffffffffffffffffffff169060200190929190505050612069565b6040518082815260200191505060405180910390f35b34801561097557600080fd5b5061097e6120ed565b005b34801561098c57600080fd5b506109ab60048036038101908080359060200190929190505050612181565b604051808473ffffffffffffffffffffffffffffffffffffffff1673ffffffffffffffffffffffffffffffffffffffff168152602001838152602001828152602001935050505060405180910390f35b348015610a0757600080fd5b50610a266004803603810190808035906020019092919050505061220a565b005b348015610a3457600080fd5b50610a3d612348565b6040518080602001828103825283818151815260200191508051906020019080838360005b83811015610a7d578082015181840152602081019050610a62565b50505050905090810190601f168015610aaa5780820380516001836020036101000a031916815260200191505b509250505060405180910390f35b348015610ac457600080fd5b50610b05600480360381019080803573ffffffffffffffffffffffffffffffffffffffff1690602001909291908035151590602001909291905050506123e6565b005b348015610b1357600080fd5b50610bb8600480360381019080803573ffffffffffffffffffffffffffffffffffffffff169060200190929190803573ffffffffffffffffffffffffffffffffffffffff16906020019092919080359060200190929190803590602001908201803590602001908080601f016020809104026020016040519081016040528093929190818152602001838380828437820191505050505050919291929050505061253e565b005b348015610bc657600080fd5b50610be560048036038101908080359060200190929190505050612599565b604051808473ffffffffffffffffffffffffffffffffffffffff1673ffffffffffffffffffffffffffffffffffffffff168152602001836fffffffffffffffffffffffffffffffff166fffffffffffffffffffffffffffffffff168152602001828152602001935050505060405180910390f35b348015610c6557600080fd5b50610c84600480360381019080803590602001909291905050506125ff565b6040518082815260200191505060405180910390f35b348015610ca657600080fd5b50610cfb600480360381019080803573ffffffffffffffffffffffffffffffffffffffff169060200190929190803573ffffffffffffffffffffffffffffffffffffffff169060200190929190505050612617565b604051808215151515815260200191505060405180910390f35b348015610d2157600080fd5b50610d56600480360381019080803573ffffffffffffffffffffffffffffffffffffffff1690602001909291905050506126ab565b005b60006301ffc9a77c0100000000000000000000000000000000000000000000000000000000027bffffffffffffffffffffffffffffffffffffffffffffffffffffffff1916827bffffffffffffffffffffffffffffffffffffffffffffffffffffffff19161480610e2957506380ac58cd7c0100000000000000000000000000000000000000000000000000000000027bffffffffffffffffffffffffffffffffffffffffffffffffffffffff1916827bffffffffffffffffffffffffffffffffffffffffffffffffffffffff1916145b80610e94575063780e9d637c0100000000000000000000000000000000000000000000000000000000027bffffffffffffffffffffffffffffffffffffffffffffffffffffffff1916827bffffffffffffffffffffffffffffffffffffffffffffffffffffffff1916145b9050919050565b600160009054906101000a900473ffffffffffffffffffffffffffffffffffffffff1681565b600080600260149054906101000a900460ff16151515610ee057600080fd5b601e60008581526020019081526020016000209150610f3284848460010160009054906101000a90046fffffffffffffffffffffffffffffffff166fffffffffffffffffffffffffffffffff16611850565b9050803410151515610f4357600080fd5b610f4d3385612786565b8160000160009054906101000a900473ffffffffffffffffffffffffffffffffffffffff1673ffffffffffffffffffffffffffffffffffffffff166108fc606460628402811515610f9a57fe5b049081150290604051600060405180830381858888f19350505050158015610fc6573d6000803e3d6000fd5b50601e6000858152602001908152602001600020600080820160006101000a81549073ffffffffffffffffffffffffffffffffffffffff02191690556001820160006101000a8154906fffffffffffffffffffffffffffffffff02191690556002820160009055505082601f6000868152602001908152602001600020819055504260206000868152602001908152602001600020819055507fbaff7966f0758b1794fcea83b6d60c741b6fe4ab1b2431d4353784f68551d156848360000160009054906101000a900473ffffffffffffffffffffffffffffffffffffffff168460010160009054906101000a90046fffffffffffffffffffffffffffffffff16604051808481526020018373ffffffffffffffffffffffffffffffffffffffff1673ffffffffffffffffffffffffffffffffffffffff168152602001826fffffffffffffffffffffffffffffffff168152602001935050505060405180910390a150505050565b60098054600181600116156101000203166002900480601f0160208091040260200160405190810160405280929190818152602001828054600181600116156101000203166002900480156111c45780601f10611199576101008083540402835291602001916111c4565b820191906000526020600020905b8154815290600101906020018083116111a757829003601f168201915b505050505081565b60006005600083815260200190815260200160002060009054906101000a900473ffffffffffffffffffffffffffffffffffffffff169050919050565b6000600260149054906101000a900460ff1615151561122757600080fd5b61123082611ff0565b90508073ffffffffffffffffffffffffffffffffffffffff168373ffffffffffffffffffffffffffffffffffffffff161415151561126d57600080fd5b8073ffffffffffffffffffffffffffffffffffffffff163373ffffffffffffffffffffffffffffffffffffffff1614806112ad57506112ac8133612617565b5b15156112b857600080fd5b600073ffffffffffffffffffffffffffffffffffffffff166112d9836111cc565b73ffffffffffffffffffffffffffffffffffffffff161415806113295750600073ffffffffffffffffffffffffffffffffffffffff168373ffffffffffffffffffffffffffffffffffffffff1614155b156113dc57826005600084815260200190815260200160002060006101000a81548173ffffffffffffffffffffffffffffffffffffffff021916908373ffffffffffffffffffffffffffffffffffffffff160217905550818373ffffffffffffffffffffffffffffffffffffffff168273ffffffffffffffffffffffffffffffffffffffff167f8c5be1e5ebec7d5bd14f71427d1e84f3dd0314c0f7b2291e5b200ac8c7c3b92560405160405180910390a45b505050565b6000809054906101000a900473ffffffffffffffffffffffffffffffffffffffff1681565b6000600380549050905090565b61141b612e3b565b600260149054906101000a900460ff1615151561143757600080fd5b61144133846128e0565b61144b3384612a3f565b6060604051908101604052803373ffffffffffffffffffffffffffffffffffffffff168152602001836fffffffffffffffffffffffffffffffff16815260200142815250905080601e600085815260200190815260200160002060008201518160000160006101000a81548173ffffffffffffffffffffffffffffffffffffffff021916908373ffffffffffffffffffffffffffffffffffffffff16021790555060208201518160010160006101000a8154816fffffffffffffffffffffffffffffffff02191690836fffffffffffffffffffffffffffffffff160217905550604082015181600201559050507fa29262303591d48ce94646a46b652916ce782073349bb5dc261ac4c5237d9397833384604051808481526020018373ffffffffffffffffffffffffffffffffffffffff1673ffffffffffffffffffffffffffffffffffffffff168152602001828152602001935050505060405180910390a1505050565b600260009054906101000a900473ffffffffffffffffffffffffffffffffffffffff1681565b806115e13382612b6e565b15156115ec57600080fd5b600260149054906101000a900460ff1615151561160857600080fd5b600073ffffffffffffffffffffffffffffffffffffffff168473ffffffffffffffffffffffffffffffffffffffff161415151561164457600080fd5b600073ffffffffffffffffffffffffffffffffffffffff168373ffffffffffffffffffffffffffffffffffffffff161415151561168057600080fd5b61168a84836128e0565b6116948483612a3f565b61169e8383612786565b818373ffffffffffffffffffffffffffffffffffffffff168573ffffffffffffffffffffffffffffffffffffffff167fddf252ad1be2c89b69c2b068fc378daa952ba7f163c4a11628f55a4df523b3ef60405160405180910390a450505050565b6000809054906101000a900473ffffffffffffffffffffffffffffffffffffffff1673ffffffffffffffffffffffffffffffffffffffff163373ffffffffffffffffffffffffffffffffffffffff1614151561175a57600080fd5b600073ffffffffffffffffffffffffffffffffffffffff168173ffffffffffffffffffffffffffffffffffffffff161415151561179657600080fd5b806000806101000a81548173ffffffffffffffffffffffffffffffffffffffff021916908373ffffffffffffffffffffffffffffffffffffffff16021790555050565b60006117e483612069565b821015156117f157600080fd5b600760008473ffffffffffffffffffffffffffffffffffffffff1673ffffffffffffffffffffffffffffffffffffffff1681526020019081526020016000208281548110151561183d57fe5b9060005260206000200154905092915050565b600080601e600086815260200190815260200160002090506301e133808160020154014210156119855760018314156118d257601d60009054906101000a90046fffffffffffffffffffffffffffffffff166fffffffffffffffffffffffffffffffff16600b60010154600b60000154018115156118ca57fe5b049150611980565b600283141561192a57601d60009054906101000a90046fffffffffffffffffffffffffffffffff166fffffffffffffffffffffffffffffffff166011600101546011600001540181151561192257fe5b04915061197f565b600383141561197e57601d60009054906101000a90046fffffffffffffffffffffffffffffffff166fffffffffffffffffffffffffffffffff166017600101546017600001540181151561197a57fe5b0491505b5b5b611bbd565b6303c26700816002015401421015611aa25760018314156119ef57601d60009054906101000a90046fffffffffffffffffffffffffffffffff166fffffffffffffffffffffffffffffffff16600d60010154600d60000154018115156119e757fe5b049150611a9d565b6002831415611a4757601d60009054906101000a90046fffffffffffffffffffffffffffffffff166fffffffffffffffffffffffffffffffff1660136001015460136000015401811515611a3f57fe5b049150611a9c565b6003831415611a9b57601d60009054906101000a90046fffffffffffffffffffffffffffffffff166fffffffffffffffffffffffffffffffff1660196001015460196000015401811515611a9757fe5b0491505b5b5b611bbc565b6305a39a80816002015401421015611bbb576001831415611b0c57601d60009054906101000a90046fffffffffffffffffffffffffffffffff166fffffffffffffffffffffffffffffffff16600f60010154600f6000015401811515611b0457fe5b049150611bba565b6002831415611b6457601d60009054906101000a90046fffffffffffffffffffffffffffffffff166fffffffffffffffffffffffffffffffff1660156001015460156000015401811515611b5c57fe5b049150611bb9565b6003831415611bb857601d60009054906101000a90046fffffffffffffffffffffffffffffffff166fffffffffffffffffffffffffffffffff16601b60010154601b6000015401811515611bb457fe5b0491505b5b5b5b5b5b819150509392505050565b6000809054906101000a900473ffffffffffffffffffffffffffffffffffffffff1673ffffffffffffffffffffffffffffffffffffffff163373ffffffffffffffffffffffffffffffffffffffff16141515611c2357600080fd5b600260149054906101000a900460ff161515611c3e57600080fd5b6000600260146101000a81548160ff021916908315150217905550565b80611c663382612b6e565b1515611c7157600080fd5b600260149054906101000a900460ff16151515611c8d57600080fd5b611ca9848484602060405190810160405280600081525061253e565b50505050565b6000809054906101000a900473ffffffffffffffffffffffffffffffffffffffff1673ffffffffffffffffffffffffffffffffffffffff163373ffffffffffffffffffffffffffffffffffffffff16141515611d0a57600080fd5b600073ffffffffffffffffffffffffffffffffffffffff168173ffffffffffffffffffffffffffffffffffffffff1614151515611d4657600080fd5b80600160006101000a81548173ffffffffffffffffffffffffffffffffffffffff021916908373ffffffffffffffffffffffffffffffffffffffff16021790555050565b6000806004600084815260200190815260200160002060009054906101000a900473ffffffffffffffffffffffffffffffffffffffff169050600073ffffffffffffffffffffffffffffffffffffffff168173ffffffffffffffffffffffffffffffffffffffff161415915050919050565b600080611e07611406565b83101515611e1457600080fd5b600383815481101515611e2357fe5b906000526020600020906002020160010160009054906101000a90046fffffffffffffffffffffffffffffffff166fffffffffffffffffffffffffffffffff16600384815481101515611e7257fe5b9060005260206000209060020201600101601a9054906101000a900460ff166002811115611e9c57fe5b91509150915091565b600260149054906101000a900460ff1681565b602080528060005260406000206000915090505481565b600160009054906101000a900473ffffffffffffffffffffffffffffffffffffffff1673ffffffffffffffffffffffffffffffffffffffff163373ffffffffffffffffffffffffffffffffffffffff16141515611f2b57600080fd5b600160009054906101000a900473ffffffffffffffffffffffffffffffffffffffff1673ffffffffffffffffffffffffffffffffffffffff166108fc3073ffffffffffffffffffffffffffffffffffffffff16319081150290604051600060405180830381858888f19350505050158015611faa573d6000803e3d6000fd5b50565b7fffffffffffffffffffffffffffffffffffffffffffffffffffffffffb0aa71877c01000000000000000000000000000000000000000000000000000000000281565b60006004600083815260200190815260200160002060009054906101000a900473ffffffffffffffffffffffffffffffffffffffff169050600073ffffffffffffffffffffffffffffffffffffffff168173ffffffffffffffffffffffffffffffffffffffff161415151561206457600080fd5b919050565b60008073ffffffffffffffffffffffffffffffffffffffff168273ffffffffffffffffffffffffffffffffffffffff16141515156120a657600080fd5b600660008373ffffffffffffffffffffffffffffffffffffffff1673ffffffffffffffffffffffffffffffffffffffff168152602001908152602001600020549050919050565b6000809054906101000a900473ffffffffffffffffffffffffffffffffffffffff1673ffffffffffffffffffffffffffffffffffffffff163373ffffffffffffffffffffffffffffffffffffffff1614151561214857600080fd5b600260149054906101000a900460ff1615151561216457600080fd5b6001600260146101000a81548160ff021916908315150217905550565b600080600080601e600086815260200190815260200160002090508060000160009054906101000a900473ffffffffffffffffffffffffffffffffffffffff168160010160009054906101000a90046fffffffffffffffffffffffffffffffff168260020154816fffffffffffffffffffffffffffffffff169150935093509350509193909250565b6000600260149054906101000a900460ff1615151561222857600080fd5b601e600083815260200190815260200160002090508060000160009054906101000a900473ffffffffffffffffffffffffffffffffffffffff1673ffffffffffffffffffffffffffffffffffffffff163373ffffffffffffffffffffffffffffffffffffffff1614151561229b57600080fd5b601e6000838152602001908152602001600020600080820160006101000a81549073ffffffffffffffffffffffffffffffffffffffff02191690556001820160006101000a8154906fffffffffffffffffffffffffffffffff02191690556002820160009055505061230d3383612786565b7f2c56893f6f6026d19bd17b7d05c9f15c522de1ae2b1c3a825f91a73c799321f2826040518082815260200191505060405180910390a15050565b600a8054600181600116156101000203166002900480601f0160208091040260200160405190810160405280929190818152602001828054600181600116156101000203166002900480156123de5780601f106123b3576101008083540402835291602001916123de565b820191906000526020600020905b8154815290600101906020018083116123c157829003601f168201915b505050505081565b600260149054906101000a900460ff1615151561240257600080fd5b3373ffffffffffffffffffffffffffffffffffffffff168273ffffffffffffffffffffffffffffffffffffffff161415151561243d57600080fd5b80600860003373ffffffffffffffffffffffffffffffffffffffff1673ffffffffffffffffffffffffffffffffffffffff16815260200190815260200160002060008473ffffffffffffffffffffffffffffffffffffffff1673ffffffffffffffffffffffffffffffffffffffff16815260200190815260200160002060006101000a81548160ff0219169083151502179055508173ffffffffffffffffffffffffffffffffffffffff163373ffffffffffffffffffffffffffffffffffffffff167f17307eab39ab6107e8899845ad3d59bd9653f200f220920489ca2b5937696c3183604051808215151515815260200191505060405180910390a35050565b816125493382612b6e565b151561255457600080fd5b600260149054906101000a900460ff1615151561257057600080fd5b61257b8585856115d6565b61258785858585612c03565b151561259257600080fd5b5050505050565b601e6020528060005260406000206000915090508060000160009054906101000a900473ffffffffffffffffffffffffffffffffffffffff16908060010160009054906101000a90046fffffffffffffffffffffffffffffffff16908060020154905083565b601f6020528060005260406000206000915090505481565b6000600860008473ffffffffffffffffffffffffffffffffffffffff1673ffffffffffffffffffffffffffffffffffffffff16815260200190815260200160002060008373ffffffffffffffffffffffffffffffffffffffff1673ffffffffffffffffffffffffffffffffffffffff16815260200190815260200160002060009054906101000a900460ff16905092915050565b6000809054906101000a900473ffffffffffffffffffffffffffffffffffffffff1673ffffffffffffffffffffffffffffffffffffffff163373ffffffffffffffffffffffffffffffffffffffff1614151561270657600080fd5b600073ffffffffffffffffffffffffffffffffffffffff168173ffffffffffffffffffffffffffffffffffffffff161415151561274257600080fd5b80600260006101000a81548173ffffffffffffffffffffffffffffffffffffffff021916908373ffffffffffffffffffffffffffffffffffffffff16021790555050565b600073ffffffffffffffffffffffffffffffffffffffff166004600083815260200190815260200160002060009054906101000a900473ffffffffffffffffffffffffffffffffffffffff1673ffffffffffffffffffffffffffffffffffffffff161415156127f457600080fd5b816004600083815260200190815260200160002060006101000a81548173ffffffffffffffffffffffffffffffffffffffff021916908373ffffffffffffffffffffffffffffffffffffffff1602179055506128996001600660008573ffffffffffffffffffffffffffffffffffffffff1673ffffffffffffffffffffffffffffffffffffffff16815260200190815260200160002054612df190919063ffffffff16565b600660008473ffffffffffffffffffffffffffffffffffffffff1673ffffffffffffffffffffffffffffffffffffffff168152602001908152602001600020819055505050565b8173ffffffffffffffffffffffffffffffffffffffff1661290082611ff0565b73ffffffffffffffffffffffffffffffffffffffff1614151561292257600080fd5b600073ffffffffffffffffffffffffffffffffffffffff166005600083815260200190815260200160002060009054906101000a900473ffffffffffffffffffffffffffffffffffffffff1673ffffffffffffffffffffffffffffffffffffffff16141515612a3b5760006005600083815260200190815260200160002060006101000a81548173ffffffffffffffffffffffffffffffffffffffff021916908373ffffffffffffffffffffffffffffffffffffffff16021790555080600073ffffffffffffffffffffffffffffffffffffffff168373ffffffffffffffffffffffffffffffffffffffff167f8c5be1e5ebec7d5bd14f71427d1e84f3dd0314c0f7b2291e5b200ac8c7c3b92560405160405180910390a45b5050565b8173ffffffffffffffffffffffffffffffffffffffff16612a5f82611ff0565b73ffffffffffffffffffffffffffffffffffffffff16141515612a8157600080fd5b612ad46001600660008573ffffffffffffffffffffffffffffffffffffffff1673ffffffffffffffffffffffffffffffffffffffff16815260200190815260200160002054612e0f90919063ffffffff16565b600660008473ffffffffffffffffffffffffffffffffffffffff1673ffffffffffffffffffffffffffffffffffffffff1681526020019081526020016000208190555060006004600083815260200190815260200160002060006101000a81548173ffffffffffffffffffffffffffffffffffffffff021916908373ffffffffffffffffffffffffffffffffffffffff1602179055505050565b600080612b7a83611ff0565b90508073ffffffffffffffffffffffffffffffffffffffff168473ffffffffffffffffffffffffffffffffffffffff161480612be957508373ffffffffffffffffffffffffffffffffffffffff16612bd1846111cc565b73ffffffffffffffffffffffffffffffffffffffff16145b80612bfa5750612bf98185612617565b5b91505092915050565b600080612c258573ffffffffffffffffffffffffffffffffffffffff16612e28565b1515612c345760019150612de8565b8473ffffffffffffffffffffffffffffffffffffffff1663f0b9e5ba8786866040518463ffffffff167c0100000000000000000000000000000000000000000000000000000000028152600401808473ffffffffffffffffffffffffffffffffffffffff1673ffffffffffffffffffffffffffffffffffffffff16815260200183815260200180602001828103825283818151815260200191508051906020019080838360005b83811015612cf6578082015181840152602081019050612cdb565b50505050905090810190601f168015612d235780820380516001836020036101000a031916815260200191505b50945050505050602060405180830381600087803b158015612d4457600080fd5b505af1158015612d58573d6000803e3d6000fd5b505050506040513d6020811015612d6e57600080fd5b8101908080519060200190929190505050905063f0b9e5ba7c0100000000000000000000000000000000000000000000000000000000027bffffffffffffffffffffffffffffffffffffffffffffffffffffffff1916817bffffffffffffffffffffffffffffffffffffffffffffffffffffffff19161491505b50949350505050565b6000808284019050838110151515612e0557fe5b8091505092915050565b6000828211151515612e1d57fe5b818303905092915050565b600080823b905060008111915050919050565b606060405190810160405280600073ffffffffffffffffffffffffffffffffffffffff16815260200160006fffffffffffffffffffffffffffffffff1681526020016000815250905600a165627a7a72305820a219a95ad5c7e4196a29e9d463babc157692943620ec3eb7d3d79fb338a40cda0029",
  "source": "pragma solidity ^0.4.23;\nimport \"./MineorityOwnership.sol\";\n\ncontract MineorityTrading is MineorityOwnership {\n\n    // With potential to be expanded to fit user-trading system\n    struct SaleLot {\n        address seller;\n        uint128 GPUClass;\n        uint256 creationTime;\n    }\n\n    struct GPUPrice {\n        uint256 GPUPrice;\n        uint256 hostingPrice;\n    }\n\n    GPUPrice Mine_31Y1 = GPUPrice({\n        GPUPrice:800,\n        hostingPrice: 1200\n    });\n    GPUPrice Mine_31Y2 = GPUPrice({\n        GPUPrice:800,\n        hostingPrice: 1200\n    });\n    GPUPrice Mine_31Y3 = GPUPrice({\n        GPUPrice:800,\n        hostingPrice: 1200\n    });\n    \n    GPUPrice Mine_56Y1 = GPUPrice({\n        GPUPrice:800,\n        hostingPrice: 1200\n    });\n    GPUPrice Mine_56Y2 = GPUPrice({\n        GPUPrice:800,\n        hostingPrice: 1200\n    });\n    GPUPrice Mine_56Y3 = GPUPrice({\n        GPUPrice:800,\n        hostingPrice: 1200\n    });\n    \n    GPUPrice Mine_74Y1 = GPUPrice({\n        GPUPrice:800,\n        hostingPrice: 1200\n    });\n    GPUPrice Mine_74Y2 = GPUPrice({\n        GPUPrice:800,\n        hostingPrice: 1200\n    });\n    GPUPrice Mine_74Y3 = GPUPrice({\n        GPUPrice:800,\n        hostingPrice: 1200\n    });\n    \n\n    uint128 rate; \n\n    mapping (uint256 => SaleLot) public tokenIndexToSaleLot;\n    mapping (uint256 => uint256) public tokenIndexToHostingPeriod;\n    mapping (uint256 => uint256) public tokenIndexToPurchaseDate;    \n\n    event SaleCreated(uint256 tokenId,address seller,uint256 GPUClass);\n    event SaleClosed(uint256 tokenId,address seller,uint256 GPUClass);\n    event SaleCancelled(uint256 tokenId);\n    \n    // This will work for both admins and users(soon)\n    function sellToken(uint256 _tokenId,uint256 _GPUClass) public whenNotPaused {\n        clearApproval(msg.sender,_tokenId);\n        removeTokenFrom(msg.sender,_tokenId);\n\n        SaleLot memory lot = SaleLot({\n            seller: msg.sender,\n            GPUClass: uint128(_GPUClass),\n            creationTime: now\n        });\n\n        tokenIndexToSaleLot[_tokenId] = lot;\n\n        emit SaleCreated(_tokenId, msg.sender, _GPUClass);\n    }\n\n    function buyToken(uint256 _tokenId,uint256 _hostingPeriod) public payable whenNotPaused {\n        SaleLot storage lot = tokenIndexToSaleLot[_tokenId];\n\n        uint256 price = getPrice(_tokenId,_hostingPeriod,lot.GPUClass);\n\n        require(msg.value >= price);\n\n        addTokenTo(msg.sender, _tokenId);\n        //2% we will leave for ourselves\n        lot.seller.transfer((price * 98)/100);\n\n        delete tokenIndexToSaleLot[_tokenId];\n\n        tokenIndexToHostingPeriod[_tokenId] = _hostingPeriod;\n        tokenIndexToPurchaseDate[_tokenId] = now;\n\n        emit SaleClosed(_tokenId,lot.seller,lot.GPUClass);\n    }\n\n    function getPrice(uint256 _tokenId,uint256 _hostingPeriod,uint256 _GPUClass) public returns(uint256 price) {\n        SaleLot storage lot = tokenIndexToSaleLot[_tokenId];\n\n        if(now < lot.creationTime + 1 years) {\n            if(_GPUClass == 1) {\n                price = (Mine_31Y1.GPUPrice + Mine_31Y1.hostingPrice) / rate;\n            } else if(_GPUClass == 2) {\n                price = (Mine_56Y1.GPUPrice + Mine_56Y1.hostingPrice) / rate;\n            } else if(_GPUClass == 3) {\n                price = (Mine_74Y1.GPUPrice + Mine_74Y1.hostingPrice) / rate;\n            } \n        } else if(now < lot.creationTime + 2 years) {\n            if(_GPUClass == 1) {\n                price = (Mine_31Y2.GPUPrice + Mine_31Y2.hostingPrice) / rate;\n            } else if(_GPUClass == 2) {\n                price = (Mine_56Y2.GPUPrice + Mine_56Y2.hostingPrice) / rate;\n            } else if(_GPUClass == 3) {\n                price = (Mine_74Y2.GPUPrice + Mine_74Y2.hostingPrice) / rate;\n            } \n        } else if(now < lot.creationTime + 3 years) {\n            if(_GPUClass == 1) {\n                price = (Mine_31Y3.GPUPrice + Mine_31Y3.hostingPrice) / rate;\n            } else if(_GPUClass == 2) {\n                price = (Mine_56Y3.GPUPrice + Mine_56Y3.hostingPrice) / rate;\n            } else if(_GPUClass == 3) {\n                price = (Mine_74Y3.GPUPrice + Mine_74Y3.hostingPrice) / rate;\n            } \n        }\n\n        return price;\n    }\n\n\n    function removeSaleLot(uint256 _tokenId) public whenNotPaused {\n        SaleLot storage lot = tokenIndexToSaleLot[_tokenId];\n        require(msg.sender == lot.seller);\n\n        delete tokenIndexToSaleLot[_tokenId];\n        addTokenTo(msg.sender, _tokenId);\n\n        emit SaleCancelled(_tokenId);\n    }\n\n    function getSaleLot(uint256 _tokenId) public view returns (address,uint256,uint256) {\n        SaleLot storage lot = tokenIndexToSaleLot[_tokenId];\n\n        return (\n            lot.seller,\n            lot.GPUClass,\n            lot.creationTime );\n    }\n}\n",
  "sourcePath": "/home/andrew/Projects/truffleTest/wemine/contracts/MineorityTrading.sol",
  "compiler": {
    "name": "solc",
    "version": "0.4.23+commit.124ca40d.Emscripten.clang"
  },
  "schemaVersion": "1.0.1",
  "updatedAt": "2018-05-21T15:39:19.271Z"
}