{
  "contractName": "MineorityMint",
  "abi": [
    {
      "constant": true,
      "inputs": [
        {
          "name": "_interfaceID",
          "type": "bytes4"
        }
      ],
      "name": "supportsInterface",
      "outputs": [
        {
          "name": "",
          "type": "bool"
        }
      ],
      "payable": false,
      "stateMutability": "pure",
      "type": "function"
    },
    {
      "constant": true,
      "inputs": [],
      "name": "cfoAddress",
      "outputs": [
        {
          "name": "",
          "type": "address"
        }
      ],
      "payable": false,
      "stateMutability": "view",
      "type": "function"
    },
    {
      "constant": false,
      "inputs": [
        {
          "name": "_tokenId",
          "type": "uint256"
        },
        {
          "name": "_hostingPeriod",
          "type": "uint256"
        }
      ],
      "name": "buyToken",
      "outputs": [],
      "payable": true,
      "stateMutability": "payable",
      "type": "function"
    },
    {
      "constant": true,
      "inputs": [],
      "name": "name",
      "outputs": [
        {
          "name": "",
          "type": "string"
        }
      ],
      "payable": false,
      "stateMutability": "view",
      "type": "function"
    },
    {
      "constant": true,
      "inputs": [
        {
          "name": "_tokenId",
          "type": "uint256"
        }
      ],
      "name": "getApproved",
      "outputs": [
        {
          "name": "",
          "type": "address"
        }
      ],
      "payable": false,
      "stateMutability": "view",
      "type": "function"
    },
    {
      "constant": false,
      "inputs": [
        {
          "name": "_to",
          "type": "address"
        },
        {
          "name": "_tokenId",
          "type": "uint256"
        }
      ],
      "name": "approve",
      "outputs": [],
      "payable": false,
      "stateMutability": "nonpayable",
      "type": "function"
    },
    {
      "constant": true,
      "inputs": [],
      "name": "ceoAddress",
      "outputs": [
        {
          "name": "",
          "type": "address"
        }
      ],
      "payable": false,
      "stateMutability": "view",
      "type": "function"
    },
    {
      "constant": true,
      "inputs": [],
      "name": "totalSupply",
      "outputs": [
        {
          "name": "",
          "type": "uint256"
        }
      ],
      "payable": false,
      "stateMutability": "view",
      "type": "function"
    },
    {
      "constant": false,
      "inputs": [
        {
          "name": "_tokenId",
          "type": "uint256"
        },
        {
          "name": "_GPUClass",
          "type": "uint256"
        }
      ],
      "name": "sellToken",
      "outputs": [],
      "payable": false,
      "stateMutability": "nonpayable",
      "type": "function"
    },
    {
      "constant": true,
      "inputs": [],
      "name": "ctoAddress",
      "outputs": [
        {
          "name": "",
          "type": "address"
        }
      ],
      "payable": false,
      "stateMutability": "view",
      "type": "function"
    },
    {
      "constant": false,
      "inputs": [
        {
          "name": "_from",
          "type": "address"
        },
        {
          "name": "_to",
          "type": "address"
        },
        {
          "name": "_tokenId",
          "type": "uint256"
        }
      ],
      "name": "transferFrom",
      "outputs": [],
      "payable": false,
      "stateMutability": "nonpayable",
      "type": "function"
    },
    {
      "constant": false,
      "inputs": [
        {
          "name": "_newCEO",
          "type": "address"
        }
      ],
      "name": "setCEO",
      "outputs": [],
      "payable": false,
      "stateMutability": "nonpayable",
      "type": "function"
    },
    {
      "constant": true,
      "inputs": [
        {
          "name": "_owner",
          "type": "address"
        },
        {
          "name": "_index",
          "type": "uint256"
        }
      ],
      "name": "tokenOfOwnerByIndex",
      "outputs": [
        {
          "name": "",
          "type": "uint256"
        }
      ],
      "payable": false,
      "stateMutability": "view",
      "type": "function"
    },
    {
      "constant": false,
      "inputs": [],
      "name": "unpause",
      "outputs": [],
      "payable": false,
      "stateMutability": "nonpayable",
      "type": "function"
    },
    {
      "constant": false,
      "inputs": [
        {
          "name": "_from",
          "type": "address"
        },
        {
          "name": "_to",
          "type": "address"
        },
        {
          "name": "_tokenId",
          "type": "uint256"
        }
      ],
      "name": "safeTransferFrom",
      "outputs": [],
      "payable": false,
      "stateMutability": "nonpayable",
      "type": "function"
    },
    {
      "constant": false,
      "inputs": [
        {
          "name": "_newCFO",
          "type": "address"
        }
      ],
      "name": "setCFO",
      "outputs": [],
      "payable": false,
      "stateMutability": "nonpayable",
      "type": "function"
    },
    {
      "constant": true,
      "inputs": [
        {
          "name": "_tokenId",
          "type": "uint256"
        }
      ],
      "name": "exists",
      "outputs": [
        {
          "name": "",
          "type": "bool"
        }
      ],
      "payable": false,
      "stateMutability": "view",
      "type": "function"
    },
    {
      "constant": true,
      "inputs": [
        {
          "name": "_index",
          "type": "uint256"
        }
      ],
      "name": "tokenByIndex",
      "outputs": [
        {
          "name": "",
          "type": "uint256"
        },
        {
          "name": "",
          "type": "uint256"
        }
      ],
      "payable": false,
      "stateMutability": "view",
      "type": "function"
    },
    {
      "constant": true,
      "inputs": [],
      "name": "paused",
      "outputs": [
        {
          "name": "",
          "type": "bool"
        }
      ],
      "payable": false,
      "stateMutability": "view",
      "type": "function"
    },
    {
      "constant": true,
      "inputs": [
        {
          "name": "_hostingPeriod",
          "type": "uint256"
        },
        {
          "name": "_GPUClass",
          "type": "uint256"
        }
      ],
      "name": "getPrice",
      "outputs": [
        {
          "name": "price",
          "type": "uint256"
        }
      ],
      "payable": false,
      "stateMutability": "view",
      "type": "function"
    },
    {
      "constant": true,
      "inputs": [
        {
          "name": "",
          "type": "uint256"
        }
      ],
      "name": "tokenIndexToPurchaseDate",
      "outputs": [
        {
          "name": "",
          "type": "uint256"
        }
      ],
      "payable": false,
      "stateMutability": "view",
      "type": "function"
    },
    {
      "constant": false,
      "inputs": [
        {
          "name": "_owner",
          "type": "address"
        },
        {
          "name": "_tokenId",
          "type": "uint256"
        }
      ],
      "name": "_burn",
      "outputs": [],
      "payable": false,
      "stateMutability": "nonpayable",
      "type": "function"
    },
    {
      "constant": true,
      "inputs": [],
      "name": "InterfaceSignature_ERC721Optional",
      "outputs": [
        {
          "name": "",
          "type": "bytes4"
        }
      ],
      "payable": false,
      "stateMutability": "view",
      "type": "function"
    },
    {
      "constant": true,
      "inputs": [
        {
          "name": "_tokenId",
          "type": "uint256"
        }
      ],
      "name": "ownerOf",
      "outputs": [
        {
          "name": "owner",
          "type": "address"
        }
      ],
      "payable": false,
      "stateMutability": "view",
      "type": "function"
    },
    {
      "constant": true,
      "inputs": [
        {
          "name": "_owner",
          "type": "address"
        }
      ],
      "name": "balanceOf",
      "outputs": [
        {
          "name": "count",
          "type": "uint256"
        }
      ],
      "payable": false,
      "stateMutability": "view",
      "type": "function"
    },
    {
      "constant": false,
      "inputs": [],
      "name": "pause",
      "outputs": [],
      "payable": false,
      "stateMutability": "nonpayable",
      "type": "function"
    },
    {
      "constant": true,
      "inputs": [
        {
          "name": "_tokenId",
          "type": "uint256"
        }
      ],
      "name": "getSaleLot",
      "outputs": [
        {
          "name": "",
          "type": "address"
        },
        {
          "name": "",
          "type": "uint256"
        },
        {
          "name": "",
          "type": "uint256"
        }
      ],
      "payable": false,
      "stateMutability": "view",
      "type": "function"
    },
    {
      "constant": true,
      "inputs": [
        {
          "name": "",
          "type": "uint256"
        }
      ],
      "name": "tokenIndexToPurchasePrice",
      "outputs": [
        {
          "name": "",
          "type": "uint128"
        }
      ],
      "payable": false,
      "stateMutability": "view",
      "type": "function"
    },
    {
      "constant": false,
      "inputs": [
        {
          "name": "_tokenIds",
          "type": "uint256[]"
        },
        {
          "name": "_hostingPeriods",
          "type": "uint256[]"
        }
      ],
      "name": "buyTokens",
      "outputs": [],
      "payable": true,
      "stateMutability": "payable",
      "type": "function"
    },
    {
      "constant": false,
      "inputs": [
        {
          "name": "_tokenId",
          "type": "uint256"
        }
      ],
      "name": "removeSaleLot",
      "outputs": [],
      "payable": false,
      "stateMutability": "nonpayable",
      "type": "function"
    },
    {
      "constant": true,
      "inputs": [],
      "name": "symbol",
      "outputs": [
        {
          "name": "",
          "type": "string"
        }
      ],
      "payable": false,
      "stateMutability": "view",
      "type": "function"
    },
    {
      "constant": false,
      "inputs": [
        {
          "name": "_to",
          "type": "address"
        },
        {
          "name": "_approved",
          "type": "bool"
        }
      ],
      "name": "setApprovalForAll",
      "outputs": [],
      "payable": false,
      "stateMutability": "nonpayable",
      "type": "function"
    },
    {
      "constant": false,
      "inputs": [
        {
          "name": "_asicID",
          "type": "uint256"
        },
        {
          "name": "_pciVendorID",
          "type": "uint256"
        },
        {
          "name": "_pciDeviceID",
          "type": "uint256"
        },
        {
          "name": "_pciSubDeviceID",
          "type": "uint256"
        },
        {
          "name": "_pciSubVendorID",
          "type": "uint256"
        },
        {
          "name": "_memSizeMB",
          "type": "uint256"
        },
        {
          "name": "_memInfo",
          "type": "string"
        },
        {
          "name": "_GPUType",
          "type": "uint256"
        },
        {
          "name": "_GPUClass",
          "type": "uint256"
        }
      ],
      "name": "_mint",
      "outputs": [],
      "payable": false,
      "stateMutability": "nonpayable",
      "type": "function"
    },
    {
      "constant": false,
      "inputs": [
        {
          "name": "_from",
          "type": "address"
        },
        {
          "name": "_to",
          "type": "address"
        },
        {
          "name": "_tokenId",
          "type": "uint256"
        },
        {
          "name": "_data",
          "type": "bytes"
        }
      ],
      "name": "safeTransferFrom",
      "outputs": [],
      "payable": false,
      "stateMutability": "nonpayable",
      "type": "function"
    },
    {
      "constant": true,
      "inputs": [
        {
          "name": "",
          "type": "uint256"
        }
      ],
      "name": "tokenIndexToSaleLot",
      "outputs": [
        {
          "name": "seller",
          "type": "address"
        },
        {
          "name": "GPUClass",
          "type": "uint16"
        },
        {
          "name": "creationTime",
          "type": "uint256"
        }
      ],
      "payable": false,
      "stateMutability": "view",
      "type": "function"
    },
    {
      "constant": false,
      "inputs": [
        {
          "name": "_GPUClass",
          "type": "uint256"
        },
        {
          "name": "_hostingPeriod",
          "type": "uint256"
        },
        {
          "name": "_GPUPrice",
          "type": "uint256"
        },
        {
          "name": "_hostingPrice",
          "type": "uint256"
        }
      ],
      "name": "setPrice",
      "outputs": [],
      "payable": false,
      "stateMutability": "nonpayable",
      "type": "function"
    },
    {
      "constant": true,
      "inputs": [
        {
          "name": "",
          "type": "uint256"
        }
      ],
      "name": "tokenIndexToHostingPeriod",
      "outputs": [
        {
          "name": "",
          "type": "uint256"
        }
      ],
      "payable": false,
      "stateMutability": "view",
      "type": "function"
    },
    {
      "constant": true,
      "inputs": [
        {
          "name": "_owner",
          "type": "address"
        },
        {
          "name": "_operator",
          "type": "address"
        }
      ],
      "name": "isApprovedForAll",
      "outputs": [
        {
          "name": "",
          "type": "bool"
        }
      ],
      "payable": false,
      "stateMutability": "view",
      "type": "function"
    },
    {
      "constant": false,
      "inputs": [
        {
          "name": "_newCTO",
          "type": "address"
        }
      ],
      "name": "setCTO",
      "outputs": [],
      "payable": false,
      "stateMutability": "nonpayable",
      "type": "function"
    },
    {
      "anonymous": false,
      "inputs": [
        {
          "indexed": false,
          "name": "tokenId",
          "type": "uint256"
        },
        {
          "indexed": false,
          "name": "seller",
          "type": "address"
        },
        {
          "indexed": false,
          "name": "GPUClass",
          "type": "uint256"
        }
      ],
      "name": "SaleCreated",
      "type": "event"
    },
    {
      "anonymous": false,
      "inputs": [
        {
          "indexed": false,
          "name": "tokenId",
          "type": "uint256"
        },
        {
          "indexed": false,
          "name": "seller",
          "type": "address"
        },
        {
          "indexed": false,
          "name": "GPUClass",
          "type": "uint256"
        }
      ],
      "name": "SaleClosed",
      "type": "event"
    },
    {
      "anonymous": false,
      "inputs": [
        {
          "indexed": false,
          "name": "tokenId",
          "type": "uint256"
        }
      ],
      "name": "SaleCancelled",
      "type": "event"
    },
    {
      "anonymous": false,
      "inputs": [
        {
          "indexed": true,
          "name": "from",
          "type": "address"
        },
        {
          "indexed": true,
          "name": "to",
          "type": "address"
        },
        {
          "indexed": true,
          "name": "tokenId",
          "type": "uint256"
        }
      ],
      "name": "Transfer",
      "type": "event"
    },
    {
      "anonymous": false,
      "inputs": [
        {
          "indexed": true,
          "name": "owner",
          "type": "address"
        },
        {
          "indexed": true,
          "name": "approved",
          "type": "address"
        },
        {
          "indexed": true,
          "name": "tokenId",
          "type": "uint256"
        }
      ],
      "name": "Approval",
      "type": "event"
    },
    {
      "anonymous": false,
      "inputs": [
        {
          "indexed": true,
          "name": "_owner",
          "type": "address"
        },
        {
          "indexed": true,
          "name": "_operator",
          "type": "address"
        },
        {
          "indexed": false,
          "name": "_approved",
          "type": "bool"
        }
      ],
      "name": "ApprovalForAll",
      "type": "event"
    }
  ],
  "bytecode": "0x60806040526000600260146101000a81548160ff0219169083151502179055506040805190810160405280600981526020017f4d696e656f726974790000000000000000000000000000000000000000000000815250600990805190602001906200006c929190620000cf565b506040805190810160405280600481526020017f4d494e4500000000000000000000000000000000000000000000000000000000815250600a9080519060200190620000ba929190620000cf565b50348015620000c857600080fd5b506200017e565b828054600181600116156101000203166002900490600052602060002090601f016020900481019282601f106200011257805160ff191683800117855562000143565b8280016001018555821562000143579182015b828111156200014257825182559160200191906001019062000125565b5b50905062000152919062000156565b5090565b6200017b91905b80821115620001775760008160009055506001016200015d565b5090565b90565b6136f7806200018e6000396000f3006080604052600436106101e3576000357c0100000000000000000000000000000000000000000000000000000000900463ffffffff16806301ffc9a7146101e85780630519ce791461024c578063057466ea146102a357806306fdde03146102cd578063081812fc1461035d578063095ea7b3146103ca5780630a0f81681461041757806318160ddd1461046e5780631897bcf3146104995780631f513660146104d057806323b872dd1461052757806327d7874c146105945780632f745c59146105d75780633f4ba83a1461063857806342842e0e1461064f5780634e0a3379146106bc5780634f558e79146106ff5780634f6ccce7146107445780635c975abb1461078c5780635cf4ee91146107bb5780635f8a90f2146108065780636161eb1814610847578063624de3d9146108945780636352211e146108fd57806370a082311461096a5780638456cb59146109c1578063857d45f8146109d857806385d87b2b14610a53578063942a846714610ab85780639575e96214610b5457806395d89b4114610b81578063a22cb46514610c11578063a32a64f514610c60578063b88d4fde14610d19578063c054ab7514610dcc578063d176dd4514610e4f578063de2e4f8f14610e9a578063e985e9c514610edb578063fe1439b414610f56575b600080fd5b3480156101f457600080fd5b5061023260048036038101908080357bffffffffffffffffffffffffffffffffffffffffffffffffffffffff19169060200190929190505050610f99565b604051808215151515815260200191505060405180910390f35b34801561025857600080fd5b506102616110dc565b604051808273ffffffffffffffffffffffffffffffffffffffff1673ffffffffffffffffffffffffffffffffffffffff16815260200191505060405180910390f35b6102cb6004803603810190808035906020019092919080359060200190929190505050611102565b005b3480156102d957600080fd5b506102e26113e4565b6040518080602001828103825283818151815260200191508051906020019080838360005b83811015610322578082015181840152602081019050610307565b50505050905090810190601f16801561034f5780820380516001836020036101000a031916815260200191505b509250505060405180910390f35b34801561036957600080fd5b5061038860048036038101908080359060200190929190505050611482565b604051808273ffffffffffffffffffffffffffffffffffffffff1673ffffffffffffffffffffffffffffffffffffffff16815260200191505060405180910390f35b3480156103d657600080fd5b50610415600480360381019080803573ffffffffffffffffffffffffffffffffffffffff169060200190929190803590602001909291905050506114bf565b005b34801561042357600080fd5b5061042c611697565b604051808273ffffffffffffffffffffffffffffffffffffffff1673ffffffffffffffffffffffffffffffffffffffff16815260200191505060405180910390f35b34801561047a57600080fd5b506104836116bc565b6040518082815260200191505060405180910390f35b3480156104a557600080fd5b506104ce60048036038101908080359060200190929190803590602001909291905050506116c9565b005b3480156104dc57600080fd5b506104e561183c565b604051808273ffffffffffffffffffffffffffffffffffffffff1673ffffffffffffffffffffffffffffffffffffffff16815260200191505060405180910390f35b34801561053357600080fd5b50610592600480360381019080803573ffffffffffffffffffffffffffffffffffffffff169060200190929190803573ffffffffffffffffffffffffffffffffffffffff16906020019092919080359060200190929190505050611862565b005b3480156105a057600080fd5b506105d5600480360381019080803573ffffffffffffffffffffffffffffffffffffffff16906020019092919050505061198b565b005b3480156105e357600080fd5b50610622600480360381019080803573ffffffffffffffffffffffffffffffffffffffff16906020019092919080359060200190929190505050611a65565b6040518082815260200191505060405180910390f35b34801561064457600080fd5b5061064d611adc565b005b34801561065b57600080fd5b506106ba600480360381019080803573ffffffffffffffffffffffffffffffffffffffff169060200190929190803573ffffffffffffffffffffffffffffffffffffffff16906020019092919080359060200190929190505050611b6f565b005b3480156106c857600080fd5b506106fd600480360381019080803573ffffffffffffffffffffffffffffffffffffffff169060200190929190505050611bc3565b005b34801561070b57600080fd5b5061072a60048036038101908080359060200190929190505050611c9e565b604051808215151515815260200191505060405180910390f35b34801561075057600080fd5b5061076f60048036038101908080359060200190929190505050611d10565b604051808381526020018281526020019250505060405180910390f35b34801561079857600080fd5b506107a1611db9565b604051808215151515815260200191505060405180910390f35b3480156107c757600080fd5b506107f06004803603810190808035906020019092919080359060200190929190505050611dcc565b6040518082815260200191505060405180910390f35b34801561081257600080fd5b5061083160048036038101908080359060200190929190505050611e75565b6040518082815260200191505060405180910390f35b34801561085357600080fd5b50610892600480360381019080803573ffffffffffffffffffffffffffffffffffffffff16906020019092919080359060200190929190505050611e8d565b005b3480156108a057600080fd5b506108a9611f97565b60405180827bffffffffffffffffffffffffffffffffffffffffffffffffffffffff19167bffffffffffffffffffffffffffffffffffffffffffffffffffffffff1916815260200191505060405180910390f35b34801561090957600080fd5b5061092860048036038101908080359060200190929190505050611fda565b604051808273ffffffffffffffffffffffffffffffffffffffff1673ffffffffffffffffffffffffffffffffffffffff16815260200191505060405180910390f35b34801561097657600080fd5b506109ab600480360381019080803573ffffffffffffffffffffffffffffffffffffffff169060200190929190505050612053565b6040518082815260200191505060405180910390f35b3480156109cd57600080fd5b506109d66120d7565b005b3480156109e457600080fd5b50610a036004803603810190808035906020019092919050505061216b565b604051808473ffffffffffffffffffffffffffffffffffffffff1673ffffffffffffffffffffffffffffffffffffffff168152602001838152602001828152602001935050505060405180910390f35b348015610a5f57600080fd5b50610a7e600480360381019080803590602001909291905050506121d8565b60405180826fffffffffffffffffffffffffffffffff166fffffffffffffffffffffffffffffffff16815260200191505060405180910390f35b610b526004803603810190808035906020019082018035906020019080806020026020016040519081016040528093929190818152602001838360200280828437820191505050505050919291929080359060200190820180359060200190808060200260200160405190810160405280939291908181526020018383602002808284378201915050505050509192919290505050612207565b005b348015610b6057600080fd5b50610b7f6004803603810190808035906020019092919050505061259e565b005b348015610b8d57600080fd5b50610b966126ce565b6040518080602001828103825283818151815260200191508051906020019080838360005b83811015610bd6578082015181840152602081019050610bbb565b50505050905090810190601f168015610c035780820380516001836020036101000a031916815260200191505b509250505060405180910390f35b348015610c1d57600080fd5b50610c5e600480360381019080803573ffffffffffffffffffffffffffffffffffffffff16906020019092919080351515906020019092919050505061276c565b005b348015610c6c57600080fd5b50610d17600480360381019080803590602001909291908035906020019092919080359060200190929190803590602001909291908035906020019092919080359060200190929190803590602001908201803590602001908080601f016020809104026020016040519081016040528093929190818152602001838380828437820191505050505050919291929080359060200190929190803590602001909291905050506128c4565b005b348015610d2557600080fd5b50610dca600480360381019080803573ffffffffffffffffffffffffffffffffffffffff169060200190929190803573ffffffffffffffffffffffffffffffffffffffff16906020019092919080359060200190929190803590602001908201803590602001908080601f0160208091040260200160405190810160405280939291908181526020018383808284378201915050505050509192919290505050612b44565b005b348015610dd857600080fd5b50610df760048036038101908080359060200190929190505050612b9f565b604051808473ffffffffffffffffffffffffffffffffffffffff1673ffffffffffffffffffffffffffffffffffffffff1681526020018361ffff1661ffff168152602001828152602001935050505060405180910390f35b348015610e5b57600080fd5b50610e9860048036038101908080359060200190929190803590602001909291908035906020019092919080359060200190929190505050612bf7565b005b348015610ea657600080fd5b50610ec560048036038101908080359060200190929190505050612d37565b6040518082815260200191505060405180910390f35b348015610ee757600080fd5b50610f3c600480360381019080803573ffffffffffffffffffffffffffffffffffffffff169060200190929190803573ffffffffffffffffffffffffffffffffffffffff169060200190929190505050612d4f565b604051808215151515815260200191505060405180910390f35b348015610f6257600080fd5b50610f97600480360381019080803573ffffffffffffffffffffffffffffffffffffffff169060200190929190505050612de3565b005b60006301ffc9a77c0100000000000000000000000000000000000000000000000000000000027bffffffffffffffffffffffffffffffffffffffffffffffffffffffff1916827bffffffffffffffffffffffffffffffffffffffffffffffffffffffff1916148061106a57506380ac58cd7c0100000000000000000000000000000000000000000000000000000000027bffffffffffffffffffffffffffffffffffffffffffffffffffffffff1916827bffffffffffffffffffffffffffffffffffffffffffffffffffffffff1916145b806110d5575063780e9d637c0100000000000000000000000000000000000000000000000000000000027bffffffffffffffffffffffffffffffffffffffffffffffffffffffff1916827bffffffffffffffffffffffffffffffffffffffffffffffffffffffff1916145b9050919050565b600160009054906101000a900473ffffffffffffffffffffffffffffffffffffffff1681565b600080600260149054906101000a900460ff1615151561112157600080fd5b600d60008581526020019081526020016000209150600073ffffffffffffffffffffffffffffffffffffffff168260000160009054906101000a900473ffffffffffffffffffffffffffffffffffffffff1673ffffffffffffffffffffffffffffffffffffffff161415151561119657600080fd5b6111b6838360000160149054906101000a900461ffff1661ffff16611dcc565b90508034101515156111c757600080fd5b6111d13385612ebe565b8160000160009054906101000a900473ffffffffffffffffffffffffffffffffffffffff1673ffffffffffffffffffffffffffffffffffffffff166108fc60646062840281151561121e57fe5b049081150290604051600060405180830381858888f1935050505015801561124a573d6000803e3d6000fd5b50600d6000858152602001908152602001600020600080820160006101000a81549073ffffffffffffffffffffffffffffffffffffffff02191690556000820160146101000a81549061ffff0219169055600182016000905550506112b8834261301890919063ffffffff16565b600e60008681526020019081526020016000208190555042600f600086815260200190815260200160002081905550806010600086815260200190815260200160002060006101000a8154816fffffffffffffffffffffffffffffffff02191690836fffffffffffffffffffffffffffffffff1602179055507fbaff7966f0758b1794fcea83b6d60c741b6fe4ab1b2431d4353784f68551d156848360000160009054906101000a900473ffffffffffffffffffffffffffffffffffffffff168460000160149054906101000a900461ffff16604051808481526020018373ffffffffffffffffffffffffffffffffffffffff1673ffffffffffffffffffffffffffffffffffffffff1681526020018261ffff168152602001935050505060405180910390a150505050565b60098054600181600116156101000203166002900480601f01602080910402602001604051908101604052809291908181526020018280546001816001161561010002031660029004801561147a5780601f1061144f5761010080835404028352916020019161147a565b820191906000526020600020905b81548152906001019060200180831161145d57829003601f168201915b505050505081565b60006005600083815260200190815260200160002060009054906101000a900473ffffffffffffffffffffffffffffffffffffffff169050919050565b6000600260149054906101000a900460ff161515156114dd57600080fd5b6114e682611fda565b90508073ffffffffffffffffffffffffffffffffffffffff168373ffffffffffffffffffffffffffffffffffffffff161415151561152357600080fd5b8073ffffffffffffffffffffffffffffffffffffffff163373ffffffffffffffffffffffffffffffffffffffff16148061156357506115628133612d4f565b5b151561156e57600080fd5b600073ffffffffffffffffffffffffffffffffffffffff1661158f83611482565b73ffffffffffffffffffffffffffffffffffffffff161415806115df5750600073ffffffffffffffffffffffffffffffffffffffff168373ffffffffffffffffffffffffffffffffffffffff1614155b1561169257826005600084815260200190815260200160002060006101000a81548173ffffffffffffffffffffffffffffffffffffffff021916908373ffffffffffffffffffffffffffffffffffffffff160217905550818373ffffffffffffffffffffffffffffffffffffffff168273ffffffffffffffffffffffffffffffffffffffff167f8c5be1e5ebec7d5bd14f71427d1e84f3dd0314c0f7b2291e5b200ac8c7c3b92560405160405180910390a45b505050565b6000809054906101000a900473ffffffffffffffffffffffffffffffffffffffff1681565b6000600380549050905090565b6116d1613573565b600260149054906101000a900460ff161515156116ed57600080fd5b6116f73384613036565b6117013384613195565b6060604051908101604052803373ffffffffffffffffffffffffffffffffffffffff1681526020018361ffff16815260200142815250905080600d600085815260200190815260200160002060008201518160000160006101000a81548173ffffffffffffffffffffffffffffffffffffffff021916908373ffffffffffffffffffffffffffffffffffffffff16021790555060208201518160000160146101000a81548161ffff021916908361ffff160217905550604082015181600101559050507fa29262303591d48ce94646a46b652916ce782073349bb5dc261ac4c5237d9397833384604051808481526020018373ffffffffffffffffffffffffffffffffffffffff1673ffffffffffffffffffffffffffffffffffffffff168152602001828152602001935050505060405180910390a1505050565b600260009054906101000a900473ffffffffffffffffffffffffffffffffffffffff1681565b8061186d33826132c4565b151561187857600080fd5b600260149054906101000a900460ff1615151561189457600080fd5b600073ffffffffffffffffffffffffffffffffffffffff168473ffffffffffffffffffffffffffffffffffffffff16141515156118d057600080fd5b600073ffffffffffffffffffffffffffffffffffffffff168373ffffffffffffffffffffffffffffffffffffffff161415151561190c57600080fd5b6119168483613036565b6119208483613195565b61192a8383612ebe565b818373ffffffffffffffffffffffffffffffffffffffff168573ffffffffffffffffffffffffffffffffffffffff167fddf252ad1be2c89b69c2b068fc378daa952ba7f163c4a11628f55a4df523b3ef60405160405180910390a450505050565b6000809054906101000a900473ffffffffffffffffffffffffffffffffffffffff1673ffffffffffffffffffffffffffffffffffffffff163373ffffffffffffffffffffffffffffffffffffffff161415156119e657600080fd5b600073ffffffffffffffffffffffffffffffffffffffff168173ffffffffffffffffffffffffffffffffffffffff1614151515611a2257600080fd5b806000806101000a81548173ffffffffffffffffffffffffffffffffffffffff021916908373ffffffffffffffffffffffffffffffffffffffff16021790555050565b6000611a7083612053565b82101515611a7d57600080fd5b600760008473ffffffffffffffffffffffffffffffffffffffff1673ffffffffffffffffffffffffffffffffffffffff16815260200190815260200160002082815481101515611ac957fe5b9060005260206000200154905092915050565b6000809054906101000a900473ffffffffffffffffffffffffffffffffffffffff1673ffffffffffffffffffffffffffffffffffffffff163373ffffffffffffffffffffffffffffffffffffffff16141515611b3757600080fd5b600260149054906101000a900460ff161515611b5257600080fd5b6000600260146101000a81548160ff021916908315150217905550565b80611b7a33826132c4565b1515611b8557600080fd5b600260149054906101000a900460ff16151515611ba157600080fd5b611bbd8484846020604051908101604052806000815250612b44565b50505050565b6000809054906101000a900473ffffffffffffffffffffffffffffffffffffffff1673ffffffffffffffffffffffffffffffffffffffff163373ffffffffffffffffffffffffffffffffffffffff16141515611c1e57600080fd5b600073ffffffffffffffffffffffffffffffffffffffff168173ffffffffffffffffffffffffffffffffffffffff1614151515611c5a57600080fd5b80600160006101000a81548173ffffffffffffffffffffffffffffffffffffffff021916908373ffffffffffffffffffffffffffffffffffffffff16021790555050565b6000806004600084815260200190815260200160002060009054906101000a900473ffffffffffffffffffffffffffffffffffffffff169050600073ffffffffffffffffffffffffffffffffffffffff168173ffffffffffffffffffffffffffffffffffffffff161415915050919050565b600080611d1b6116bc565b83101515611d2857600080fd5b600383815481101515611d3757fe5b906000526020600020906002020160010160009054906101000a90046fffffffffffffffffffffffffffffffff166fffffffffffffffffffffffffffffffff16600384815481101515611d8657fe5b9060005260206000209060020201600101601a9054906101000a900460ff166002811115611db057fe5b91509150915091565b600260149054906101000a900460ff1681565b600080600c600084815260200190815260200160002060008581526020019081526020016000209050611e6c8160000160109054906101000a90046fffffffffffffffffffffffffffffffff166fffffffffffffffffffffffffffffffff168260000160009054906101000a90046fffffffffffffffffffffffffffffffff166fffffffffffffffffffffffffffffffff1661301890919063ffffffff16565b91505092915050565b600f6020528060005260406000206000915090505481565b600260009054906101000a900473ffffffffffffffffffffffffffffffffffffffff1673ffffffffffffffffffffffffffffffffffffffff163373ffffffffffffffffffffffffffffffffffffffff16141515611ee957600080fd5b8173ffffffffffffffffffffffffffffffffffffffff163373ffffffffffffffffffffffffffffffffffffffff16141515611f2357600080fd5b611f2d8282613036565b611f378282613195565b80600073ffffffffffffffffffffffffffffffffffffffff168373ffffffffffffffffffffffffffffffffffffffff167fddf252ad1be2c89b69c2b068fc378daa952ba7f163c4a11628f55a4df523b3ef60405160405180910390a45050565b7fffffffffffffffffffffffffffffffffffffffffffffffffffffffffb0aa71877c01000000000000000000000000000000000000000000000000000000000281565b60006004600083815260200190815260200160002060009054906101000a900473ffffffffffffffffffffffffffffffffffffffff169050600073ffffffffffffffffffffffffffffffffffffffff168173ffffffffffffffffffffffffffffffffffffffff161415151561204e57600080fd5b919050565b60008073ffffffffffffffffffffffffffffffffffffffff168273ffffffffffffffffffffffffffffffffffffffff161415151561209057600080fd5b600660008373ffffffffffffffffffffffffffffffffffffffff1673ffffffffffffffffffffffffffffffffffffffff168152602001908152602001600020549050919050565b6000809054906101000a900473ffffffffffffffffffffffffffffffffffffffff1673ffffffffffffffffffffffffffffffffffffffff163373ffffffffffffffffffffffffffffffffffffffff1614151561213257600080fd5b600260149054906101000a900460ff1615151561214e57600080fd5b6001600260146101000a81548160ff021916908315150217905550565b600080600080600d600086815260200190815260200160002090508060000160009054906101000a900473ffffffffffffffffffffffffffffffffffffffff168160000160149054906101000a900461ffff1682600101548161ffff169150935093509350509193909250565b60106020528060005260406000206000915054906101000a90046fffffffffffffffffffffffffffffffff1681565b6000806000600260149054906101000a900460ff1615151561222857600080fd5b600092505b84518361ffff16101561259757600d6000868561ffff1681518110151561225057fe5b90602001906020020151815260200190815260200160002091506122a5848461ffff1681518110151561227f57fe5b906020019060200201518360000160149054906101000a900461ffff1661ffff16611dcc565b90508034101515156122b657600080fd5b6122db33868561ffff168151811015156122cc57fe5b90602001906020020151612ebe565b8160000160009054906101000a900473ffffffffffffffffffffffffffffffffffffffff1673ffffffffffffffffffffffffffffffffffffffff166108fc60646062840281151561232857fe5b049081150290604051600060405180830381858888f19350505050158015612354573d6000803e3d6000fd5b50600d6000868561ffff1681518110151561236b57fe5b906020019060200201518152602001908152602001600020600080820160006101000a81549073ffffffffffffffffffffffffffffffffffffffff02191690556000820160146101000a81549061ffff0219169055600182016000905550506123f8848461ffff168151811015156123df57fe5b906020019060200201514261301890919063ffffffff16565b600e6000878661ffff1681518110151561240e57fe5b9060200190602002015181526020019081526020016000208190555042600f6000878661ffff1681518110151561244157fe5b906020019060200201518152602001908152602001600020819055508060106000878661ffff1681518110151561247457fe5b90602001906020020151815260200190815260200160002060006101000a8154816fffffffffffffffffffffffffffffffff02191690836fffffffffffffffffffffffffffffffff1602179055507fbaff7966f0758b1794fcea83b6d60c741b6fe4ab1b2431d4353784f68551d156858461ffff168151811015156124f557fe5b906020019060200201518360000160009054906101000a900473ffffffffffffffffffffffffffffffffffffffff168460000160149054906101000a900461ffff16604051808481526020018373ffffffffffffffffffffffffffffffffffffffff1673ffffffffffffffffffffffffffffffffffffffff1681526020018261ffff168152602001935050505060405180910390a1828060010193505061222d565b5050505050565b6000600260149054906101000a900460ff161515156125bc57600080fd5b600d600083815260200190815260200160002090508060000160009054906101000a900473ffffffffffffffffffffffffffffffffffffffff1673ffffffffffffffffffffffffffffffffffffffff163373ffffffffffffffffffffffffffffffffffffffff1614151561262f57600080fd5b600d6000838152602001908152602001600020600080820160006101000a81549073ffffffffffffffffffffffffffffffffffffffff02191690556000820160146101000a81549061ffff0219169055600182016000905550506126933383612ebe565b7f2c56893f6f6026d19bd17b7d05c9f15c522de1ae2b1c3a825f91a73c799321f2826040518082815260200191505060405180910390a15050565b600a8054600181600116156101000203166002900480601f0160208091040260200160405190810160405280929190818152602001828054600181600116156101000203166002900480156127645780601f1061273957610100808354040283529160200191612764565b820191906000526020600020905b81548152906001019060200180831161274757829003601f168201915b505050505081565b600260149054906101000a900460ff1615151561278857600080fd5b3373ffffffffffffffffffffffffffffffffffffffff168273ffffffffffffffffffffffffffffffffffffffff16141515156127c357600080fd5b80600860003373ffffffffffffffffffffffffffffffffffffffff1673ffffffffffffffffffffffffffffffffffffffff16815260200190815260200160002060008473ffffffffffffffffffffffffffffffffffffffff1673ffffffffffffffffffffffffffffffffffffffff16815260200190815260200160002060006101000a81548160ff0219169083151502179055508173ffffffffffffffffffffffffffffffffffffffff163373ffffffffffffffffffffffffffffffffffffffff167f17307eab39ab6107e8899845ad3d59bd9653f200f220920489ca2b5937696c3183604051808215151515815260200191505060405180910390a35050565b6128cc6135af565b6000600260009054906101000a900473ffffffffffffffffffffffffffffffffffffffff1673ffffffffffffffffffffffffffffffffffffffff163373ffffffffffffffffffffffffffffffffffffffff1614151561292a57600080fd5b610100604051908101604052808681526020018c6fffffffffffffffffffffffffffffffff1681526020018b61ffff1681526020018a61ffff1681526020018961ffff1681526020018861ffff1681526020018761ffff16815260200185600281111561299357fe5b600281111561299e57fe5b815250915060038054905090506003829080600181540180825580915050906001820390600052602060002090600202016000909192909190915060008201518160000190805190602001906129f5929190613626565b5060208201518160010160006101000a8154816fffffffffffffffffffffffffffffffff02191690836fffffffffffffffffffffffffffffffff16021790555060408201518160010160106101000a81548161ffff021916908361ffff16021790555060608201518160010160126101000a81548161ffff021916908361ffff16021790555060808201518160010160146101000a81548161ffff021916908361ffff16021790555060a08201518160010160166101000a81548161ffff021916908361ffff16021790555060c08201518160010160186101000a81548161ffff021916908361ffff16021790555060e082015181600101601a6101000a81548160ff02191690836002811115612b0857fe5b0217905550505050612b1a3382612ebe565b63ffffffff8111151515612b2d57600080fd5b612b3781846116c9565b5050505050505050505050565b81612b4f33826132c4565b1515612b5a57600080fd5b600260149054906101000a900460ff16151515612b7657600080fd5b612b81858585611862565b612b8d85858585613359565b1515612b9857600080fd5b5050505050565b600d6020528060005260406000206000915090508060000160009054906101000a900473ffffffffffffffffffffffffffffffffffffffff16908060000160149054906101000a900461ffff16908060010154905083565b600260009054906101000a900473ffffffffffffffffffffffffffffffffffffffff1673ffffffffffffffffffffffffffffffffffffffff163373ffffffffffffffffffffffffffffffffffffffff16141515612c5357600080fd5b6040805190810160405280836fffffffffffffffffffffffffffffffff168152602001826fffffffffffffffffffffffffffffffff16815250600c6000868152602001908152602001600020600085815260200190815260200160002060008201518160000160006101000a8154816fffffffffffffffffffffffffffffffff02191690836fffffffffffffffffffffffffffffffff16021790555060208201518160000160106101000a8154816fffffffffffffffffffffffffffffffff02191690836fffffffffffffffffffffffffffffffff16021790555090505050505050565b600e6020528060005260406000206000915090505481565b6000600860008473ffffffffffffffffffffffffffffffffffffffff1673ffffffffffffffffffffffffffffffffffffffff16815260200190815260200160002060008373ffffffffffffffffffffffffffffffffffffffff1673ffffffffffffffffffffffffffffffffffffffff16815260200190815260200160002060009054906101000a900460ff16905092915050565b6000809054906101000a900473ffffffffffffffffffffffffffffffffffffffff1673ffffffffffffffffffffffffffffffffffffffff163373ffffffffffffffffffffffffffffffffffffffff16141515612e3e57600080fd5b600073ffffffffffffffffffffffffffffffffffffffff168173ffffffffffffffffffffffffffffffffffffffff1614151515612e7a57600080fd5b80600260006101000a81548173ffffffffffffffffffffffffffffffffffffffff021916908373ffffffffffffffffffffffffffffffffffffffff16021790555050565b600073ffffffffffffffffffffffffffffffffffffffff166004600083815260200190815260200160002060009054906101000a900473ffffffffffffffffffffffffffffffffffffffff1673ffffffffffffffffffffffffffffffffffffffff16141515612f2c57600080fd5b816004600083815260200190815260200160002060006101000a81548173ffffffffffffffffffffffffffffffffffffffff021916908373ffffffffffffffffffffffffffffffffffffffff160217905550612fd16001600660008573ffffffffffffffffffffffffffffffffffffffff1673ffffffffffffffffffffffffffffffffffffffff1681526020019081526020016000205461301890919063ffffffff16565b600660008473ffffffffffffffffffffffffffffffffffffffff1673ffffffffffffffffffffffffffffffffffffffff168152602001908152602001600020819055505050565b600080828401905083811015151561302c57fe5b8091505092915050565b8173ffffffffffffffffffffffffffffffffffffffff1661305682611fda565b73ffffffffffffffffffffffffffffffffffffffff1614151561307857600080fd5b600073ffffffffffffffffffffffffffffffffffffffff166005600083815260200190815260200160002060009054906101000a900473ffffffffffffffffffffffffffffffffffffffff1673ffffffffffffffffffffffffffffffffffffffff161415156131915760006005600083815260200190815260200160002060006101000a81548173ffffffffffffffffffffffffffffffffffffffff021916908373ffffffffffffffffffffffffffffffffffffffff16021790555080600073ffffffffffffffffffffffffffffffffffffffff168373ffffffffffffffffffffffffffffffffffffffff167f8c5be1e5ebec7d5bd14f71427d1e84f3dd0314c0f7b2291e5b200ac8c7c3b92560405160405180910390a45b5050565b8173ffffffffffffffffffffffffffffffffffffffff166131b582611fda565b73ffffffffffffffffffffffffffffffffffffffff161415156131d757600080fd5b61322a6001600660008573ffffffffffffffffffffffffffffffffffffffff1673ffffffffffffffffffffffffffffffffffffffff1681526020019081526020016000205461354790919063ffffffff16565b600660008473ffffffffffffffffffffffffffffffffffffffff1673ffffffffffffffffffffffffffffffffffffffff1681526020019081526020016000208190555060006004600083815260200190815260200160002060006101000a81548173ffffffffffffffffffffffffffffffffffffffff021916908373ffffffffffffffffffffffffffffffffffffffff1602179055505050565b6000806132d083611fda565b90508073ffffffffffffffffffffffffffffffffffffffff168473ffffffffffffffffffffffffffffffffffffffff16148061333f57508373ffffffffffffffffffffffffffffffffffffffff1661332784611482565b73ffffffffffffffffffffffffffffffffffffffff16145b80613350575061334f8185612d4f565b5b91505092915050565b60008061337b8573ffffffffffffffffffffffffffffffffffffffff16613560565b151561338a576001915061353e565b8473ffffffffffffffffffffffffffffffffffffffff1663f0b9e5ba8786866040518463ffffffff167c0100000000000000000000000000000000000000000000000000000000028152600401808473ffffffffffffffffffffffffffffffffffffffff1673ffffffffffffffffffffffffffffffffffffffff16815260200183815260200180602001828103825283818151815260200191508051906020019080838360005b8381101561344c578082015181840152602081019050613431565b50505050905090810190601f1680156134795780820380516001836020036101000a031916815260200191505b50945050505050602060405180830381600087803b15801561349a57600080fd5b505af11580156134ae573d6000803e3d6000fd5b505050506040513d60208110156134c457600080fd5b8101908080519060200190929190505050905063f0b9e5ba7c0100000000000000000000000000000000000000000000000000000000027bffffffffffffffffffffffffffffffffffffffffffffffffffffffff1916817bffffffffffffffffffffffffffffffffffffffffffffffffffffffff19161491505b50949350505050565b600082821115151561355557fe5b818303905092915050565b600080823b905060008111915050919050565b606060405190810160405280600073ffffffffffffffffffffffffffffffffffffffff168152602001600061ffff168152602001600081525090565b610100604051908101604052806060815260200160006fffffffffffffffffffffffffffffffff168152602001600061ffff168152602001600061ffff168152602001600061ffff168152602001600061ffff168152602001600061ffff1681526020016000600281111561362057fe5b81525090565b828054600181600116156101000203166002900490600052602060002090601f016020900481019282601f1061366757805160ff1916838001178555613695565b82800160010185558215613695579182015b82811115613694578251825591602001919060010190613679565b5b5090506136a291906136a6565b5090565b6136c891905b808211156136c45760008160009055506001016136ac565b5090565b905600a165627a7a72305820f7da90d5184126e38c5301a801878ee9450a937f3be837a86b7dedfd6f3ccd140029",
  "source": "pragma solidity ^0.4.23;\nimport \"./MineorityTrading.sol\";\n\ncontract MineorityMint is MineorityTrading{\n\n    //**Mint and burn tokens**/\n        \n    //* Function to mint new token and immediately put it on sale\n    // Requires sender to be CTO address\n    function _mint(\n        uint256 _asicID,\n        uint256 _pciVendorID,\n        uint256 _pciDeviceID,\n        uint256 _pciSubDeviceID,\n        uint256 _pciSubVendorID,\n        uint256 _memSizeMB,\n        string _memInfo,\n        uint256 _GPUType,\n        uint256 _GPUClass) public onlyCTO\n    {\n        Token memory _token = Token({\n            asicID: uint128(_asicID),\n            pciVendorID: uint16(_pciVendorID),\n            pciDeviceID: uint16(_pciDeviceID),\n            pciSubDeviceID: uint16(_pciSubDeviceID),\n            pciSubVendorID: uint16(_pciSubVendorID),\n            memSizeMB: uint16(_memSizeMB),\n            memInfo: _memInfo,\n            GPUType: asicManufacturer(_GPUType)\n        });\n\n        uint256 _tokenId = allTokens.length;\n        allTokens.push(_token); \n        // uint256 _tokenId = allTokens.push(_token);\n        addTokenTo(msg.sender,_tokenId);\n        // Just to make sure\n        require(_tokenId <= 4294967295);\n\n        sellToken(_tokenId, _GPUClass);\n    }\n\n    //* Burns token in case when user wants his GPU to be shipped\n    // Requires sender to be owner of token\n    function _burn(address _owner, uint256 _tokenId) public onlyCTO {\n        require(msg.sender == _owner);\n        clearApproval(_owner, _tokenId);\n        removeTokenFrom(_owner, _tokenId);\n        emit Transfer(_owner, address(0), _tokenId);\n    }\n}\n",
  "sourcePath": "/home/andrew/Projects/truffleTest/wemine/contracts/MineorityMint.sol",
  "compiler": {
    "name": "solc",
    "version": "0.4.23+commit.124ca40d.Emscripten.clang"
  },
  "schemaVersion": "1.0.1",
  "updatedAt": "2018-05-25T12:15:53.698Z"
}