{
  "contractName": "MineoritySale",
  "abi": [
    {
      "constant": true,
      "inputs": [
        {
          "name": "_interfaceID",
          "type": "bytes4"
        }
      ],
      "name": "supportsInterface",
      "outputs": [
        {
          "name": "",
          "type": "bool"
        }
      ],
      "payable": false,
      "stateMutability": "pure",
      "type": "function"
    },
    {
      "constant": true,
      "inputs": [],
      "name": "name",
      "outputs": [
        {
          "name": "",
          "type": "string"
        }
      ],
      "payable": false,
      "stateMutability": "view",
      "type": "function"
    },
    {
      "constant": true,
      "inputs": [
        {
          "name": "_tokenId",
          "type": "uint256"
        }
      ],
      "name": "getApproved",
      "outputs": [
        {
          "name": "",
          "type": "address"
        }
      ],
      "payable": false,
      "stateMutability": "view",
      "type": "function"
    },
    {
      "constant": false,
      "inputs": [
        {
          "name": "_to",
          "type": "address"
        },
        {
          "name": "_tokenId",
          "type": "uint256"
        }
      ],
      "name": "approve",
      "outputs": [],
      "payable": false,
      "stateMutability": "nonpayable",
      "type": "function"
    },
    {
      "constant": true,
      "inputs": [],
      "name": "totalSupply",
      "outputs": [
        {
          "name": "",
          "type": "uint256"
        }
      ],
      "payable": false,
      "stateMutability": "view",
      "type": "function"
    },
    {
      "constant": false,
      "inputs": [
        {
          "name": "_tokenId",
          "type": "uint256"
        },
        {
          "name": "_price",
          "type": "uint256"
        }
      ],
      "name": "sellToken",
      "outputs": [],
      "payable": false,
      "stateMutability": "nonpayable",
      "type": "function"
    },
    {
      "constant": false,
      "inputs": [
        {
          "name": "_from",
          "type": "address"
        },
        {
          "name": "_to",
          "type": "address"
        },
        {
          "name": "_tokenId",
          "type": "uint256"
        }
      ],
      "name": "transferFrom",
      "outputs": [],
      "payable": false,
      "stateMutability": "nonpayable",
      "type": "function"
    },
    {
      "constant": false,
      "inputs": [
        {
          "name": "_tokenId",
          "type": "uint256"
        }
      ],
      "name": "buyToken",
      "outputs": [],
      "payable": true,
      "stateMutability": "payable",
      "type": "function"
    },
    {
      "constant": true,
      "inputs": [
        {
          "name": "_owner",
          "type": "address"
        },
        {
          "name": "_index",
          "type": "uint256"
        }
      ],
      "name": "tokenOfOwnerByIndex",
      "outputs": [
        {
          "name": "",
          "type": "uint256"
        }
      ],
      "payable": false,
      "stateMutability": "view",
      "type": "function"
    },
    {
      "constant": false,
      "inputs": [
        {
          "name": "_from",
          "type": "address"
        },
        {
          "name": "_to",
          "type": "address"
        },
        {
          "name": "_tokenId",
          "type": "uint256"
        }
      ],
      "name": "safeTransferFrom",
      "outputs": [],
      "payable": false,
      "stateMutability": "nonpayable",
      "type": "function"
    },
    {
      "constant": false,
      "inputs": [
        {
          "name": "_GPUID",
          "type": "string"
        },
        {
          "name": "_GPUType",
          "type": "uint256"
        },
        {
          "name": "_price",
          "type": "uint256"
        }
      ],
      "name": "_mint",
      "outputs": [],
      "payable": false,
      "stateMutability": "nonpayable",
      "type": "function"
    },
    {
      "constant": true,
      "inputs": [
        {
          "name": "_tokenId",
          "type": "uint256"
        }
      ],
      "name": "exists",
      "outputs": [
        {
          "name": "",
          "type": "bool"
        }
      ],
      "payable": false,
      "stateMutability": "view",
      "type": "function"
    },
    {
      "constant": true,
      "inputs": [
        {
          "name": "_index",
          "type": "uint256"
        }
      ],
      "name": "tokenByIndex",
      "outputs": [
        {
          "name": "",
          "type": "uint256"
        },
        {
          "name": "",
          "type": "uint256"
        }
      ],
      "payable": false,
      "stateMutability": "view",
      "type": "function"
    },
    {
      "constant": false,
      "inputs": [
        {
          "name": "_owner",
          "type": "address"
        },
        {
          "name": "_tokenId",
          "type": "uint256"
        }
      ],
      "name": "_burn",
      "outputs": [],
      "payable": false,
      "stateMutability": "nonpayable",
      "type": "function"
    },
    {
      "constant": true,
      "inputs": [],
      "name": "InterfaceSignature_ERC721Optional",
      "outputs": [
        {
          "name": "",
          "type": "bytes4"
        }
      ],
      "payable": false,
      "stateMutability": "view",
      "type": "function"
    },
    {
      "constant": true,
      "inputs": [
        {
          "name": "_tokenId",
          "type": "uint256"
        }
      ],
      "name": "ownerOf",
      "outputs": [
        {
          "name": "owner",
          "type": "address"
        }
      ],
      "payable": false,
      "stateMutability": "view",
      "type": "function"
    },
    {
      "constant": true,
      "inputs": [
        {
          "name": "_owner",
          "type": "address"
        }
      ],
      "name": "balanceOf",
      "outputs": [
        {
          "name": "count",
          "type": "uint256"
        }
      ],
      "payable": false,
      "stateMutability": "view",
      "type": "function"
    },
    {
      "constant": true,
      "inputs": [
        {
          "name": "_tokenId",
          "type": "uint256"
        }
      ],
      "name": "getSaleLot",
      "outputs": [
        {
          "name": "",
          "type": "address"
        },
        {
          "name": "",
          "type": "uint256"
        }
      ],
      "payable": false,
      "stateMutability": "view",
      "type": "function"
    },
    {
      "constant": false,
      "inputs": [
        {
          "name": "_checksum",
          "type": "uint256"
        }
      ],
      "name": "proveOwner",
      "outputs": [],
      "payable": false,
      "stateMutability": "nonpayable",
      "type": "function"
    },
    {
      "constant": false,
      "inputs": [
        {
          "name": "_tokenId",
          "type": "uint256"
        }
      ],
      "name": "removeSaleLot",
      "outputs": [],
      "payable": false,
      "stateMutability": "nonpayable",
      "type": "function"
    },
    {
      "constant": true,
      "inputs": [],
      "name": "symbol",
      "outputs": [
        {
          "name": "",
          "type": "string"
        }
      ],
      "payable": false,
      "stateMutability": "view",
      "type": "function"
    },
    {
      "constant": false,
      "inputs": [
        {
          "name": "_to",
          "type": "address"
        },
        {
          "name": "_approved",
          "type": "bool"
        }
      ],
      "name": "setApprovalForAll",
      "outputs": [],
      "payable": false,
      "stateMutability": "nonpayable",
      "type": "function"
    },
    {
      "constant": false,
      "inputs": [
        {
          "name": "_from",
          "type": "address"
        },
        {
          "name": "_to",
          "type": "address"
        },
        {
          "name": "_tokenId",
          "type": "uint256"
        },
        {
          "name": "_data",
          "type": "bytes"
        }
      ],
      "name": "safeTransferFrom",
      "outputs": [],
      "payable": false,
      "stateMutability": "nonpayable",
      "type": "function"
    },
    {
      "constant": true,
      "inputs": [
        {
          "name": "",
          "type": "uint256"
        }
      ],
      "name": "tokenIndexToSaleLot",
      "outputs": [
        {
          "name": "seller",
          "type": "address"
        },
        {
          "name": "price",
          "type": "uint128"
        }
      ],
      "payable": false,
      "stateMutability": "view",
      "type": "function"
    },
    {
      "constant": true,
      "inputs": [
        {
          "name": "",
          "type": "address"
        },
        {
          "name": "",
          "type": "uint256"
        }
      ],
      "name": "ownedTokens",
      "outputs": [
        {
          "name": "",
          "type": "uint256"
        }
      ],
      "payable": false,
      "stateMutability": "view",
      "type": "function"
    },
    {
      "constant": true,
      "inputs": [
        {
          "name": "_owner",
          "type": "address"
        },
        {
          "name": "_operator",
          "type": "address"
        }
      ],
      "name": "isApprovedForAll",
      "outputs": [
        {
          "name": "",
          "type": "bool"
        }
      ],
      "payable": false,
      "stateMutability": "view",
      "type": "function"
    },
    {
      "constant": false,
      "inputs": [
        {
          "name": "_tokenId",
          "type": "uint256"
        }
      ],
      "name": "switchStatus",
      "outputs": [],
      "payable": false,
      "stateMutability": "nonpayable",
      "type": "function"
    },
    {
      "anonymous": false,
      "inputs": [
        {
          "indexed": false,
          "name": "tokenId",
          "type": "uint256"
        },
        {
          "indexed": false,
          "name": "seller",
          "type": "address"
        },
        {
          "indexed": false,
          "name": "price",
          "type": "uint256"
        }
      ],
      "name": "SaleCreated",
      "type": "event"
    },
    {
      "anonymous": false,
      "inputs": [
        {
          "indexed": false,
          "name": "tokenId",
          "type": "uint256"
        },
        {
          "indexed": false,
          "name": "seller",
          "type": "address"
        },
        {
          "indexed": false,
          "name": "price",
          "type": "uint256"
        }
      ],
      "name": "SaleClosed",
      "type": "event"
    },
    {
      "anonymous": false,
      "inputs": [
        {
          "indexed": false,
          "name": "tokenId",
          "type": "uint256"
        }
      ],
      "name": "SaleCancelled",
      "type": "event"
    },
    {
      "anonymous": false,
      "inputs": [
        {
          "indexed": false,
          "name": "checksum",
          "type": "uint256"
        }
      ],
      "name": "Check",
      "type": "event"
    },
    {
      "anonymous": false,
      "inputs": [
        {
          "indexed": true,
          "name": "from",
          "type": "address"
        },
        {
          "indexed": true,
          "name": "to",
          "type": "address"
        },
        {
          "indexed": true,
          "name": "tokenId",
          "type": "uint256"
        }
      ],
      "name": "Transfer",
      "type": "event"
    },
    {
      "anonymous": false,
      "inputs": [
        {
          "indexed": true,
          "name": "owner",
          "type": "address"
        },
        {
          "indexed": true,
          "name": "approved",
          "type": "address"
        },
        {
          "indexed": true,
          "name": "tokenId",
          "type": "uint256"
        }
      ],
      "name": "Approval",
      "type": "event"
    },
    {
      "anonymous": false,
      "inputs": [
        {
          "indexed": true,
          "name": "_owner",
          "type": "address"
        },
        {
          "indexed": true,
          "name": "_operator",
          "type": "address"
        },
        {
          "indexed": false,
          "name": "_approved",
          "type": "bool"
        }
      ],
      "name": "ApprovalForAll",
      "type": "event"
    }
  ],
  "bytecode": "0x60806040526040805190810160405280600981526020017f4d696e656f7269747900000000000000000000000000000000000000000000008152506000908051906020019062000051929190620000b4565b506040805190810160405280600481526020017f4d494e4500000000000000000000000000000000000000000000000000000000815250600190805190602001906200009f929190620000b4565b50348015620000ad57600080fd5b5062000163565b828054600181600116156101000203166002900490600052602060002090601f016020900481019282601f10620000f757805160ff191683800117855562000128565b8280016001018555821562000128579182015b82811115620001275782518255916020019190600101906200010a565b5b5090506200013791906200013b565b5090565b6200016091905b808211156200015c57600081600090555060010162000142565b5090565b90565b61257e80620001736000396000f30060806040526004361061015f576000357c0100000000000000000000000000000000000000000000000000000000900463ffffffff16806301ffc9a71461016457806306fdde03146101c8578063081812fc14610258578063095ea7b3146102c557806318160ddd146103125780631897bcf31461033d57806323b872dd146103745780632d296bf1146103e15780632f745c591461040157806342842e0e14610462578063429e1699146104cf5780634f558e791461054c5780634f6ccce7146105915780636161eb18146105d9578063624de3d9146106265780636352211e1461068f57806370a08231146106fc578063857d45f8146107535780638d56daeb146107c75780639575e962146107f457806395d89b4114610821578063a22cb465146108b1578063b88d4fde14610900578063c054ab75146109b3578063e149f03614610a4b578063e985e9c514610aac578063ffe3035914610b27575b600080fd5b34801561017057600080fd5b506101ae60048036038101908080357bffffffffffffffffffffffffffffffffffffffffffffffffffffffff19169060200190929190505050610b54565b604051808215151515815260200191505060405180910390f35b3480156101d457600080fd5b506101dd610c97565b6040518080602001828103825283818151815260200191508051906020019080838360005b8381101561021d578082015181840152602081019050610202565b50505050905090810190601f16801561024a5780820380516001836020036101000a031916815260200191505b509250505060405180910390f35b34801561026457600080fd5b5061028360048036038101908080359060200190929190505050610d35565b604051808273ffffffffffffffffffffffffffffffffffffffff1673ffffffffffffffffffffffffffffffffffffffff16815260200191505060405180910390f35b3480156102d157600080fd5b50610310600480360381019080803573ffffffffffffffffffffffffffffffffffffffff16906020019092919080359060200190929190505050610d72565b005b34801561031e57600080fd5b50610327610f2e565b6040518082815260200191505060405180910390f35b34801561034957600080fd5b506103726004803603810190808035906020019092919080359060200190929190505050610f3b565b005b34801561038057600080fd5b506103df600480360381019080803573ffffffffffffffffffffffffffffffffffffffff169060200190929190803573ffffffffffffffffffffffffffffffffffffffff169060200190929190803590602001909291905050506110ab565b005b6103ff600480360381019080803590602001909291905050506111b8565b005b34801561040d57600080fd5b5061044c600480360381019080803573ffffffffffffffffffffffffffffffffffffffff169060200190929190803590602001909291905050506113b0565b6040518082815260200191505060405180910390f35b34801561046e57600080fd5b506104cd600480360381019080803573ffffffffffffffffffffffffffffffffffffffff169060200190929190803573ffffffffffffffffffffffffffffffffffffffff16906020019092919080359060200190929190505050611427565b005b3480156104db57600080fd5b5061054a600480360381019080803590602001908201803590602001908080601f0160208091040260200160405190810160405280939291908181526020018383808284378201915050505050509192919290803590602001909291908035906020019092919050505061145f565b005b34801561055857600080fd5b5061057760048036038101908080359060200190929190505050611578565b604051808215151515815260200191505060405180910390f35b34801561059d57600080fd5b506105bc600480360381019080803590602001909291905050506115ea565b604051808381526020018281526020019250505060405180910390f35b3480156105e557600080fd5b50610624600480360381019080803573ffffffffffffffffffffffffffffffffffffffff1690602001909291908035906020019092919050505061167d565b005b34801561063257600080fd5b5061063b61172b565b60405180827bffffffffffffffffffffffffffffffffffffffffffffffffffffffff19167bffffffffffffffffffffffffffffffffffffffffffffffffffffffff1916815260200191505060405180910390f35b34801561069b57600080fd5b506106ba6004803603810190808035906020019092919050505061176e565b604051808273ffffffffffffffffffffffffffffffffffffffff1673ffffffffffffffffffffffffffffffffffffffff16815260200191505060405180910390f35b34801561070857600080fd5b5061073d600480360381019080803573ffffffffffffffffffffffffffffffffffffffff1690602001909291905050506117e7565b6040518082815260200191505060405180910390f35b34801561075f57600080fd5b5061077e6004803603810190808035906020019092919050505061186b565b604051808373ffffffffffffffffffffffffffffffffffffffff1673ffffffffffffffffffffffffffffffffffffffff1681526020018281526020019250505060405180910390f35b3480156107d357600080fd5b506107f2600480360381019080803590602001909291905050506118ea565b005b34801561080057600080fd5b5061081f60048036038101908080359060200190929190505050611924565b005b34801561082d57600080fd5b50610836611a3e565b6040518080602001828103825283818151815260200191508051906020019080838360005b8381101561087657808201518184015260208101905061085b565b50505050905090810190601f1680156108a35780820380516001836020036101000a031916815260200191505b509250505060405180910390f35b3480156108bd57600080fd5b506108fe600480360381019080803573ffffffffffffffffffffffffffffffffffffffff169060200190929190803515159060200190929190505050611adc565b005b34801561090c57600080fd5b506109b1600480360381019080803573ffffffffffffffffffffffffffffffffffffffff169060200190929190803573ffffffffffffffffffffffffffffffffffffffff16906020019092919080359060200190929190803590602001908201803590602001908080601f0160208091040260200160405190810160405280939291908181526020018383808284378201915050505050509192919290505050611c18565b005b3480156109bf57600080fd5b506109de60048036038101908080359060200190929190505050611c57565b604051808373ffffffffffffffffffffffffffffffffffffffff1673ffffffffffffffffffffffffffffffffffffffff168152602001826fffffffffffffffffffffffffffffffff166fffffffffffffffffffffffffffffffff1681526020019250505060405180910390f35b348015610a5757600080fd5b50610a96600480360381019080803573ffffffffffffffffffffffffffffffffffffffff16906020019092919080359060200190929190505050611cb7565b6040518082815260200191505060405180910390f35b348015610ab857600080fd5b50610b0d600480360381019080803573ffffffffffffffffffffffffffffffffffffffff169060200190929190803573ffffffffffffffffffffffffffffffffffffffff169060200190929190505050611ce7565b604051808215151515815260200191505060405180910390f35b348015610b3357600080fd5b50610b5260048036038101908080359060200190929190505050611d7b565b005b60006301ffc9a77c0100000000000000000000000000000000000000000000000000000000027bffffffffffffffffffffffffffffffffffffffffffffffffffffffff1916827bffffffffffffffffffffffffffffffffffffffffffffffffffffffff19161480610c2557506380ac58cd7c0100000000000000000000000000000000000000000000000000000000027bffffffffffffffffffffffffffffffffffffffffffffffffffffffff1916827bffffffffffffffffffffffffffffffffffffffffffffffffffffffff1916145b80610c90575063780e9d637c0100000000000000000000000000000000000000000000000000000000027bffffffffffffffffffffffffffffffffffffffffffffffffffffffff1916827bffffffffffffffffffffffffffffffffffffffffffffffffffffffff1916145b9050919050565b60008054600181600116156101000203166002900480601f016020809104026020016040519081016040528092919081815260200182805460018160011615610100020316600290048015610d2d5780601f10610d0257610100808354040283529160200191610d2d565b820191906000526020600020905b815481529060010190602001808311610d1057829003601f168201915b505050505081565b60006004600083815260200190815260200160002060009054906101000a900473ffffffffffffffffffffffffffffffffffffffff169050919050565b6000610d7d8261176e565b90508073ffffffffffffffffffffffffffffffffffffffff168373ffffffffffffffffffffffffffffffffffffffff1614151515610dba57600080fd5b8073ffffffffffffffffffffffffffffffffffffffff163373ffffffffffffffffffffffffffffffffffffffff161480610dfa5750610df98133611ce7565b5b1515610e0557600080fd5b600073ffffffffffffffffffffffffffffffffffffffff16610e2683610d35565b73ffffffffffffffffffffffffffffffffffffffff16141580610e765750600073ffffffffffffffffffffffffffffffffffffffff168373ffffffffffffffffffffffffffffffffffffffff1614155b15610f2957826004600084815260200190815260200160002060006101000a81548173ffffffffffffffffffffffffffffffffffffffff021916908373ffffffffffffffffffffffffffffffffffffffff160217905550818373ffffffffffffffffffffffffffffffffffffffff168273ffffffffffffffffffffffffffffffffffffffff167f8c5be1e5ebec7d5bd14f71427d1e84f3dd0314c0f7b2291e5b200ac8c7c3b92560405160405180910390a45b505050565b6000600280549050905090565b610f43612433565b610f4d3384611d7e565b610f573384611edd565b60408051908101604052803373ffffffffffffffffffffffffffffffffffffffff168152602001836fffffffffffffffffffffffffffffffff168152509050806008600085815260200190815260200160002060008201518160000160006101000a81548173ffffffffffffffffffffffffffffffffffffffff021916908373ffffffffffffffffffffffffffffffffffffffff16021790555060208201518160010160006101000a8154816fffffffffffffffffffffffffffffffff02191690836fffffffffffffffffffffffffffffffff1602179055509050507fa29262303591d48ce94646a46b652916ce782073349bb5dc261ac4c5237d9397833384604051808481526020018373ffffffffffffffffffffffffffffffffffffffff1673ffffffffffffffffffffffffffffffffffffffff168152602001828152602001935050505060405180910390a1505050565b806110b6338261200c565b15156110c157600080fd5b600073ffffffffffffffffffffffffffffffffffffffff168473ffffffffffffffffffffffffffffffffffffffff16141515156110fd57600080fd5b600073ffffffffffffffffffffffffffffffffffffffff168373ffffffffffffffffffffffffffffffffffffffff161415151561113957600080fd5b6111438483611d7e565b61114d8483611edd565b61115783836120a1565b818373ffffffffffffffffffffffffffffffffffffffff168573ffffffffffffffffffffffffffffffffffffffff167fddf252ad1be2c89b69c2b068fc378daa952ba7f163c4a11628f55a4df523b3ef60405160405180910390a450505050565b60006008600083815260200190815260200160002090508060010160009054906101000a90046fffffffffffffffffffffffffffffffff166fffffffffffffffffffffffffffffffff163410151515611279576040517f08c379a000000000000000000000000000000000000000000000000000000000815260040180806020018281038252600e8152602001807f4e6f7420656e6f7567682077656900000000000000000000000000000000000081525060200191505060405180910390fd5b61128333836120a1565b60086000838152602001908152602001600020600080820160006101000a81549073ffffffffffffffffffffffffffffffffffffffff02191690556001820160006101000a8154906fffffffffffffffffffffffffffffffff021916905550507fbaff7966f0758b1794fcea83b6d60c741b6fe4ab1b2431d4353784f68551d156828260000160009054906101000a900473ffffffffffffffffffffffffffffffffffffffff168360010160009054906101000a90046fffffffffffffffffffffffffffffffff16604051808481526020018373ffffffffffffffffffffffffffffffffffffffff1673ffffffffffffffffffffffffffffffffffffffff168152602001826fffffffffffffffffffffffffffffffff168152602001935050505060405180910390a15050565b60006113bb836117e7565b821015156113c857600080fd5b600660008473ffffffffffffffffffffffffffffffffffffffff1673ffffffffffffffffffffffffffffffffffffffff1681526020019081526020016000208281548110151561141457fe5b9060005260206000200154905092915050565b80611432338261200c565b151561143d57600080fd5b6114598484846020604051908101604052806000815250611c18565b50505050565b611467612475565b60006060604051908101604052808681526020016000600381111561148857fe5b815260200185600181111561149957fe5b60018111156114a457fe5b81525091506002829080600181540180825580915050906001820390600052602060002090600202016000909192909190915060008201518160000190805190602001906114f39291906124ad565b5060208201518160010160006101000a81548160ff0219169083600381111561151857fe5b021790555060408201518160010160016101000a81548160ff0219169083600181111561154157fe5b02179055505050905061155433826120a1565b63ffffffff811115151561156757600080fd5b6115718184610f3b565b5050505050565b6000806003600084815260200190815260200160002060009054906101000a900473ffffffffffffffffffffffffffffffffffffffff169050600073ffffffffffffffffffffffffffffffffffffffff168173ffffffffffffffffffffffffffffffffffffffff161415915050919050565b6000806115f5610f2e565b8310151561160257600080fd5b60028381548110151561161157fe5b906000526020600020906002020160010160009054906101000a900460ff16600381111561163b57fe5b60028481548110151561164a57fe5b906000526020600020906002020160010160019054906101000a900460ff16600181111561167457fe5b91509150915091565b8173ffffffffffffffffffffffffffffffffffffffff163373ffffffffffffffffffffffffffffffffffffffff161415156116b757600080fd5b6116c18282611d7e565b6116cb8282611edd565b80600073ffffffffffffffffffffffffffffffffffffffff168373ffffffffffffffffffffffffffffffffffffffff167fddf252ad1be2c89b69c2b068fc378daa952ba7f163c4a11628f55a4df523b3ef60405160405180910390a45050565b7fffffffffffffffffffffffffffffffffffffffffffffffffffffffffb0aa71877c01000000000000000000000000000000000000000000000000000000000281565b60006003600083815260200190815260200160002060009054906101000a900473ffffffffffffffffffffffffffffffffffffffff169050600073ffffffffffffffffffffffffffffffffffffffff168173ffffffffffffffffffffffffffffffffffffffff16141515156117e257600080fd5b919050565b60008073ffffffffffffffffffffffffffffffffffffffff168273ffffffffffffffffffffffffffffffffffffffff161415151561182457600080fd5b600560008373ffffffffffffffffffffffffffffffffffffffff1673ffffffffffffffffffffffffffffffffffffffff168152602001908152602001600020549050919050565b60008060006008600085815260200190815260200160002090508060000160009054906101000a900473ffffffffffffffffffffffffffffffffffffffff168160010160009054906101000a90046fffffffffffffffffffffffffffffffff16806fffffffffffffffffffffffffffffffff1690509250925050915091565b7fcce3a419c92a3c178219325ad1f4d004e5b6721f715b19111c7000b3d8a49fcb816040518082815260200191505060405180910390a150565b60006008600083815260200190815260200160002090508060000160009054906101000a900473ffffffffffffffffffffffffffffffffffffffff1673ffffffffffffffffffffffffffffffffffffffff163373ffffffffffffffffffffffffffffffffffffffff1614151561199957600080fd5b60086000838152602001908152602001600020600080820160006101000a81549073ffffffffffffffffffffffffffffffffffffffff02191690556001820160006101000a8154906fffffffffffffffffffffffffffffffff02191690555050611a0333836120a1565b7f2c56893f6f6026d19bd17b7d05c9f15c522de1ae2b1c3a825f91a73c799321f2826040518082815260200191505060405180910390a15050565b60018054600181600116156101000203166002900480601f016020809104026020016040519081016040528092919081815260200182805460018160011615610100020316600290048015611ad45780601f10611aa957610100808354040283529160200191611ad4565b820191906000526020600020905b815481529060010190602001808311611ab757829003601f168201915b505050505081565b3373ffffffffffffffffffffffffffffffffffffffff168273ffffffffffffffffffffffffffffffffffffffff1614151515611b1757600080fd5b80600760003373ffffffffffffffffffffffffffffffffffffffff1673ffffffffffffffffffffffffffffffffffffffff16815260200190815260200160002060008473ffffffffffffffffffffffffffffffffffffffff1673ffffffffffffffffffffffffffffffffffffffff16815260200190815260200160002060006101000a81548160ff0219169083151502179055508173ffffffffffffffffffffffffffffffffffffffff163373ffffffffffffffffffffffffffffffffffffffff167f17307eab39ab6107e8899845ad3d59bd9653f200f220920489ca2b5937696c3183604051808215151515815260200191505060405180910390a35050565b81611c23338261200c565b1515611c2e57600080fd5b611c398585856110ab565b611c45858585856121fb565b1515611c5057600080fd5b5050505050565b60086020528060005260406000206000915090508060000160009054906101000a900473ffffffffffffffffffffffffffffffffffffffff16908060010160009054906101000a90046fffffffffffffffffffffffffffffffff16905082565b600660205281600052604060002081815481101515611cd257fe5b90600052602060002001600091509150505481565b6000600760008473ffffffffffffffffffffffffffffffffffffffff1673ffffffffffffffffffffffffffffffffffffffff16815260200190815260200160002060008373ffffffffffffffffffffffffffffffffffffffff1673ffffffffffffffffffffffffffffffffffffffff16815260200190815260200160002060009054906101000a900460ff16905092915050565b50565b8173ffffffffffffffffffffffffffffffffffffffff16611d9e8261176e565b73ffffffffffffffffffffffffffffffffffffffff16141515611dc057600080fd5b600073ffffffffffffffffffffffffffffffffffffffff166004600083815260200190815260200160002060009054906101000a900473ffffffffffffffffffffffffffffffffffffffff1673ffffffffffffffffffffffffffffffffffffffff16141515611ed95760006004600083815260200190815260200160002060006101000a81548173ffffffffffffffffffffffffffffffffffffffff021916908373ffffffffffffffffffffffffffffffffffffffff16021790555080600073ffffffffffffffffffffffffffffffffffffffff168373ffffffffffffffffffffffffffffffffffffffff167f8c5be1e5ebec7d5bd14f71427d1e84f3dd0314c0f7b2291e5b200ac8c7c3b92560405160405180910390a45b5050565b8173ffffffffffffffffffffffffffffffffffffffff16611efd8261176e565b73ffffffffffffffffffffffffffffffffffffffff16141515611f1f57600080fd5b611f726001600560008573ffffffffffffffffffffffffffffffffffffffff1673ffffffffffffffffffffffffffffffffffffffff168152602001908152602001600020546123e990919063ffffffff16565b600560008473ffffffffffffffffffffffffffffffffffffffff1673ffffffffffffffffffffffffffffffffffffffff1681526020019081526020016000208190555060006003600083815260200190815260200160002060006101000a81548173ffffffffffffffffffffffffffffffffffffffff021916908373ffffffffffffffffffffffffffffffffffffffff1602179055505050565b6000806120188361176e565b90508073ffffffffffffffffffffffffffffffffffffffff168473ffffffffffffffffffffffffffffffffffffffff16148061208757508373ffffffffffffffffffffffffffffffffffffffff1661206f84610d35565b73ffffffffffffffffffffffffffffffffffffffff16145b8061209857506120978185611ce7565b5b91505092915050565b600073ffffffffffffffffffffffffffffffffffffffff166003600083815260200190815260200160002060009054906101000a900473ffffffffffffffffffffffffffffffffffffffff1673ffffffffffffffffffffffffffffffffffffffff1614151561210f57600080fd5b816003600083815260200190815260200160002060006101000a81548173ffffffffffffffffffffffffffffffffffffffff021916908373ffffffffffffffffffffffffffffffffffffffff1602179055506121b46001600560008573ffffffffffffffffffffffffffffffffffffffff1673ffffffffffffffffffffffffffffffffffffffff1681526020019081526020016000205461240290919063ffffffff16565b600560008473ffffffffffffffffffffffffffffffffffffffff1673ffffffffffffffffffffffffffffffffffffffff168152602001908152602001600020819055505050565b60008061221d8573ffffffffffffffffffffffffffffffffffffffff16612420565b151561222c57600191506123e0565b8473ffffffffffffffffffffffffffffffffffffffff1663f0b9e5ba8786866040518463ffffffff167c0100000000000000000000000000000000000000000000000000000000028152600401808473ffffffffffffffffffffffffffffffffffffffff1673ffffffffffffffffffffffffffffffffffffffff16815260200183815260200180602001828103825283818151815260200191508051906020019080838360005b838110156122ee5780820151818401526020810190506122d3565b50505050905090810190601f16801561231b5780820380516001836020036101000a031916815260200191505b50945050505050602060405180830381600087803b15801561233c57600080fd5b505af1158015612350573d6000803e3d6000fd5b505050506040513d602081101561236657600080fd5b8101908080519060200190929190505050905063f0b9e5ba7c0100000000000000000000000000000000000000000000000000000000027bffffffffffffffffffffffffffffffffffffffffffffffffffffffff1916817bffffffffffffffffffffffffffffffffffffffffffffffffffffffff19161491505b50949350505050565b60008282111515156123f757fe5b818303905092915050565b600080828401905083811015151561241657fe5b8091505092915050565b600080823b905060008111915050919050565b6040805190810160405280600073ffffffffffffffffffffffffffffffffffffffff16815260200160006fffffffffffffffffffffffffffffffff1681525090565b606060405190810160405280606081526020016000600381111561249557fe5b8152602001600060018111156124a757fe5b81525090565b828054600181600116156101000203166002900490600052602060002090601f016020900481019282601f106124ee57805160ff191683800117855561251c565b8280016001018555821561251c579182015b8281111561251b578251825591602001919060010190612500565b5b509050612529919061252d565b5090565b61254f91905b8082111561254b576000816000905550600101612533565b5090565b905600a165627a7a723058208c2fd58cc0dc1569323e3a30a94842bcd5154ceaff5ca9568510be366d5885050029",
  "source": "pragma solidity ^0.4.23;\n\nimport \"./MineorityBase.sol\";\n\ncontract MineoritySale is MineorityBase{\n\n        \n    // With potential to be expanded to fit user-trading system\n    struct SaleLot {\n        address seller;\n        uint128 price;\n        //uint64 creationTime \n    }\n\n    mapping (uint256 => SaleLot) public tokenIndexToSaleLot;\n\n    event SaleCreated(uint256 tokenId,address seller,uint256 price);\n    event SaleClosed(uint256 tokenId,address seller,uint256 price);\n    event SaleCancelled(uint256 tokenId);\n\n    //**Mint and burn tokens + put on sale**/\n\n    function _mint(\n        string _GPUID,\n        uint256 _GPUType,\n        uint256 _price) public /*ownerOnly*/\n    {\n        Token memory _token = Token({\n            GPUID: _GPUID,\n            tokenStatus: Status.New,\n            GPUType: Type(_GPUType)\n        });\n\n        uint256 _tokenId = allTokens.push(_token);\n        addTokenTo(msg.sender,_tokenId);\n        // Just to make sure\n        require(_tokenId <= 4294967295);\n\n        sellToken(_tokenId, _price);\n    }\n\n    function _burn(address _owner, uint256 _tokenId) public {\n        require(msg.sender == _owner);\n        clearApproval(_owner, _tokenId);\n        removeTokenFrom(_owner, _tokenId);\n        emit Transfer(_owner, address(0), _tokenId);\n    } \n\n    // This will work for both admins and users(soon)\n    function sellToken(uint256 _tokenId,uint256 _price) public {\n        clearApproval(msg.sender,_tokenId);\n        removeTokenFrom(msg.sender,_tokenId);\n\n        //addTokenTo(this,tokenId);\n\n        SaleLot memory lot = SaleLot({\n            seller: msg.sender,\n            price: uint128(_price)\n        });\n\n        tokenIndexToSaleLot[_tokenId] = lot;\n\n        emit SaleCreated(_tokenId, msg.sender, _price);\n    }\n\n    function buyToken(uint256 _tokenId) public payable {\n        SaleLot storage lot = tokenIndexToSaleLot[_tokenId];\n\n        require(msg.value >= lot.price,\"Not enough wei\");\n\n        addTokenTo(msg.sender, _tokenId);\n        delete tokenIndexToSaleLot[_tokenId];\n\n        //* Do something with new arrived wei,\n        //* take fees or whatever\n\n        emit SaleClosed(_tokenId,lot.seller,lot.price);\n    }\n\n\n    function removeSaleLot(uint256 _tokenId) public {\n        SaleLot storage lot = tokenIndexToSaleLot[_tokenId];\n        require(msg.sender == lot.seller);\n\n        delete tokenIndexToSaleLot[_tokenId];\n        addTokenTo(msg.sender, _tokenId);\n\n        emit SaleCancelled(_tokenId);\n    }\n\n    function getSaleLot(uint256 _tokenId) public view returns (address,uint256) {\n        SaleLot storage lot = tokenIndexToSaleLot[_tokenId];\n\n        return (\n            lot.seller,\n            lot.price );\n    }\n\n    //* Functions to withdraw ours funds from fees\n\n    //* Need another contract\n    //* maybe we need to add timestamp for time creation \n    //* Some function to prove token ownership on backend \n    //* Function to check tokens params\n    event Check(uint256 checksum);\n    function proveOwner(uint256 _checksum) public {\n        emit Check(_checksum);\n    }\n\n    function switchStatus(uint256 _tokenId) public /*ownerOnly*/ {\n        //maintenance to active and opposite\n    }\n}\n",
  "sourcePath": "/home/andrew/Projects/truffleTest/wemine.web3/contracts/MineoritySale.sol",
  "compiler": {
    "name": "solc",
    "version": "0.4.23+commit.124ca40d.Emscripten.clang"
  },
  "schemaVersion": "1.0.1",
  "updatedAt": "2018-05-13T20:24:27.797Z"
}